{
  "transactions": [
    {
      "hash": "0x7d0c80fff6a329ca91cc34cff97a20f98fdf5ed5edde0110710a006f8a146810",
      "transactionType": "CALL",
      "contractName": null,
      "contractAddress": "0xb65d7beb87f57cc725e5f829d7fd23e2a0a7a59f",
      "function": "approve(address,uint256)",
      "arguments": [
        "0xAf769279a2BFfb602B5e4a4B0227CaC865C6FE79",
        "500000000000000000000"
      ],
      "transaction": {
        "from": "0xeddbf148d81d58e81c34db54e751d4fc9aedd0a7",
        "to": "0xb65d7beb87f57cc725e5f829d7fd23e2a0a7a59f",
        "gas": "0xaa7b",
        "value": "0x0",
        "input": "0x095ea7b3000000000000000000000000af769279a2bffb602b5e4a4b0227cac865c6fe7900000000000000000000000000000000000000000000001b1ae4d6e2ef500000",
        "nonce": "0x68",
        "chainId": "0xaa36a7"
      },
      "additionalContracts": [],
      "isFixedGasLimit": false
    },
    {
      "hash": "0x9b9af479d2ce9850b23da2b1bd8083cda4b4c2db51df537ccaaceccafbf7004e",
      "transactionType": "CALL",
      "contractName": null,
      "contractAddress": "0xaf769279a2bffb602b5e4a4b0227cac865c6fe79",
      "function": "addLiquidity(uint256)",
      "arguments": [
        "500000000000000000000"
      ],
      "transaction": {
        "from": "0xeddbf148d81d58e81c34db54e751d4fc9aedd0a7",
        "to": "0xaf769279a2bffb602b5e4a4b0227cac865c6fe79",
        "gas": "0x24f79",
        "value": "0x2c68af0bb140000",
        "input": "0x51c6590a00000000000000000000000000000000000000000000001b1ae4d6e2ef500000",
        "nonce": "0x69",
        "chainId": "0xaa36a7"
      },
      "additionalContracts": [],
      "isFixedGasLimit": false
    },
    {
      "hash": "0xec1974aa60a626aef0588d83931a4162f22dedfd4cdbea1bb8abb27c0d0f09f2",
      "transactionType": "CALL",
      "contractName": null,
      "contractAddress": "0x75841c57ee004474ada7e2d1e6c20b5f8b00e1c1",
      "function": "approve(address,uint256)",
      "arguments": [
        "0xe4bFf792EB1e017A68fB9967BEB1aA100710d017",
        "62500000000000000000"
      ],
      "transaction": {
        "from": "0xeddbf148d81d58e81c34db54e751d4fc9aedd0a7",
        "to": "0x75841c57ee004474ada7e2d1e6c20b5f8b00e1c1",
        "gas": "0xaa7b",
        "value": "0x0",
        "input": "0x095ea7b3000000000000000000000000e4bff792eb1e017a68fb9967beb1aa100710d017000000000000000000000000000000000000000000000003635c9adc5dea0000",
        "nonce": "0x6a",
        "chainId": "0xaa36a7"
      },
      "additionalContracts": [],
      "isFixedGasLimit": false
    },
    {
      "hash": "0x732b3bbdef2d845f38993e51dc0c2ccbb74562652c57ccbb5657c953c19e4831",
      "transactionType": "CALL",
      "contractName": null,
      "contractAddress": "0xe4bff792eb1e017a68fb9967beb1aa100710d017",
      "function": "addLiquidity(uint256)",
      "arguments": [
        "62500000000000000000"
      ],
      "transaction": {
        "from": "0xeddbf148d81d58e81c34db54e751d4fc9aedd0a7",
        "to": "0xe4bff792eb1e017a68fb9967beb1aa100710d017",
        "gas": "0x1b95e",
        "value": "0x2c68af0bb140000",
        "input": "0x51c6590a000000000000000000000000000000000000000000000003635c9adc5dea0000",
        "nonce": "0x6b",
        "chainId": "0xaa36a7"
      },
      "additionalContracts": [],
      "isFixedGasLimit": false
    },
    {
      "hash": "0x3dcb47641a10eb54f6bf45de02d613815f522375f688225e1b59434191585812",
      "transactionType": "CALL",
      "contractName": null,
      "contractAddress": "0x16e7fc1922c8baf21e5176276273885e6dabff09",
      "function": "approve(address,uint256)",
      "arguments": [
        "0x3e2b88B7ee844b68EA1d47875c1985Fad4A771dD",
        "25000000000000000000"
      ],
      "transaction": {
        "from": "0xeddbf148d81d58e81c34db54e751d4fc9aedd0a7",
        "to": "0x16e7fc1922c8baf21e5176276273885e6dabff09",
        "gas": "0xfd45",
        "value": "0x0",
        "input": "0x095ea7b30000000000000000000000003e2b88b7ee844b68ea1d47875c1985fad4a771dd0000000000000000000000000000000000000000000000015af1d78b58c40000",
        "nonce": "0x6c",
        "chainId": "0xaa36a7"
      },
      "additionalContracts": [],
      "isFixedGasLimit": false
    },
    {
      "hash": "0x0ccfb3fce09de90c1e44218086ac02c4fd098359b257adc7f965ea7fd5290447",
      "transactionType": "CALL",
      "contractName": null,
      "contractAddress": "0x3e2b88b7ee844b68ea1d47875c1985fad4a771dd",
      "function": "addLiquidity(uint256)",
      "arguments": [
        "25000000000000000000"
      ],
      "transaction": {
        "from": "0xeddbf148d81d58e81c34db54e751d4fc9aedd0a7",
        "to": "0x3e2b88b7ee844b68ea1d47875c1985fad4a771dd",
        "gas": "0x24f79",
        "value": "0x2c68af0bb140000",
        "input": "0x51c6590a0000000000000000000000000000000000000000000000015af1d78b58c40000",
        "nonce": "0x6d",
        "chainId": "0xaa36a7"
      },
      "additionalContracts": [],
      "isFixedGasLimit": false
    },
    {
      "hash": "0x5ca2482c84f74ed1a2bcb02f2b1019567197d3eea04dc7c7746651b161e8af9e",
      "transactionType": "CALL",
      "contractName": null,
      "contractAddress": "0xe17a3c8fbe4519d4d5347082f77589ea23336a9c",
      "function": "approve(address,uint256)",
      "arguments": [
        "0xDedef7d082b788456FEF027D364642B686bC227a",
        "1890000000000000000"
      ],
      "transaction": {
        "from": "0xeddbf148d81d58e81c34db54e751d4fc9aedd0a7",
        "to": "0xe17a3c8fbe4519d4d5347082f77589ea23336a9c",
        "gas": "0xa0f2",
        "value": "0x0",
        "input": "0x095ea7b3000000000000000000000000dedef7d082b788456fef027d364642b686bc227a0000000000000000000000000000000000000000000000001a3aa0fc817d0000",
        "nonce": "0x6e",
        "chainId": "0xaa36a7"
      },
      "additionalContracts": [],
      "isFixedGasLimit": false
    },
    {
      "hash": "0xcda50a6ab0d28be40670b3c935fb062cb8b4b745ecbe60fc09f545450c98c53e",
      "transactionType": "CALL",
      "contractName": null,
      "contractAddress": "0xdedef7d082b788456fef027d364642b686bc227a",
      "function": "addLiquidity(uint256)",
      "arguments": [
        "1890000000000000000"
      ],
      "transaction": {
        "from": "0xeddbf148d81d58e81c34db54e751d4fc9aedd0a7",
        "to": "0xdedef7d082b788456fef027d364642b686bc227a",
        "gas": "0x24f68",
        "value": "0x2c68af0bb140000",
        "input": "0x51c6590a0000000000000000000000000000000000000000000000001a3aa0fc817d0000",
        "nonce": "0x6f",
        "chainId": "0xaa36a7"
      },
      "additionalContracts": [],
      "isFixedGasLimit": false
    }
  ],
  "receipts": [
    {
      "status": "0x1",
      "cumulativeGasUsed": "0x1466135",
      "logs": [
        {
          "address": "0xb65d7beb87f57cc725e5f829d7fd23e2a0a7a59f",
          "topics": [
            "0x8c5be1e5ebec7d5bd14f71427d1e84f3dd0314c0f7b2291e5b200ac8c7c3b925",
            "0x000000000000000000000000eddbf148d81d58e81c34db54e751d4fc9aedd0a7",
            "0x000000000000000000000000af769279a2bffb602b5e4a4b0227cac865c6fe79"
          ],
          "data": "0x00000000000000000000000000000000000000000000001b1ae4d6e2ef500000",
          "blockHash": "0x0b63c1224d2118091e12fa7506e1cee6ffe4f3b26edc79225cf64361263d9882",
          "blockNumber": "0x842707",
          "blockTimestamp": "0x68625318",
          "transactionHash": "0x7d0c80fff6a329ca91cc34cff97a20f98fdf5ed5edde0110710a006f8a146810",
          "transactionIndex": "0xe6",
          "logIndex": "0x158",
          "removed": false
        }
      ],
      "logsBloom": "0x00000000000000000000000000000000000000000000000000000000000000000000000000100000000000000000000000000000000000000000000000200000000000000000000000000000000400000000000800000000000000000000000000000000000000000000000000000000000000000002004000000000000000000000000000000000000000000000000000000000000000000000000000000000020000000000000200000000020000000000020000000000000000000000000000000000000000000000000000000000000000000000000000000000000000000010000000000000000000000000000000000000000000000000000000000001",
      "type": "0x2",
      "transactionHash": "0x7d0c80fff6a329ca91cc34cff97a20f98fdf5ed5edde0110710a006f8a146810",
      "transactionIndex": "0xe6",
      "blockHash": "0x0b63c1224d2118091e12fa7506e1cee6ffe4f3b26edc79225cf64361263d9882",
      "blockNumber": "0x842707",
      "gasUsed": "0x7492",
      "effectiveGasPrice": "0x82a352",
      "from": "0xeddbf148d81d58e81c34db54e751d4fc9aedd0a7",
      "to": "0xb65d7beb87f57cc725e5f829d7fd23e2a0a7a59f",
      "contractAddress": null
    },
    {
      "status": "0x1",
      "cumulativeGasUsed": "0x1480d6d",
      "logs": [
        {
          "address": "0xb65d7beb87f57cc725e5f829d7fd23e2a0a7a59f",
          "topics": [
            "0xddf252ad1be2c89b69c2b068fc378daa952ba7f163c4a11628f55a4df523b3ef",
            "0x000000000000000000000000eddbf148d81d58e81c34db54e751d4fc9aedd0a7",
            "0x000000000000000000000000af769279a2bffb602b5e4a4b0227cac865c6fe79"
          ],
          "data": "0x00000000000000000000000000000000000000000000001b1ae4d6e2ef500000",
          "blockHash": "0x0b63c1224d2118091e12fa7506e1cee6ffe4f3b26edc79225cf64361263d9882",
          "blockNumber": "0x842707",
          "blockTimestamp": "0x68625318",
          "transactionHash": "0x9b9af479d2ce9850b23da2b1bd8083cda4b4c2db51df537ccaaceccafbf7004e",
          "transactionIndex": "0xe7",
          "logIndex": "0x159",
          "removed": false
        },
        {
          "address": "0xaf769279a2bffb602b5e4a4b0227cac865c6fe79",
          "topics": [
            "0xddf252ad1be2c89b69c2b068fc378daa952ba7f163c4a11628f55a4df523b3ef",
            "0x0000000000000000000000000000000000000000000000000000000000000000",
            "0x000000000000000000000000eddbf148d81d58e81c34db54e751d4fc9aedd0a7"
          ],
          "data": "0x00000000000000000000000000000000000000000000000002c68af0bb140000",
          "blockHash": "0x0b63c1224d2118091e12fa7506e1cee6ffe4f3b26edc79225cf64361263d9882",
          "blockNumber": "0x842707",
          "blockTimestamp": "0x68625318",
          "transactionHash": "0x9b9af479d2ce9850b23da2b1bd8083cda4b4c2db51df537ccaaceccafbf7004e",
          "transactionIndex": "0xe7",
          "logIndex": "0x15a",
          "removed": false
        },
        {
          "address": "0xaf769279a2bffb602b5e4a4b0227cac865c6fe79",
          "topics": [
            "0x06239653922ac7bea6aa2b19dc486b9361821d37712eb796adfd38d81de278ca",
            "0x000000000000000000000000eddbf148d81d58e81c34db54e751d4fc9aedd0a7",
            "0x00000000000000000000000000000000000000000000000002c68af0bb140000",
            "0x00000000000000000000000000000000000000000000001b1ae4d6e2ef500000"
          ],
          "data": "0x",
          "blockHash": "0x0b63c1224d2118091e12fa7506e1cee6ffe4f3b26edc79225cf64361263d9882",
          "blockNumber": "0x842707",
          "blockTimestamp": "0x68625318",
          "transactionHash": "0x9b9af479d2ce9850b23da2b1bd8083cda4b4c2db51df537ccaaceccafbf7004e",
          "transactionIndex": "0xe7",
          "logIndex": "0x15b",
          "removed": false
        },
        {
          "address": "0xaf769279a2bffb602b5e4a4b0227cac865c6fe79",
          "topics": [
            "0xddf252ad1be2c89b69c2b068fc378daa952ba7f163c4a11628f55a4df523b3ef",
            "0x0000000000000000000000000000000000000000000000000000000000000000",
            "0x000000000000000000000000eddbf148d81d58e81c34db54e751d4fc9aedd0a7"
          ],
          "data": "0x00000000000000000000000000000000000000000000000002c68af0bb140000",
          "blockHash": "0x0b63c1224d2118091e12fa7506e1cee6ffe4f3b26edc79225cf64361263d9882",
          "blockNumber": "0x842707",
          "blockTimestamp": "0x68625318",
          "transactionHash": "0x9b9af479d2ce9850b23da2b1bd8083cda4b4c2db51df537ccaaceccafbf7004e",
          "transactionIndex": "0xe7",
          "logIndex": "0x15c",
          "removed": false
        }
      ],
      "logsBloom": "0x00000000000000000000000000000000000000000000000000000000000000008000200000100000000000000000000000020200000000000000000000000000000000000000000000044008000400000000000800000000000000000000000000000000020000000000000000000800000000000002004000000010000008000000000000000000000000000000000000000000000000000000000000040000000000000000000200000000020000040002020000000000000000000000000000000002000000000000000000000000000000000000000000000000000020000000000000000000000000000000000000080000000000000000000400000001",
      "type": "0x2",
      "transactionHash": "0x9b9af479d2ce9850b23da2b1bd8083cda4b4c2db51df537ccaaceccafbf7004e",
      "transactionIndex": "0xe7",
      "blockHash": "0x0b63c1224d2118091e12fa7506e1cee6ffe4f3b26edc79225cf64361263d9882",
      "blockNumber": "0x842707",
      "gasUsed": "0x1ac38",
      "effectiveGasPrice": "0x82a352",
      "from": "0xeddbf148d81d58e81c34db54e751d4fc9aedd0a7",
      "to": "0xaf769279a2bffb602b5e4a4b0227cac865c6fe79",
      "contractAddress": null
    },
    {
      "status": "0x1",
      "cumulativeGasUsed": "0x14881ff",
      "logs": [
        {
          "address": "0x75841c57ee004474ada7e2d1e6c20b5f8b00e1c1",
          "topics": [
            "0x8c5be1e5ebec7d5bd14f71427d1e84f3dd0314c0f7b2291e5b200ac8c7c3b925",
            "0x000000000000000000000000eddbf148d81d58e81c34db54e751d4fc9aedd0a7",
            "0x000000000000000000000000e4bff792eb1e017a68fb9967beb1aa100710d017"
          ],
          "data": "0x000000000000000000000000000000000000000000000003635c9adc5dea0000",
          "blockHash": "0x0b63c1224d2118091e12fa7506e1cee6ffe4f3b26edc79225cf64361263d9882",
          "blockNumber": "0x842707",
          "blockTimestamp": "0x68625318",
          "transactionHash": "0xec1974aa60a626aef0588d83931a4162f22dedfd4cdbea1bb8abb27c0d0f09f2",
          "transactionIndex": "0xe8",
          "logIndex": "0x15d",
          "removed": false
        }
      ],
      "logsBloom": "0x00000000000000000000000000000000000000000000000000000000000000000000000000100000000000000000000000000000000000000000000000200000000000000000200000000000000400000000000000000000000000000000000000000000000000000000000000000000000000000000000000000000000000000000400000000000000000000000000000000000000000000010000000000000020000000000000000000000000000000000000000000000000000000000000000000000000000080000000000000000000000000020000000000200000000000010000000000000000000000000000000000000000000000000000000000001",
      "type": "0x2",
      "transactionHash": "0xec1974aa60a626aef0588d83931a4162f22dedfd4cdbea1bb8abb27c0d0f09f2",
      "transactionIndex": "0xe8",
      "blockHash": "0x0b63c1224d2118091e12fa7506e1cee6ffe4f3b26edc79225cf64361263d9882",
      "blockNumber": "0x842707",
      "gasUsed": "0x7492",
      "effectiveGasPrice": "0x82a352",
      "from": "0xeddbf148d81d58e81c34db54e751d4fc9aedd0a7",
      "to": "0x75841c57ee004474ada7e2d1e6c20b5f8b00e1c1",
      "contractAddress": null
    },
    {
      "status": "0x1",
      "cumulativeGasUsed": "0x149afca",
      "logs": [
        {
          "address": "0x75841c57ee004474ada7e2d1e6c20b5f8b00e1c1",
          "topics": [
            "0xddf252ad1be2c89b69c2b068fc378daa952ba7f163c4a11628f55a4df523b3ef",
            "0x000000000000000000000000eddbf148d81d58e81c34db54e751d4fc9aedd0a7",
            "0x000000000000000000000000e4bff792eb1e017a68fb9967beb1aa100710d017"
          ],
          "data": "0x000000000000000000000000000000000000000000000003635c9adc5dea0000",
          "blockHash": "0x0b63c1224d2118091e12fa7506e1cee6ffe4f3b26edc79225cf64361263d9882",
          "blockNumber": "0x842707",
          "blockTimestamp": "0x68625318",
          "transactionHash": "0x732b3bbdef2d845f38993e51dc0c2ccbb74562652c57ccbb5657c953c19e4831",
          "transactionIndex": "0xe9",
          "logIndex": "0x15e",
          "removed": false
        },
        {
          "address": "0xe4bff792eb1e017a68fb9967beb1aa100710d017",
          "topics": [
            "0xddf252ad1be2c89b69c2b068fc378daa952ba7f163c4a11628f55a4df523b3ef",
            "0x0000000000000000000000000000000000000000000000000000000000000000",
            "0x000000000000000000000000eddbf148d81d58e81c34db54e751d4fc9aedd0a7"
          ],
          "data": "0x00000000000000000000000000000000000000000000000002c68af0bb140000",
          "blockHash": "0x0b63c1224d2118091e12fa7506e1cee6ffe4f3b26edc79225cf64361263d9882",
          "blockNumber": "0x842707",
          "blockTimestamp": "0x68625318",
          "transactionHash": "0x732b3bbdef2d845f38993e51dc0c2ccbb74562652c57ccbb5657c953c19e4831",
          "transactionIndex": "0xe9",
          "logIndex": "0x15f",
          "removed": false
        },
        {
          "address": "0xe4bff792eb1e017a68fb9967beb1aa100710d017",
          "topics": [
            "0x06239653922ac7bea6aa2b19dc486b9361821d37712eb796adfd38d81de278ca",
            "0x000000000000000000000000eddbf148d81d58e81c34db54e751d4fc9aedd0a7",
            "0x00000000000000000000000000000000000000000000000002c68af0bb140000",
            "0x000000000000000000000000000000000000000000000003635c9adc5dea0000"
          ],
          "data": "0x",
          "blockHash": "0x0b63c1224d2118091e12fa7506e1cee6ffe4f3b26edc79225cf64361263d9882",
          "blockNumber": "0x842707",
          "blockTimestamp": "0x68625318",
          "transactionHash": "0x732b3bbdef2d845f38993e51dc0c2ccbb74562652c57ccbb5657c953c19e4831",
          "transactionIndex": "0xe9",
          "logIndex": "0x160",
          "removed": false
        },
        {
          "address": "0xe4bff792eb1e017a68fb9967beb1aa100710d017",
          "topics": [
            "0xddf252ad1be2c89b69c2b068fc378daa952ba7f163c4a11628f55a4df523b3ef",
            "0x0000000000000000000000000000000000000000000000000000000000000000",
            "0x000000000000000000000000eddbf148d81d58e81c34db54e751d4fc9aedd0a7"
          ],
          "data": "0x00000000000000000000000000000000000000000000000002c68af0bb140000",
          "blockHash": "0x0b63c1224d2118091e12fa7506e1cee6ffe4f3b26edc79225cf64361263d9882",
          "blockNumber": "0x842707",
          "blockTimestamp": "0x68625318",
          "transactionHash": "0x732b3bbdef2d845f38993e51dc0c2ccbb74562652c57ccbb5657c953c19e4831",
          "transactionIndex": "0xe9",
          "logIndex": "0x161",
          "removed": false
        }
      ],
      "logsBloom": "0x00000000000000000000000800000000000000000000000000000000000000000000300004100000000000000000000000020000000000000000000000000000000000000000200000004008000400000000000000000000000000000000000000000000020000000000000000000800000000000000000000000010000008000000400000000000000000000000000000000000000000000010000000040000000000000800000000000000000000040000000000000000040000010000000000000002000000080000000000000000000000000020000000000200000020000000000000000000000000000000000000000000000000000000000000000001",
      "type": "0x2",
      "transactionHash": "0x732b3bbdef2d845f38993e51dc0c2ccbb74562652c57ccbb5657c953c19e4831",
      "transactionIndex": "0xe9",
      "blockHash": "0x0b63c1224d2118091e12fa7506e1cee6ffe4f3b26edc79225cf64361263d9882",
      "blockNumber": "0x842707",
      "gasUsed": "0x12dcb",
      "effectiveGasPrice": "0x82a352",
      "from": "0xeddbf148d81d58e81c34db54e751d4fc9aedd0a7",
      "to": "0xe4bff792eb1e017a68fb9967beb1aa100710d017",
      "contractAddress": null
    },
    {
      "status": "0x1",
      "cumulativeGasUsed": "0x14a6728",
      "logs": [
        {
          "address": "0x16e7fc1922c8baf21e5176276273885e6dabff09",
          "topics": [
            "0x8c5be1e5ebec7d5bd14f71427d1e84f3dd0314c0f7b2291e5b200ac8c7c3b925",
            "0x000000000000000000000000eddbf148d81d58e81c34db54e751d4fc9aedd0a7",
            "0x0000000000000000000000003e2b88b7ee844b68ea1d47875c1985fad4a771dd"
          ],
          "data": "0x0000000000000000000000000000000000000000000000015af1d78b58c40000",
          "blockHash": "0x0b63c1224d2118091e12fa7506e1cee6ffe4f3b26edc79225cf64361263d9882",
          "blockNumber": "0x842707",
          "blockTimestamp": "0x68625318",
          "transactionHash": "0x3dcb47641a10eb54f6bf45de02d613815f522375f688225e1b59434191585812",
          "transactionIndex": "0xea",
          "logIndex": "0x162",
          "removed": false
        }
      ],
      "logsBloom": "0x00000000000000000000000000000000000000000000020000000000000000000000000000100004000000000000000000000000800000000000000000200000000000000000000000000000000400000000000000000000000000000000000000000000000000000000000000000000000000000002000000000000000000000000000000000000000000000000000000000000000000000000000000000000020000000000000000000000001000000000000000000000000000000000000000000000000000000000000000000000000000000000000000000000000000000010000000200000000000000000000000000000000000000000000000000001",
      "type": "0x2",
      "transactionHash": "0x3dcb47641a10eb54f6bf45de02d613815f522375f688225e1b59434191585812",
      "transactionIndex": "0xea",
      "blockHash": "0x0b63c1224d2118091e12fa7506e1cee6ffe4f3b26edc79225cf64361263d9882",
      "blockNumber": "0x842707",
      "gasUsed": "0xb75e",
      "effectiveGasPrice": "0x82a352",
      "from": "0xeddbf148d81d58e81c34db54e751d4fc9aedd0a7",
      "to": "0x16e7fc1922c8baf21e5176276273885e6dabff09",
      "contractAddress": null
    },
    {
      "status": "0x1",
      "cumulativeGasUsed": "0x14c1360",
      "logs": [
        {
          "address": "0x16e7fc1922c8baf21e5176276273885e6dabff09",
          "topics": [
            "0xddf252ad1be2c89b69c2b068fc378daa952ba7f163c4a11628f55a4df523b3ef",
            "0x000000000000000000000000eddbf148d81d58e81c34db54e751d4fc9aedd0a7",
            "0x0000000000000000000000003e2b88b7ee844b68ea1d47875c1985fad4a771dd"
          ],
          "data": "0x0000000000000000000000000000000000000000000000015af1d78b58c40000",
          "blockHash": "0x0b63c1224d2118091e12fa7506e1cee6ffe4f3b26edc79225cf64361263d9882",
          "blockNumber": "0x842707",
          "blockTimestamp": "0x68625318",
          "transactionHash": "0x0ccfb3fce09de90c1e44218086ac02c4fd098359b257adc7f965ea7fd5290447",
          "transactionIndex": "0xeb",
          "logIndex": "0x163",
          "removed": false
        },
        {
          "address": "0x3e2b88b7ee844b68ea1d47875c1985fad4a771dd",
          "topics": [
            "0xddf252ad1be2c89b69c2b068fc378daa952ba7f163c4a11628f55a4df523b3ef",
            "0x0000000000000000000000000000000000000000000000000000000000000000",
            "0x000000000000000000000000eddbf148d81d58e81c34db54e751d4fc9aedd0a7"
          ],
          "data": "0x00000000000000000000000000000000000000000000000002c68af0bb140000",
          "blockHash": "0x0b63c1224d2118091e12fa7506e1cee6ffe4f3b26edc79225cf64361263d9882",
          "blockNumber": "0x842707",
          "blockTimestamp": "0x68625318",
          "transactionHash": "0x0ccfb3fce09de90c1e44218086ac02c4fd098359b257adc7f965ea7fd5290447",
          "transactionIndex": "0xeb",
          "logIndex": "0x164",
          "removed": false
        },
        {
          "address": "0x3e2b88b7ee844b68ea1d47875c1985fad4a771dd",
          "topics": [
            "0x06239653922ac7bea6aa2b19dc486b9361821d37712eb796adfd38d81de278ca",
            "0x000000000000000000000000eddbf148d81d58e81c34db54e751d4fc9aedd0a7",
            "0x00000000000000000000000000000000000000000000000002c68af0bb140000",
            "0x0000000000000000000000000000000000000000000000015af1d78b58c40000"
          ],
          "data": "0x",
          "blockHash": "0x0b63c1224d2118091e12fa7506e1cee6ffe4f3b26edc79225cf64361263d9882",
          "blockNumber": "0x842707",
          "blockTimestamp": "0x68625318",
          "transactionHash": "0x0ccfb3fce09de90c1e44218086ac02c4fd098359b257adc7f965ea7fd5290447",
          "transactionIndex": "0xeb",
          "logIndex": "0x165",
          "removed": false
        },
        {
          "address": "0x3e2b88b7ee844b68ea1d47875c1985fad4a771dd",
          "topics": [
            "0xddf252ad1be2c89b69c2b068fc378daa952ba7f163c4a11628f55a4df523b3ef",
            "0x0000000000000000000000000000000000000000000000000000000000000000",
            "0x000000000000000000000000eddbf148d81d58e81c34db54e751d4fc9aedd0a7"
          ],
          "data": "0x00000000000000000000000000000000000000000000000002c68af0bb140000",
          "blockHash": "0x0b63c1224d2118091e12fa7506e1cee6ffe4f3b26edc79225cf64361263d9882",
          "blockNumber": "0x842707",
          "blockTimestamp": "0x68625318",
          "transactionHash": "0x0ccfb3fce09de90c1e44218086ac02c4fd098359b257adc7f965ea7fd5290447",
          "transactionIndex": "0xeb",
          "logIndex": "0x166",
          "removed": false
        }
      ],
      "logsBloom": "0x00000000000020000000000000000000000000000000020000000000000000000000200000100004001000000000000000020000800000000000000000000000000000000000000000004008000400000000000000000000000000000000000000000000020000000000000000080800000000000002000000000010000008000000000000000000000000000000000000000000000000000000000000040000000000000000000000000000001000040000000000000000000000000000000000000002000000000000000000000000000000000200000000000000000021000000000000200000000000000000000000000000001000000000000000000001",
      "type": "0x2",
      "transactionHash": "0x0ccfb3fce09de90c1e44218086ac02c4fd098359b257adc7f965ea7fd5290447",
      "transactionIndex": "0xeb",
      "blockHash": "0x0b63c1224d2118091e12fa7506e1cee6ffe4f3b26edc79225cf64361263d9882",
      "blockNumber": "0x842707",
      "gasUsed": "0x1ac38",
      "effectiveGasPrice": "0x82a352",
      "from": "0xeddbf148d81d58e81c34db54e751d4fc9aedd0a7",
      "to": "0x3e2b88b7ee844b68ea1d47875c1985fad4a771dd",
      "contractAddress": null
    },
    {
      "status": "0x1",
      "cumulativeGasUsed": "0x14c87e6",
      "logs": [
        {
          "address": "0xe17a3c8fbe4519d4d5347082f77589ea23336a9c",
          "topics": [
            "0x8c5be1e5ebec7d5bd14f71427d1e84f3dd0314c0f7b2291e5b200ac8c7c3b925",
            "0x000000000000000000000000eddbf148d81d58e81c34db54e751d4fc9aedd0a7",
            "0x000000000000000000000000dedef7d082b788456fef027d364642b686bc227a"
          ],
          "data": "0x0000000000000000000000000000000000000000000000001a3aa0fc817d0000",
          "blockHash": "0x0b63c1224d2118091e12fa7506e1cee6ffe4f3b26edc79225cf64361263d9882",
          "blockNumber": "0x842707",
          "blockTimestamp": "0x68625318",
          "transactionHash": "0x5ca2482c84f74ed1a2bcb02f2b1019567197d3eea04dc7c7746651b161e8af9e",
          "transactionIndex": "0xec",
          "logIndex": "0x167",
          "removed": false
        }
      ],
      "logsBloom": "0x00008000000000000000000000000000000000010000000000000000000000000000000000100000000000000000000000000000000000000000000000200000000000000000000000000000000400000000000000000008000000000000000000000000000000000000000000000000000000400000000000000000000000000000000000000000000001000000000000000000000000000000000000000000020000000000000000000000000000000000000000000000000000000000000000000000000000000000000000000000000000010000000000000000000000000010000000000000000000000000000000000000000000000000000000000001",
      "type": "0x2",
      "transactionHash": "0x5ca2482c84f74ed1a2bcb02f2b1019567197d3eea04dc7c7746651b161e8af9e",
      "transactionIndex": "0xec",
      "blockHash": "0x0b63c1224d2118091e12fa7506e1cee6ffe4f3b26edc79225cf64361263d9882",
      "blockNumber": "0x842707",
      "gasUsed": "0x7486",
      "effectiveGasPrice": "0x82a352",
      "from": "0xeddbf148d81d58e81c34db54e751d4fc9aedd0a7",
      "to": "0xe17a3c8fbe4519d4d5347082f77589ea23336a9c",
      "contractAddress": null
    },
    {
      "status": "0x1",
      "cumulativeGasUsed": "0x14e3412",
      "logs": [
        {
          "address": "0xe17a3c8fbe4519d4d5347082f77589ea23336a9c",
          "topics": [
            "0xddf252ad1be2c89b69c2b068fc378daa952ba7f163c4a11628f55a4df523b3ef",
            "0x000000000000000000000000eddbf148d81d58e81c34db54e751d4fc9aedd0a7",
            "0x000000000000000000000000dedef7d082b788456fef027d364642b686bc227a"
          ],
          "data": "0x0000000000000000000000000000000000000000000000001a3aa0fc817d0000",
          "blockHash": "0x0b63c1224d2118091e12fa7506e1cee6ffe4f3b26edc79225cf64361263d9882",
          "blockNumber": "0x842707",
          "blockTimestamp": "0x68625318",
          "transactionHash": "0xcda50a6ab0d28be40670b3c935fb062cb8b4b745ecbe60fc09f545450c98c53e",
          "transactionIndex": "0xed",
          "logIndex": "0x168",
          "removed": false
        },
        {
          "address": "0xdedef7d082b788456fef027d364642b686bc227a",
          "topics": [
            "0xddf252ad1be2c89b69c2b068fc378daa952ba7f163c4a11628f55a4df523b3ef",
            "0x0000000000000000000000000000000000000000000000000000000000000000",
            "0x000000000000000000000000eddbf148d81d58e81c34db54e751d4fc9aedd0a7"
          ],
          "data": "0x00000000000000000000000000000000000000000000000002c68af0bb140000",
          "blockHash": "0x0b63c1224d2118091e12fa7506e1cee6ffe4f3b26edc79225cf64361263d9882",
          "blockNumber": "0x842707",
          "blockTimestamp": "0x68625318",
          "transactionHash": "0xcda50a6ab0d28be40670b3c935fb062cb8b4b745ecbe60fc09f545450c98c53e",
          "transactionIndex": "0xed",
          "logIndex": "0x169",
          "removed": false
        },
        {
          "address": "0xdedef7d082b788456fef027d364642b686bc227a",
          "topics": [
            "0x06239653922ac7bea6aa2b19dc486b9361821d37712eb796adfd38d81de278ca",
            "0x000000000000000000000000eddbf148d81d58e81c34db54e751d4fc9aedd0a7",
            "0x00000000000000000000000000000000000000000000000002c68af0bb140000",
            "0x0000000000000000000000000000000000000000000000001a3aa0fc817d0000"
          ],
          "data": "0x",
          "blockHash": "0x0b63c1224d2118091e12fa7506e1cee6ffe4f3b26edc79225cf64361263d9882",
          "blockNumber": "0x842707",
          "blockTimestamp": "0x68625318",
          "transactionHash": "0xcda50a6ab0d28be40670b3c935fb062cb8b4b745ecbe60fc09f545450c98c53e",
          "transactionIndex": "0xed",
          "logIndex": "0x16a",
          "removed": false
        },
        {
          "address": "0xdedef7d082b788456fef027d364642b686bc227a",
          "topics": [
            "0xddf252ad1be2c89b69c2b068fc378daa952ba7f163c4a11628f55a4df523b3ef",
            "0x0000000000000000000000000000000000000000000000000000000000000000",
            "0x000000000000000000000000eddbf148d81d58e81c34db54e751d4fc9aedd0a7"
          ],
          "data": "0x00000000000000000000000000000000000000000000000002c68af0bb140000",
          "blockHash": "0x0b63c1224d2118091e12fa7506e1cee6ffe4f3b26edc79225cf64361263d9882",
          "blockNumber": "0x842707",
          "blockTimestamp": "0x68625318",
          "transactionHash": "0xcda50a6ab0d28be40670b3c935fb062cb8b4b745ecbe60fc09f545450c98c53e",
          "transactionIndex": "0xed",
          "logIndex": "0x16b",
          "removed": false
        }
      ],
      "logsBloom": "0x20008000000000000000000000000000000000010000000000000000000000000000200000100000000000000000000200030000000000000000000000000000000000000000000000005008000400000000000000000008000000000000000000000000020000000000000000000800000000400000000000000010000008000000000000000000000801000000000000000000000000000000000000040000000000000000000000000000000000040000000000000000000000000000000000000002000000000000000000000000000000010000000000000000000020000000000000000000000008000000000000000000000000000000000000000001",
      "type": "0x2",
      "transactionHash": "0xcda50a6ab0d28be40670b3c935fb062cb8b4b745ecbe60fc09f545450c98c53e",
      "transactionIndex": "0xed",
      "blockHash": "0x0b63c1224d2118091e12fa7506e1cee6ffe4f3b26edc79225cf64361263d9882",
      "blockNumber": "0x842707",
      "gasUsed": "0x1ac2c",
      "effectiveGasPrice": "0x82a352",
      "from": "0xeddbf148d81d58e81c34db54e751d4fc9aedd0a7",
      "to": "0xdedef7d082b788456fef027d364642b686bc227a",
      "contractAddress": null
    }
  ],
  "libraries": [],
  "pending": [],
  "returns": {},
  "timestamp": 1751274262442,
  "chain": 11155111,
  "commit": "03e3069"
}