{
  "transactions": [
    {
      "hash": "0x40933cb65342e3e84a527338bcb87c1c45929c7e3d4dec062266a5d048b0b080",
      "transactionType": "CALL",
      "contractName": null,
      "contractAddress": "0xb65d7beb87f57cc725e5f829d7fd23e2a0a7a59f",
      "function": "approve(address,uint256)",
      "arguments": [
        "0xAf769279a2BFfb602B5e4a4B0227CaC865C6FE79",
        "500000000000000000000"
      ],
      "transaction": {
        "from": "0xeddbf148d81d58e81c34db54e751d4fc9aedd0a7",
        "to": "0xb65d7beb87f57cc725e5f829d7fd23e2a0a7a59f",
        "gas": "0xfd45",
        "value": "0x0",
        "input": "0x095ea7b3000000000000000000000000af769279a2bffb602b5e4a4b0227cac865c6fe7900000000000000000000000000000000000000000000001b1ae4d6e2ef500000",
        "nonce": "0x44",
        "chainId": "0xaa36a7"
      },
      "additionalContracts": [],
      "isFixedGasLimit": false
    },
    {
      "hash": "0xa0e9aed7dc0010e2ee152826474cc3b793401af460b92ef03e6be1207d0d5cc8",
      "transactionType": "CALL",
      "contractName": null,
      "contractAddress": "0xaf769279a2bffb602b5e4a4b0227cac865c6fe79",
      "function": "addLiquidity(uint256)",
      "arguments": [
        "500000000000000000000"
      ],
      "transaction": {
        "from": "0xeddbf148d81d58e81c34db54e751d4fc9aedd0a7",
        "to": "0xaf769279a2bffb602b5e4a4b0227cac865c6fe79",
        "gas": "0x24f79",
        "value": "0x2c68af0bb140000",
        "input": "0x51c6590a00000000000000000000000000000000000000000000001b1ae4d6e2ef500000",
        "nonce": "0x45",
        "chainId": "0xaa36a7"
      },
      "additionalContracts": [],
      "isFixedGasLimit": false
    },
    {
      "hash": "0xe99bc3771e05bb3cf77fbd5abadd6ddd0ae7639e8dca42e7df3c4cdfde96e217",
      "transactionType": "CALL",
      "contractName": null,
      "contractAddress": "0x75841c57ee004474ada7e2d1e6c20b5f8b00e1c1",
      "function": "approve(address,uint256)",
      "arguments": [
        "0xe4bFf792EB1e017A68fB9967BEB1aA100710d017",
        "62500000000000000000"
      ],
      "transaction": {
        "from": "0xeddbf148d81d58e81c34db54e751d4fc9aedd0a7",
        "to": "0x75841c57ee004474ada7e2d1e6c20b5f8b00e1c1",
        "gas": "0xfd45",
        "value": "0x0",
        "input": "0x095ea7b3000000000000000000000000e4bff792eb1e017a68fb9967beb1aa100710d017000000000000000000000000000000000000000000000003635c9adc5dea0000",
        "nonce": "0x46",
        "chainId": "0xaa36a7"
      },
      "additionalContracts": [],
      "isFixedGasLimit": false
    },
    {
      "hash": "0x3444e4d0ec8eb538f1b22c27835e4314bf296251cc7d7065f2b73ad32db3b99f",
      "transactionType": "CALL",
      "contractName": null,
      "contractAddress": "0xe4bff792eb1e017a68fb9967beb1aa100710d017",
      "function": "addLiquidity(uint256)",
      "arguments": [
        "62500000000000000000"
      ],
      "transaction": {
        "from": "0xeddbf148d81d58e81c34db54e751d4fc9aedd0a7",
        "to": "0xe4bff792eb1e017a68fb9967beb1aa100710d017",
        "gas": "0x24f79",
        "value": "0x2c68af0bb140000",
        "input": "0x51c6590a000000000000000000000000000000000000000000000003635c9adc5dea0000",
        "nonce": "0x47",
        "chainId": "0xaa36a7"
      },
      "additionalContracts": [],
      "isFixedGasLimit": false
    },
    {
      "hash": "0xdc4b2382ac9d5881359b5f04c6f01b8a6171db12c0d19af5d75b00dd23b23d5d",
      "transactionType": "CALL",
      "contractName": null,
      "contractAddress": "0x16e7fc1922c8baf21e5176276273885e6dabff09",
      "function": "approve(address,uint256)",
      "arguments": [
        "0x3e2b88B7ee844b68EA1d47875c1985Fad4A771dD",
        "25000000000000000000"
      ],
      "transaction": {
        "from": "0xeddbf148d81d58e81c34db54e751d4fc9aedd0a7",
        "to": "0x16e7fc1922c8baf21e5176276273885e6dabff09",
        "gas": "0xfd45",
        "value": "0x0",
        "input": "0x095ea7b30000000000000000000000003e2b88b7ee844b68ea1d47875c1985fad4a771dd0000000000000000000000000000000000000000000000015af1d78b58c40000",
        "nonce": "0x48",
        "chainId": "0xaa36a7"
      },
      "additionalContracts": [],
      "isFixedGasLimit": false
    },
    {
      "hash": "0xa1b2eb75c65130932918987d5024723c450299852fd8a0cd107a83ce19b776d3",
      "transactionType": "CALL",
      "contractName": null,
      "contractAddress": "0x3e2b88b7ee844b68ea1d47875c1985fad4a771dd",
      "function": "addLiquidity(uint256)",
      "arguments": [
        "25000000000000000000"
      ],
      "transaction": {
        "from": "0xeddbf148d81d58e81c34db54e751d4fc9aedd0a7",
        "to": "0x3e2b88b7ee844b68ea1d47875c1985fad4a771dd",
        "gas": "0x24f79",
        "value": "0x2c68af0bb140000",
        "input": "0x51c6590a0000000000000000000000000000000000000000000000015af1d78b58c40000",
        "nonce": "0x49",
        "chainId": "0xaa36a7"
      },
      "additionalContracts": [],
      "isFixedGasLimit": false
    },
    {
      "hash": "0x000fa00bc17a485b47d5aeb3177cef09818b8db9b1f70aef55b858e50fc5f072",
      "transactionType": "CALL",
      "contractName": null,
      "contractAddress": "0xe17a3c8fbe4519d4d5347082f77589ea23336a9c",
      "function": "approve(address,uint256)",
      "arguments": [
        "0xDedef7d082b788456FEF027D364642B686bC227a",
        "1890000000000000000"
      ],
      "transaction": {
        "from": "0xeddbf148d81d58e81c34db54e751d4fc9aedd0a7",
        "to": "0xe17a3c8fbe4519d4d5347082f77589ea23336a9c",
        "gas": "0x10c1a",
        "value": "0x0",
        "input": "0x095ea7b3000000000000000000000000dedef7d082b788456fef027d364642b686bc227a0000000000000000000000000000000000000000000000001a3aa0fc817d0000",
        "nonce": "0x4a",
        "chainId": "0xaa36a7"
      },
      "additionalContracts": [],
      "isFixedGasLimit": false
    },
    {
      "hash": "0x51727187b9ab3e12f646a6b6452967e78a6c4167e7fc413fee3880b2c016287e",
      "transactionType": "CALL",
      "contractName": null,
      "contractAddress": "0xdedef7d082b788456fef027d364642b686bc227a",
      "function": "addLiquidity(uint256)",
      "arguments": [
        "1890000000000000000"
      ],
      "transaction": {
        "from": "0xeddbf148d81d58e81c34db54e751d4fc9aedd0a7",
        "to": "0xdedef7d082b788456fef027d364642b686bc227a",
        "gas": "0x24f68",
        "value": "0x2c68af0bb140000",
        "input": "0x51c6590a0000000000000000000000000000000000000000000000001a3aa0fc817d0000",
        "nonce": "0x4b",
        "chainId": "0xaa36a7"
      },
      "additionalContracts": [],
      "isFixedGasLimit": false
    }
  ],
  "receipts": [
    {
      "status": "0x1",
      "cumulativeGasUsed": "0x19ce605",
      "logs": [
        {
          "address": "0xb65d7beb87f57cc725e5f829d7fd23e2a0a7a59f",
          "topics": [
            "0x8c5be1e5ebec7d5bd14f71427d1e84f3dd0314c0f7b2291e5b200ac8c7c3b925",
            "0x000000000000000000000000eddbf148d81d58e81c34db54e751d4fc9aedd0a7",
            "0x000000000000000000000000af769279a2bffb602b5e4a4b0227cac865c6fe79"
          ],
          "data": "0x00000000000000000000000000000000000000000000001b1ae4d6e2ef500000",
          "blockHash": "0x9213c889153f748c49c0f6de234695f40052f015cb7aa137165daae2ff687c07",
          "blockNumber": "0x839beb",
          "blockTimestamp": "0x685bc834",
          "transactionHash": "0x40933cb65342e3e84a527338bcb87c1c45929c7e3d4dec062266a5d048b0b080",
          "transactionIndex": "0xb6",
          "logIndex": "0x12d",
          "removed": false
        }
      ],
      "logsBloom": "0x00000000000000000000000000000000000000000000000000000000000000000000000000100000000000000000000000000000000000000000000000200000000000000000000000000000000400000000000800000000000000000000000000000000000000000000000000000000000000000002004000000000000000000000000000000000000000000000000000000000000000000000000000000000020000000000000200000000020000000000020000000000000000000000000000000000000000000000000000000000000000000000000000000000000000000010000000000000000000000000000000000000000000000000000000000001",
      "type": "0x2",
      "transactionHash": "0x40933cb65342e3e84a527338bcb87c1c45929c7e3d4dec062266a5d048b0b080",
      "transactionIndex": "0xb6",
      "blockHash": "0x9213c889153f748c49c0f6de234695f40052f015cb7aa137165daae2ff687c07",
      "blockNumber": "0x839beb",
      "gasUsed": "0xb75e",
      "effectiveGasPrice": "0x14fdcb26",
      "from": "0xeddbf148d81d58e81c34db54e751d4fc9aedd0a7",
      "to": "0xb65d7beb87f57cc725e5f829d7fd23e2a0a7a59f",
      "contractAddress": null
    },
    {
      "status": "0x1",
      "cumulativeGasUsed": "0x19e923d",
      "logs": [
        {
          "address": "0xb65d7beb87f57cc725e5f829d7fd23e2a0a7a59f",
          "topics": [
            "0xddf252ad1be2c89b69c2b068fc378daa952ba7f163c4a11628f55a4df523b3ef",
            "0x000000000000000000000000eddbf148d81d58e81c34db54e751d4fc9aedd0a7",
            "0x000000000000000000000000af769279a2bffb602b5e4a4b0227cac865c6fe79"
          ],
          "data": "0x00000000000000000000000000000000000000000000001b1ae4d6e2ef500000",
          "blockHash": "0x9213c889153f748c49c0f6de234695f40052f015cb7aa137165daae2ff687c07",
          "blockNumber": "0x839beb",
          "blockTimestamp": "0x685bc834",
          "transactionHash": "0xa0e9aed7dc0010e2ee152826474cc3b793401af460b92ef03e6be1207d0d5cc8",
          "transactionIndex": "0xb7",
          "logIndex": "0x12e",
          "removed": false
        },
        {
          "address": "0xaf769279a2bffb602b5e4a4b0227cac865c6fe79",
          "topics": [
            "0xddf252ad1be2c89b69c2b068fc378daa952ba7f163c4a11628f55a4df523b3ef",
            "0x0000000000000000000000000000000000000000000000000000000000000000",
            "0x000000000000000000000000eddbf148d81d58e81c34db54e751d4fc9aedd0a7"
          ],
          "data": "0x00000000000000000000000000000000000000000000000002c68af0bb140000",
          "blockHash": "0x9213c889153f748c49c0f6de234695f40052f015cb7aa137165daae2ff687c07",
          "blockNumber": "0x839beb",
          "blockTimestamp": "0x685bc834",
          "transactionHash": "0xa0e9aed7dc0010e2ee152826474cc3b793401af460b92ef03e6be1207d0d5cc8",
          "transactionIndex": "0xb7",
          "logIndex": "0x12f",
          "removed": false
        },
        {
          "address": "0xaf769279a2bffb602b5e4a4b0227cac865c6fe79",
          "topics": [
            "0x06239653922ac7bea6aa2b19dc486b9361821d37712eb796adfd38d81de278ca",
            "0x000000000000000000000000eddbf148d81d58e81c34db54e751d4fc9aedd0a7",
            "0x00000000000000000000000000000000000000000000000002c68af0bb140000",
            "0x00000000000000000000000000000000000000000000001b1ae4d6e2ef500000"
          ],
          "data": "0x",
          "blockHash": "0x9213c889153f748c49c0f6de234695f40052f015cb7aa137165daae2ff687c07",
          "blockNumber": "0x839beb",
          "blockTimestamp": "0x685bc834",
          "transactionHash": "0xa0e9aed7dc0010e2ee152826474cc3b793401af460b92ef03e6be1207d0d5cc8",
          "transactionIndex": "0xb7",
          "logIndex": "0x130",
          "removed": false
        },
        {
          "address": "0xaf769279a2bffb602b5e4a4b0227cac865c6fe79",
          "topics": [
            "0xddf252ad1be2c89b69c2b068fc378daa952ba7f163c4a11628f55a4df523b3ef",
            "0x0000000000000000000000000000000000000000000000000000000000000000",
            "0x000000000000000000000000eddbf148d81d58e81c34db54e751d4fc9aedd0a7"
          ],
          "data": "0x00000000000000000000000000000000000000000000000002c68af0bb140000",
          "blockHash": "0x9213c889153f748c49c0f6de234695f40052f015cb7aa137165daae2ff687c07",
          "blockNumber": "0x839beb",
          "blockTimestamp": "0x685bc834",
          "transactionHash": "0xa0e9aed7dc0010e2ee152826474cc3b793401af460b92ef03e6be1207d0d5cc8",
          "transactionIndex": "0xb7",
          "logIndex": "0x131",
          "removed": false
        }
      ],
      "logsBloom": "0x00000000000000000000000000000000000000000000000000000000000000008000200000100000000000000000000000020200000000000000000000000000000000000000000000044008000400000000000800000000000000000000000000000000020000000000000000000800000000000002004000000010000008000000000000000000000000000000000000000000000000000000000000040000000000000000000200000000020000040002020000000000000000000000000000000002000000000000000000000000000000000000000000000000000020000000000000000000000000000000000000080000000000000000000400000001",
      "type": "0x2",
      "transactionHash": "0xa0e9aed7dc0010e2ee152826474cc3b793401af460b92ef03e6be1207d0d5cc8",
      "transactionIndex": "0xb7",
      "blockHash": "0x9213c889153f748c49c0f6de234695f40052f015cb7aa137165daae2ff687c07",
      "blockNumber": "0x839beb",
      "gasUsed": "0x1ac38",
      "effectiveGasPrice": "0x14fdcb26",
      "from": "0xeddbf148d81d58e81c34db54e751d4fc9aedd0a7",
      "to": "0xaf769279a2bffb602b5e4a4b0227cac865c6fe79",
      "contractAddress": null
    },
    {
      "status": "0x1",
      "cumulativeGasUsed": "0x19f499b",
      "logs": [
        {
          "address": "0x75841c57ee004474ada7e2d1e6c20b5f8b00e1c1",
          "topics": [
            "0x8c5be1e5ebec7d5bd14f71427d1e84f3dd0314c0f7b2291e5b200ac8c7c3b925",
            "0x000000000000000000000000eddbf148d81d58e81c34db54e751d4fc9aedd0a7",
            "0x000000000000000000000000e4bff792eb1e017a68fb9967beb1aa100710d017"
          ],
          "data": "0x000000000000000000000000000000000000000000000003635c9adc5dea0000",
          "blockHash": "0x9213c889153f748c49c0f6de234695f40052f015cb7aa137165daae2ff687c07",
          "blockNumber": "0x839beb",
          "blockTimestamp": "0x685bc834",
          "transactionHash": "0xe99bc3771e05bb3cf77fbd5abadd6ddd0ae7639e8dca42e7df3c4cdfde96e217",
          "transactionIndex": "0xb8",
          "logIndex": "0x132",
          "removed": false
        }
      ],
      "logsBloom": "0x00000000000000000000000000000000000000000000000000000000000000000000000000100000000000000000000000000000000000000000000000200000000000000000200000000000000400000000000000000000000000000000000000000000000000000000000000000000000000000000000000000000000000000000400000000000000000000000000000000000000000000010000000000000020000000000000000000000000000000000000000000000000000000000000000000000000000080000000000000000000000000020000000000200000000000010000000000000000000000000000000000000000000000000000000000001",
      "type": "0x2",
      "transactionHash": "0xe99bc3771e05bb3cf77fbd5abadd6ddd0ae7639e8dca42e7df3c4cdfde96e217",
      "transactionIndex": "0xb8",
      "blockHash": "0x9213c889153f748c49c0f6de234695f40052f015cb7aa137165daae2ff687c07",
      "blockNumber": "0x839beb",
      "gasUsed": "0xb75e",
      "effectiveGasPrice": "0x14fdcb26",
      "from": "0xeddbf148d81d58e81c34db54e751d4fc9aedd0a7",
      "to": "0x75841c57ee004474ada7e2d1e6c20b5f8b00e1c1",
      "contractAddress": null
    },
    {
      "status": "0x1",
      "cumulativeGasUsed": "0x1a0f5d3",
      "logs": [
        {
          "address": "0x75841c57ee004474ada7e2d1e6c20b5f8b00e1c1",
          "topics": [
            "0xddf252ad1be2c89b69c2b068fc378daa952ba7f163c4a11628f55a4df523b3ef",
            "0x000000000000000000000000eddbf148d81d58e81c34db54e751d4fc9aedd0a7",
            "0x000000000000000000000000e4bff792eb1e017a68fb9967beb1aa100710d017"
          ],
          "data": "0x000000000000000000000000000000000000000000000003635c9adc5dea0000",
          "blockHash": "0x9213c889153f748c49c0f6de234695f40052f015cb7aa137165daae2ff687c07",
          "blockNumber": "0x839beb",
          "blockTimestamp": "0x685bc834",
          "transactionHash": "0x3444e4d0ec8eb538f1b22c27835e4314bf296251cc7d7065f2b73ad32db3b99f",
          "transactionIndex": "0xb9",
          "logIndex": "0x133",
          "removed": false
        },
        {
          "address": "0xe4bff792eb1e017a68fb9967beb1aa100710d017",
          "topics": [
            "0xddf252ad1be2c89b69c2b068fc378daa952ba7f163c4a11628f55a4df523b3ef",
            "0x0000000000000000000000000000000000000000000000000000000000000000",
            "0x000000000000000000000000eddbf148d81d58e81c34db54e751d4fc9aedd0a7"
          ],
          "data": "0x00000000000000000000000000000000000000000000000002c68af0bb140000",
          "blockHash": "0x9213c889153f748c49c0f6de234695f40052f015cb7aa137165daae2ff687c07",
          "blockNumber": "0x839beb",
          "blockTimestamp": "0x685bc834",
          "transactionHash": "0x3444e4d0ec8eb538f1b22c27835e4314bf296251cc7d7065f2b73ad32db3b99f",
          "transactionIndex": "0xb9",
          "logIndex": "0x134",
          "removed": false
        },
        {
          "address": "0xe4bff792eb1e017a68fb9967beb1aa100710d017",
          "topics": [
            "0x06239653922ac7bea6aa2b19dc486b9361821d37712eb796adfd38d81de278ca",
            "0x000000000000000000000000eddbf148d81d58e81c34db54e751d4fc9aedd0a7",
            "0x00000000000000000000000000000000000000000000000002c68af0bb140000",
            "0x000000000000000000000000000000000000000000000003635c9adc5dea0000"
          ],
          "data": "0x",
          "blockHash": "0x9213c889153f748c49c0f6de234695f40052f015cb7aa137165daae2ff687c07",
          "blockNumber": "0x839beb",
          "blockTimestamp": "0x685bc834",
          "transactionHash": "0x3444e4d0ec8eb538f1b22c27835e4314bf296251cc7d7065f2b73ad32db3b99f",
          "transactionIndex": "0xb9",
          "logIndex": "0x135",
          "removed": false
        },
        {
          "address": "0xe4bff792eb1e017a68fb9967beb1aa100710d017",
          "topics": [
            "0xddf252ad1be2c89b69c2b068fc378daa952ba7f163c4a11628f55a4df523b3ef",
            "0x0000000000000000000000000000000000000000000000000000000000000000",
            "0x000000000000000000000000eddbf148d81d58e81c34db54e751d4fc9aedd0a7"
          ],
          "data": "0x00000000000000000000000000000000000000000000000002c68af0bb140000",
          "blockHash": "0x9213c889153f748c49c0f6de234695f40052f015cb7aa137165daae2ff687c07",
          "blockNumber": "0x839beb",
          "blockTimestamp": "0x685bc834",
          "transactionHash": "0x3444e4d0ec8eb538f1b22c27835e4314bf296251cc7d7065f2b73ad32db3b99f",
          "transactionIndex": "0xb9",
          "logIndex": "0x136",
          "removed": false
        }
      ],
      "logsBloom": "0x00000000000000000000000800000000000000000000000000000000000000000000300004100000000000000000000000020000000000000000000000000000000000000000200000004008000400000000000000000000000000000000000000000000020000000000000000000800000000000000000000000010000008000000400000000000000000000000000000000000000000000010000000040000000000000800000000000000000000040000000000000000040000010000000000000002000000080000000000000000000000000020000000000200000020000000000000000000000000000000000000000000000000000000000000000001",
      "type": "0x2",
      "transactionHash": "0x3444e4d0ec8eb538f1b22c27835e4314bf296251cc7d7065f2b73ad32db3b99f",
      "transactionIndex": "0xb9",
      "blockHash": "0x9213c889153f748c49c0f6de234695f40052f015cb7aa137165daae2ff687c07",
      "blockNumber": "0x839beb",
      "gasUsed": "0x1ac38",
      "effectiveGasPrice": "0x14fdcb26",
      "from": "0xeddbf148d81d58e81c34db54e751d4fc9aedd0a7",
      "to": "0xe4bff792eb1e017a68fb9967beb1aa100710d017",
      "contractAddress": null
    },
    {
      "status": "0x1",
      "cumulativeGasUsed": "0x1a1ad31",
      "logs": [
        {
          "address": "0x16e7fc1922c8baf21e5176276273885e6dabff09",
          "topics": [
            "0x8c5be1e5ebec7d5bd14f71427d1e84f3dd0314c0f7b2291e5b200ac8c7c3b925",
            "0x000000000000000000000000eddbf148d81d58e81c34db54e751d4fc9aedd0a7",
            "0x0000000000000000000000003e2b88b7ee844b68ea1d47875c1985fad4a771dd"
          ],
          "data": "0x0000000000000000000000000000000000000000000000015af1d78b58c40000",
          "blockHash": "0x9213c889153f748c49c0f6de234695f40052f015cb7aa137165daae2ff687c07",
          "blockNumber": "0x839beb",
          "blockTimestamp": "0x685bc834",
          "transactionHash": "0xdc4b2382ac9d5881359b5f04c6f01b8a6171db12c0d19af5d75b00dd23b23d5d",
          "transactionIndex": "0xba",
          "logIndex": "0x137",
          "removed": false
        }
      ],
      "logsBloom": "0x00000000000000000000000000000000000000000000020000000000000000000000000000100004000000000000000000000000800000000000000000200000000000000000000000000000000400000000000000000000000000000000000000000000000000000000000000000000000000000002000000000000000000000000000000000000000000000000000000000000000000000000000000000000020000000000000000000000001000000000000000000000000000000000000000000000000000000000000000000000000000000000000000000000000000000010000000200000000000000000000000000000000000000000000000000001",
      "type": "0x2",
      "transactionHash": "0xdc4b2382ac9d5881359b5f04c6f01b8a6171db12c0d19af5d75b00dd23b23d5d",
      "transactionIndex": "0xba",
      "blockHash": "0x9213c889153f748c49c0f6de234695f40052f015cb7aa137165daae2ff687c07",
      "blockNumber": "0x839beb",
      "gasUsed": "0xb75e",
      "effectiveGasPrice": "0x14fdcb26",
      "from": "0xeddbf148d81d58e81c34db54e751d4fc9aedd0a7",
      "to": "0x16e7fc1922c8baf21e5176276273885e6dabff09",
      "contractAddress": null
    },
    {
      "status": "0x1",
      "cumulativeGasUsed": "0x1a35969",
      "logs": [
        {
          "address": "0x16e7fc1922c8baf21e5176276273885e6dabff09",
          "topics": [
            "0xddf252ad1be2c89b69c2b068fc378daa952ba7f163c4a11628f55a4df523b3ef",
            "0x000000000000000000000000eddbf148d81d58e81c34db54e751d4fc9aedd0a7",
            "0x0000000000000000000000003e2b88b7ee844b68ea1d47875c1985fad4a771dd"
          ],
          "data": "0x0000000000000000000000000000000000000000000000015af1d78b58c40000",
          "blockHash": "0x9213c889153f748c49c0f6de234695f40052f015cb7aa137165daae2ff687c07",
          "blockNumber": "0x839beb",
          "blockTimestamp": "0x685bc834",
          "transactionHash": "0xa1b2eb75c65130932918987d5024723c450299852fd8a0cd107a83ce19b776d3",
          "transactionIndex": "0xbb",
          "logIndex": "0x138",
          "removed": false
        },
        {
          "address": "0x3e2b88b7ee844b68ea1d47875c1985fad4a771dd",
          "topics": [
            "0xddf252ad1be2c89b69c2b068fc378daa952ba7f163c4a11628f55a4df523b3ef",
            "0x0000000000000000000000000000000000000000000000000000000000000000",
            "0x000000000000000000000000eddbf148d81d58e81c34db54e751d4fc9aedd0a7"
          ],
          "data": "0x00000000000000000000000000000000000000000000000002c68af0bb140000",
          "blockHash": "0x9213c889153f748c49c0f6de234695f40052f015cb7aa137165daae2ff687c07",
          "blockNumber": "0x839beb",
          "blockTimestamp": "0x685bc834",
          "transactionHash": "0xa1b2eb75c65130932918987d5024723c450299852fd8a0cd107a83ce19b776d3",
          "transactionIndex": "0xbb",
          "logIndex": "0x139",
          "removed": false
        },
        {
          "address": "0x3e2b88b7ee844b68ea1d47875c1985fad4a771dd",
          "topics": [
            "0x06239653922ac7bea6aa2b19dc486b9361821d37712eb796adfd38d81de278ca",
            "0x000000000000000000000000eddbf148d81d58e81c34db54e751d4fc9aedd0a7",
            "0x00000000000000000000000000000000000000000000000002c68af0bb140000",
            "0x0000000000000000000000000000000000000000000000015af1d78b58c40000"
          ],
          "data": "0x",
          "blockHash": "0x9213c889153f748c49c0f6de234695f40052f015cb7aa137165daae2ff687c07",
          "blockNumber": "0x839beb",
          "blockTimestamp": "0x685bc834",
          "transactionHash": "0xa1b2eb75c65130932918987d5024723c450299852fd8a0cd107a83ce19b776d3",
          "transactionIndex": "0xbb",
          "logIndex": "0x13a",
          "removed": false
        },
        {
          "address": "0x3e2b88b7ee844b68ea1d47875c1985fad4a771dd",
          "topics": [
            "0xddf252ad1be2c89b69c2b068fc378daa952ba7f163c4a11628f55a4df523b3ef",
            "0x0000000000000000000000000000000000000000000000000000000000000000",
            "0x000000000000000000000000eddbf148d81d58e81c34db54e751d4fc9aedd0a7"
          ],
          "data": "0x00000000000000000000000000000000000000000000000002c68af0bb140000",
          "blockHash": "0x9213c889153f748c49c0f6de234695f40052f015cb7aa137165daae2ff687c07",
          "blockNumber": "0x839beb",
          "blockTimestamp": "0x685bc834",
          "transactionHash": "0xa1b2eb75c65130932918987d5024723c450299852fd8a0cd107a83ce19b776d3",
          "transactionIndex": "0xbb",
          "logIndex": "0x13b",
          "removed": false
        }
      ],
      "logsBloom": "0x00000000000020000000000000000000000000000000020000000000000000000000200000100004001000000000000000020000800000000000000000000000000000000000000000004008000400000000000000000000000000000000000000000000020000000000000000080800000000000002000000000010000008000000000000000000000000000000000000000000000000000000000000040000000000000000000000000000001000040000000000000000000000000000000000000002000000000000000000000000000000000200000000000000000021000000000000200000000000000000000000000000001000000000000000000001",
      "type": "0x2",
      "transactionHash": "0xa1b2eb75c65130932918987d5024723c450299852fd8a0cd107a83ce19b776d3",
      "transactionIndex": "0xbb",
      "blockHash": "0x9213c889153f748c49c0f6de234695f40052f015cb7aa137165daae2ff687c07",
      "blockNumber": "0x839beb",
      "gasUsed": "0x1ac38",
      "effectiveGasPrice": "0x14fdcb26",
      "from": "0xeddbf148d81d58e81c34db54e751d4fc9aedd0a7",
      "to": "0x3e2b88b7ee844b68ea1d47875c1985fad4a771dd",
      "contractAddress": null
    },
    {
      "status": "0x1",
      "cumulativeGasUsed": "0x1a410bb",
      "logs": [
        {
          "address": "0xe17a3c8fbe4519d4d5347082f77589ea23336a9c",
          "topics": [
            "0x8c5be1e5ebec7d5bd14f71427d1e84f3dd0314c0f7b2291e5b200ac8c7c3b925",
            "0x000000000000000000000000eddbf148d81d58e81c34db54e751d4fc9aedd0a7",
            "0x000000000000000000000000dedef7d082b788456fef027d364642b686bc227a"
          ],
          "data": "0x0000000000000000000000000000000000000000000000001a3aa0fc817d0000",
          "blockHash": "0x9213c889153f748c49c0f6de234695f40052f015cb7aa137165daae2ff687c07",
          "blockNumber": "0x839beb",
          "blockTimestamp": "0x685bc834",
          "transactionHash": "0x000fa00bc17a485b47d5aeb3177cef09818b8db9b1f70aef55b858e50fc5f072",
          "transactionIndex": "0xbc",
          "logIndex": "0x13c",
          "removed": false
        }
      ],
      "logsBloom": "0x00008000000000000000000000000000000000010000000000000000000000000000000000100000000000000000000000000000000000000000000000200000000000000000000000000000000400000000000000000008000000000000000000000000000000000000000000000000000000400000000000000000000000000000000000000000000001000000000000000000000000000000000000000000020000000000000000000000000000000000000000000000000000000000000000000000000000000000000000000000000000010000000000000000000000000010000000000000000000000000000000000000000000000000000000000001",
      "type": "0x2",
      "transactionHash": "0x000fa00bc17a485b47d5aeb3177cef09818b8db9b1f70aef55b858e50fc5f072",
      "transactionIndex": "0xbc",
      "blockHash": "0x9213c889153f748c49c0f6de234695f40052f015cb7aa137165daae2ff687c07",
      "blockNumber": "0x839beb",
      "gasUsed": "0xb752",
      "effectiveGasPrice": "0x14fdcb26",
      "from": "0xeddbf148d81d58e81c34db54e751d4fc9aedd0a7",
      "to": "0xe17a3c8fbe4519d4d5347082f77589ea23336a9c",
      "contractAddress": null
    },
    {
      "status": "0x1",
      "cumulativeGasUsed": "0x1a5bce7",
      "logs": [
        {
          "address": "0xe17a3c8fbe4519d4d5347082f77589ea23336a9c",
          "topics": [
            "0xddf252ad1be2c89b69c2b068fc378daa952ba7f163c4a11628f55a4df523b3ef",
            "0x000000000000000000000000eddbf148d81d58e81c34db54e751d4fc9aedd0a7",
            "0x000000000000000000000000dedef7d082b788456fef027d364642b686bc227a"
          ],
          "data": "0x0000000000000000000000000000000000000000000000001a3aa0fc817d0000",
          "blockHash": "0x9213c889153f748c49c0f6de234695f40052f015cb7aa137165daae2ff687c07",
          "blockNumber": "0x839beb",
          "blockTimestamp": "0x685bc834",
          "transactionHash": "0x51727187b9ab3e12f646a6b6452967e78a6c4167e7fc413fee3880b2c016287e",
          "transactionIndex": "0xbd",
          "logIndex": "0x13d",
          "removed": false
        },
        {
          "address": "0xdedef7d082b788456fef027d364642b686bc227a",
          "topics": [
            "0xddf252ad1be2c89b69c2b068fc378daa952ba7f163c4a11628f55a4df523b3ef",
            "0x0000000000000000000000000000000000000000000000000000000000000000",
            "0x000000000000000000000000eddbf148d81d58e81c34db54e751d4fc9aedd0a7"
          ],
          "data": "0x00000000000000000000000000000000000000000000000002c68af0bb140000",
          "blockHash": "0x9213c889153f748c49c0f6de234695f40052f015cb7aa137165daae2ff687c07",
          "blockNumber": "0x839beb",
          "blockTimestamp": "0x685bc834",
          "transactionHash": "0x51727187b9ab3e12f646a6b6452967e78a6c4167e7fc413fee3880b2c016287e",
          "transactionIndex": "0xbd",
          "logIndex": "0x13e",
          "removed": false
        },
        {
          "address": "0xdedef7d082b788456fef027d364642b686bc227a",
          "topics": [
            "0x06239653922ac7bea6aa2b19dc486b9361821d37712eb796adfd38d81de278ca",
            "0x000000000000000000000000eddbf148d81d58e81c34db54e751d4fc9aedd0a7",
            "0x00000000000000000000000000000000000000000000000002c68af0bb140000",
            "0x0000000000000000000000000000000000000000000000001a3aa0fc817d0000"
          ],
          "data": "0x",
          "blockHash": "0x9213c889153f748c49c0f6de234695f40052f015cb7aa137165daae2ff687c07",
          "blockNumber": "0x839beb",
          "blockTimestamp": "0x685bc834",
          "transactionHash": "0x51727187b9ab3e12f646a6b6452967e78a6c4167e7fc413fee3880b2c016287e",
          "transactionIndex": "0xbd",
          "logIndex": "0x13f",
          "removed": false
        },
        {
          "address": "0xdedef7d082b788456fef027d364642b686bc227a",
          "topics": [
            "0xddf252ad1be2c89b69c2b068fc378daa952ba7f163c4a11628f55a4df523b3ef",
            "0x0000000000000000000000000000000000000000000000000000000000000000",
            "0x000000000000000000000000eddbf148d81d58e81c34db54e751d4fc9aedd0a7"
          ],
          "data": "0x00000000000000000000000000000000000000000000000002c68af0bb140000",
          "blockHash": "0x9213c889153f748c49c0f6de234695f40052f015cb7aa137165daae2ff687c07",
          "blockNumber": "0x839beb",
          "blockTimestamp": "0x685bc834",
          "transactionHash": "0x51727187b9ab3e12f646a6b6452967e78a6c4167e7fc413fee3880b2c016287e",
          "transactionIndex": "0xbd",
          "logIndex": "0x140",
          "removed": false
        }
      ],
      "logsBloom": "0x20008000000000000000000000000000000000010000000000000000000000000000200000100000000000000000000200030000000000000000000000000000000000000000000000005008000400000000000000000008000000000000000000000000020000000000000000000800000000400000000000000010000008000000000000000000000801000000000000000000000000000000000000040000000000000000000000000000000000040000000000000000000000000000000000000002000000000000000000000000000000010000000000000000000020000000000000000000000008000000000000000000000000000000000000000001",
      "type": "0x2",
      "transactionHash": "0x51727187b9ab3e12f646a6b6452967e78a6c4167e7fc413fee3880b2c016287e",
      "transactionIndex": "0xbd",
      "blockHash": "0x9213c889153f748c49c0f6de234695f40052f015cb7aa137165daae2ff687c07",
      "blockNumber": "0x839beb",
      "gasUsed": "0x1ac2c",
      "effectiveGasPrice": "0x14fdcb26",
      "from": "0xeddbf148d81d58e81c34db54e751d4fc9aedd0a7",
      "to": "0xdedef7d082b788456fef027d364642b686bc227a",
      "contractAddress": null
    }
  ],
  "libraries": [],
  "pending": [],
  "returns": {},
  "timestamp": 1750845494990,
  "chain": 11155111,
  "commit": "2b04cc2"
}