{
  "transactions": [
    {
      "hash": "0xe4cfe43294cd6e1797e58f9f9474f86b51fcad02f804a1579f688932d0850695",
      "transactionType": "CALL",
      "contractName": null,
      "contractAddress": "0xa931e00664710217cc543a18eada487dd55f5ac6",
      "function": "removeLiquidity(uint256)",
      "arguments": [
        "200000000000000000"
      ],
      "transaction": {
        "from": "0xeddbf148d81d58e81c34db54e751d4fc9aedd0a7",
        "to": "0xa931e00664710217cc543a18eada487dd55f5ac6",
        "gas": "0x116e1",
        "value": "0x0",
        "input": "0x9c8f9f2300000000000000000000000000000000000000000000000002c68af0bb140000",
        "nonce": "0x57",
        "chainId": "0xaa36a7"
      },
      "additionalContracts": [],
      "isFixedGasLimit": false
    },
    {
      "hash": "0x3ea912296b7b2a5d558fd1c03e0bd6231b8985c9e3a62c20f132d550b6852a18",
      "transactionType": "CALL",
      "contractName": null,
      "contractAddress": "0xaf769279a2bffb602b5e4a4b0227cac865c6fe79",
      "function": "removeLiquidity(uint256)",
      "arguments": [
        "200000000000000000"
      ],
      "transaction": {
        "from": "0xeddbf148d81d58e81c34db54e751d4fc9aedd0a7",
        "to": "0xaf769279a2bffb602b5e4a4b0227cac865c6fe79",
        "gas": "0x116e1",
        "value": "0x0",
        "input": "0x9c8f9f2300000000000000000000000000000000000000000000000002c68af0bb140000",
        "nonce": "0x58",
        "chainId": "0xaa36a7"
      },
      "additionalContracts": [],
      "isFixedGasLimit": false
    },
    {
      "hash": "0x2452d4767259ceb1420e8bc56d7c8bcc318e64ce3c7399cc26d432cbc084275d",
      "transactionType": "CALL",
      "contractName": null,
      "contractAddress": "0xe4bff792eb1e017a68fb9967beb1aa100710d017",
      "function": "removeLiquidity(uint256)",
      "arguments": [
        "200000000000000000"
      ],
      "transaction": {
        "from": "0xeddbf148d81d58e81c34db54e751d4fc9aedd0a7",
        "to": "0xe4bff792eb1e017a68fb9967beb1aa100710d017",
        "gas": "0x155af",
        "value": "0x0",
        "input": "0x9c8f9f2300000000000000000000000000000000000000000000000002c68af0bb140000",
        "nonce": "0x59",
        "chainId": "0xaa36a7"
      },
      "additionalContracts": [],
      "isFixedGasLimit": false
    },
    {
      "hash": "0x47934cf7aadb44388b1cf95151f486a4995576f85bb9840e3ef3b6c7d2796ca0",
      "transactionType": "CALL",
      "contractName": null,
      "contractAddress": "0x3e2b88b7ee844b68ea1d47875c1985fad4a771dd",
      "function": "removeLiquidity(uint256)",
      "arguments": [
        "200000000000000000"
      ],
      "transaction": {
        "from": "0xeddbf148d81d58e81c34db54e751d4fc9aedd0a7",
        "to": "0x3e2b88b7ee844b68ea1d47875c1985fad4a771dd",
        "gas": "0x116e1",
        "value": "0x0",
        "input": "0x9c8f9f2300000000000000000000000000000000000000000000000002c68af0bb140000",
        "nonce": "0x5a",
        "chainId": "0xaa36a7"
      },
      "additionalContracts": [],
      "isFixedGasLimit": false
    },
    {
      "hash": "0xfd57a9b330aaaf55a4c866a359ee136d5d4673da00dd6999d5ad978cca886e5a",
      "transactionType": "CALL",
      "contractName": null,
      "contractAddress": "0xdedef7d082b788456fef027d364642b686bc227a",
      "function": "removeLiquidity(uint256)",
      "arguments": [
        "200000000000000000"
      ],
      "transaction": {
        "from": "0xeddbf148d81d58e81c34db54e751d4fc9aedd0a7",
        "to": "0xdedef7d082b788456fef027d364642b686bc227a",
        "gas": "0x116e1",
        "value": "0x0",
        "input": "0x9c8f9f2300000000000000000000000000000000000000000000000002c68af0bb140000",
        "nonce": "0x5b",
        "chainId": "0xaa36a7"
      },
      "additionalContracts": [],
      "isFixedGasLimit": false
    }
  ],
  "receipts": [
    {
      "status": "0x1",
      "cumulativeGasUsed": "0x207b038",
      "logs": [
        {
          "address": "0xa931e00664710217cc543a18eada487dd55f5ac6",
          "topics": [
            "0xddf252ad1be2c89b69c2b068fc378daa952ba7f163c4a11628f55a4df523b3ef",
            "0x000000000000000000000000eddbf148d81d58e81c34db54e751d4fc9aedd0a7",
            "0x0000000000000000000000000000000000000000000000000000000000000000"
          ],
          "data": "0x00000000000000000000000000000000000000000000000002c68af0bb140000",
          "blockHash": "0x1d5dad648b42ac36a4f794e7d9094a2cf8af3eccebb06f61032de7a14f07ff88",
          "blockNumber": "0x83d27a",
          "blockTimestamp": "0x685e5af0",
          "transactionHash": "0xe4cfe43294cd6e1797e58f9f9474f86b51fcad02f804a1579f688932d0850695",
          "transactionIndex": "0x12c",
          "logIndex": "0x2f2",
          "removed": false
        },
        {
          "address": "0xef8fd7e36fa7233c32a953b4c8004c1383f4e49d",
          "topics": [
            "0xddf252ad1be2c89b69c2b068fc378daa952ba7f163c4a11628f55a4df523b3ef",
            "0x000000000000000000000000a931e00664710217cc543a18eada487dd55f5ac6",
            "0x000000000000000000000000eddbf148d81d58e81c34db54e751d4fc9aedd0a7"
          ],
          "data": "0x00000000000000000000000000000000000000000000001b1ae4d6e2ef500000",
          "blockHash": "0x1d5dad648b42ac36a4f794e7d9094a2cf8af3eccebb06f61032de7a14f07ff88",
          "blockNumber": "0x83d27a",
          "blockTimestamp": "0x685e5af0",
          "transactionHash": "0xe4cfe43294cd6e1797e58f9f9474f86b51fcad02f804a1579f688932d0850695",
          "transactionIndex": "0x12c",
          "logIndex": "0x2f3",
          "removed": false
        },
        {
          "address": "0xa931e00664710217cc543a18eada487dd55f5ac6",
          "topics": [
            "0x0fbf06c058b90cb038a618f8c2acbf6145f8b3570fd1fa56abb8f0f3f05b36e8",
            "0x000000000000000000000000eddbf148d81d58e81c34db54e751d4fc9aedd0a7",
            "0x00000000000000000000000000000000000000000000000002c68af0bb140000",
            "0x00000000000000000000000000000000000000000000001b1ae4d6e2ef500000"
          ],
          "data": "0x",
          "blockHash": "0x1d5dad648b42ac36a4f794e7d9094a2cf8af3eccebb06f61032de7a14f07ff88",
          "blockNumber": "0x83d27a",
          "blockTimestamp": "0x685e5af0",
          "transactionHash": "0xe4cfe43294cd6e1797e58f9f9474f86b51fcad02f804a1579f688932d0850695",
          "transactionIndex": "0x12c",
          "logIndex": "0x2f4",
          "removed": false
        },
        {
          "address": "0xa931e00664710217cc543a18eada487dd55f5ac6",
          "topics": [
            "0xddf252ad1be2c89b69c2b068fc378daa952ba7f163c4a11628f55a4df523b3ef",
            "0x000000000000000000000000eddbf148d81d58e81c34db54e751d4fc9aedd0a7",
            "0x0000000000000000000000000000000000000000000000000000000000000000"
          ],
          "data": "0x00000000000000000000000000000000000000000000000002c68af0bb140000",
          "blockHash": "0x1d5dad648b42ac36a4f794e7d9094a2cf8af3eccebb06f61032de7a14f07ff88",
          "blockNumber": "0x83d27a",
          "blockTimestamp": "0x685e5af0",
          "transactionHash": "0xe4cfe43294cd6e1797e58f9f9474f86b51fcad02f804a1579f688932d0850695",
          "transactionIndex": "0x12c",
          "logIndex": "0x2f5",
          "removed": false
        }
      ],
      "logsBloom": "0x00000000000040000000000000000000000000000000000000020000000000000000000000100000000000000000000000020200000000000000000000000800000000000000000000044008000400000020000000000000000000000000000000000000020000000000000000000800000000000000000000000010000000000000000400000000000000000000000000000000000000000002000000040000000000000000000000000000000000200002000000000000000000000000000000000002000000002000000000000000000800001000000000000000000030000000000000000000000000000000000000000000000000000100000000000001",
      "type": "0x2",
      "transactionHash": "0xe4cfe43294cd6e1797e58f9f9474f86b51fcad02f804a1579f688932d0850695",
      "transactionIndex": "0x12c",
      "blockHash": "0x1d5dad648b42ac36a4f794e7d9094a2cf8af3eccebb06f61032de7a14f07ff88",
      "blockNumber": "0x83d27a",
      "gasUsed": "0xc9e8",
      "effectiveGasPrice": "0x23edca",
      "from": "0xeddbf148d81d58e81c34db54e751d4fc9aedd0a7",
      "to": "0xa931e00664710217cc543a18eada487dd55f5ac6",
      "contractAddress": null
    },
    {
      "status": "0x1",
      "cumulativeGasUsed": "0x2087a20",
      "logs": [
        {
          "address": "0xaf769279a2bffb602b5e4a4b0227cac865c6fe79",
          "topics": [
            "0xddf252ad1be2c89b69c2b068fc378daa952ba7f163c4a11628f55a4df523b3ef",
            "0x000000000000000000000000eddbf148d81d58e81c34db54e751d4fc9aedd0a7",
            "0x0000000000000000000000000000000000000000000000000000000000000000"
          ],
          "data": "0x00000000000000000000000000000000000000000000000002c68af0bb140000",
          "blockHash": "0x1d5dad648b42ac36a4f794e7d9094a2cf8af3eccebb06f61032de7a14f07ff88",
          "blockNumber": "0x83d27a",
          "blockTimestamp": "0x685e5af0",
          "transactionHash": "0x3ea912296b7b2a5d558fd1c03e0bd6231b8985c9e3a62c20f132d550b6852a18",
          "transactionIndex": "0x12d",
          "logIndex": "0x2f6",
          "removed": false
        },
        {
          "address": "0xb65d7beb87f57cc725e5f829d7fd23e2a0a7a59f",
          "topics": [
            "0xddf252ad1be2c89b69c2b068fc378daa952ba7f163c4a11628f55a4df523b3ef",
            "0x000000000000000000000000af769279a2bffb602b5e4a4b0227cac865c6fe79",
            "0x000000000000000000000000eddbf148d81d58e81c34db54e751d4fc9aedd0a7"
          ],
          "data": "0x00000000000000000000000000000000000000000000001b1ae4d6e2ef500000",
          "blockHash": "0x1d5dad648b42ac36a4f794e7d9094a2cf8af3eccebb06f61032de7a14f07ff88",
          "blockNumber": "0x83d27a",
          "blockTimestamp": "0x685e5af0",
          "transactionHash": "0x3ea912296b7b2a5d558fd1c03e0bd6231b8985c9e3a62c20f132d550b6852a18",
          "transactionIndex": "0x12d",
          "logIndex": "0x2f7",
          "removed": false
        },
        {
          "address": "0xaf769279a2bffb602b5e4a4b0227cac865c6fe79",
          "topics": [
            "0x0fbf06c058b90cb038a618f8c2acbf6145f8b3570fd1fa56abb8f0f3f05b36e8",
            "0x000000000000000000000000eddbf148d81d58e81c34db54e751d4fc9aedd0a7",
            "0x00000000000000000000000000000000000000000000000002c68af0bb140000",
            "0x00000000000000000000000000000000000000000000001b1ae4d6e2ef500000"
          ],
          "data": "0x",
          "blockHash": "0x1d5dad648b42ac36a4f794e7d9094a2cf8af3eccebb06f61032de7a14f07ff88",
          "blockNumber": "0x83d27a",
          "blockTimestamp": "0x685e5af0",
          "transactionHash": "0x3ea912296b7b2a5d558fd1c03e0bd6231b8985c9e3a62c20f132d550b6852a18",
          "transactionIndex": "0x12d",
          "logIndex": "0x2f8",
          "removed": false
        },
        {
          "address": "0xaf769279a2bffb602b5e4a4b0227cac865c6fe79",
          "topics": [
            "0xddf252ad1be2c89b69c2b068fc378daa952ba7f163c4a11628f55a4df523b3ef",
            "0x000000000000000000000000eddbf148d81d58e81c34db54e751d4fc9aedd0a7",
            "0x0000000000000000000000000000000000000000000000000000000000000000"
          ],
          "data": "0x00000000000000000000000000000000000000000000000002c68af0bb140000",
          "blockHash": "0x1d5dad648b42ac36a4f794e7d9094a2cf8af3eccebb06f61032de7a14f07ff88",
          "blockNumber": "0x83d27a",
          "blockTimestamp": "0x685e5af0",
          "transactionHash": "0x3ea912296b7b2a5d558fd1c03e0bd6231b8985c9e3a62c20f132d550b6852a18",
          "transactionIndex": "0x12d",
          "logIndex": "0x2f9",
          "removed": false
        }
      ],
      "logsBloom": "0x00000000000000000000000000000000000000000000000000000000000000008000000000100000000000000000000000020200000000000000000000000800000000000000000000044008000400000000000800000000000000000000000000000000020000000000000000000800000000000002004000000010000000000000000400000000000000000000000000000000000000000000000000040000000000000000000200000000020000000002020000000000000000000000000000000002000000000000000000000000000000000000000000000000000030000000000000000000000000000000000000080000000000000000000400000001",
      "type": "0x2",
      "transactionHash": "0x3ea912296b7b2a5d558fd1c03e0bd6231b8985c9e3a62c20f132d550b6852a18",
      "transactionIndex": "0x12d",
      "blockHash": "0x1d5dad648b42ac36a4f794e7d9094a2cf8af3eccebb06f61032de7a14f07ff88",
      "blockNumber": "0x83d27a",
      "gasUsed": "0xc9e8",
      "effectiveGasPrice": "0x23edca",
      "from": "0xeddbf148d81d58e81c34db54e751d4fc9aedd0a7",
      "to": "0xaf769279a2bffb602b5e4a4b0227cac865c6fe79",
      "contractAddress": null
    },
    {
      "status": "0x1",
      "cumulativeGasUsed": "0x20963c2",
      "logs": [
        {
          "address": "0xe4bff792eb1e017a68fb9967beb1aa100710d017",
          "topics": [
            "0xddf252ad1be2c89b69c2b068fc378daa952ba7f163c4a11628f55a4df523b3ef",
            "0x000000000000000000000000eddbf148d81d58e81c34db54e751d4fc9aedd0a7",
            "0x0000000000000000000000000000000000000000000000000000000000000000"
          ],
          "data": "0x00000000000000000000000000000000000000000000000002c68af0bb140000",
          "blockHash": "0x1d5dad648b42ac36a4f794e7d9094a2cf8af3eccebb06f61032de7a14f07ff88",
          "blockNumber": "0x83d27a",
          "blockTimestamp": "0x685e5af0",
          "transactionHash": "0x2452d4767259ceb1420e8bc56d7c8bcc318e64ce3c7399cc26d432cbc084275d",
          "transactionIndex": "0x12e",
          "logIndex": "0x2fa",
          "removed": false
        },
        {
          "address": "0x75841c57ee004474ada7e2d1e6c20b5f8b00e1c1",
          "topics": [
            "0xddf252ad1be2c89b69c2b068fc378daa952ba7f163c4a11628f55a4df523b3ef",
            "0x000000000000000000000000e4bff792eb1e017a68fb9967beb1aa100710d017",
            "0x000000000000000000000000eddbf148d81d58e81c34db54e751d4fc9aedd0a7"
          ],
          "data": "0x000000000000000000000000000000000000000000000003635c9adc5dea0000",
          "blockHash": "0x1d5dad648b42ac36a4f794e7d9094a2cf8af3eccebb06f61032de7a14f07ff88",
          "blockNumber": "0x83d27a",
          "blockTimestamp": "0x685e5af0",
          "transactionHash": "0x2452d4767259ceb1420e8bc56d7c8bcc318e64ce3c7399cc26d432cbc084275d",
          "transactionIndex": "0x12e",
          "logIndex": "0x2fb",
          "removed": false
        },
        {
          "address": "0xe4bff792eb1e017a68fb9967beb1aa100710d017",
          "topics": [
            "0x0fbf06c058b90cb038a618f8c2acbf6145f8b3570fd1fa56abb8f0f3f05b36e8",
            "0x000000000000000000000000eddbf148d81d58e81c34db54e751d4fc9aedd0a7",
            "0x00000000000000000000000000000000000000000000000002c68af0bb140000",
            "0x000000000000000000000000000000000000000000000003635c9adc5dea0000"
          ],
          "data": "0x",
          "blockHash": "0x1d5dad648b42ac36a4f794e7d9094a2cf8af3eccebb06f61032de7a14f07ff88",
          "blockNumber": "0x83d27a",
          "blockTimestamp": "0x685e5af0",
          "transactionHash": "0x2452d4767259ceb1420e8bc56d7c8bcc318e64ce3c7399cc26d432cbc084275d",
          "transactionIndex": "0x12e",
          "logIndex": "0x2fc",
          "removed": false
        },
        {
          "address": "0xe4bff792eb1e017a68fb9967beb1aa100710d017",
          "topics": [
            "0xddf252ad1be2c89b69c2b068fc378daa952ba7f163c4a11628f55a4df523b3ef",
            "0x000000000000000000000000eddbf148d81d58e81c34db54e751d4fc9aedd0a7",
            "0x0000000000000000000000000000000000000000000000000000000000000000"
          ],
          "data": "0x00000000000000000000000000000000000000000000000002c68af0bb140000",
          "blockHash": "0x1d5dad648b42ac36a4f794e7d9094a2cf8af3eccebb06f61032de7a14f07ff88",
          "blockNumber": "0x83d27a",
          "blockTimestamp": "0x685e5af0",
          "transactionHash": "0x2452d4767259ceb1420e8bc56d7c8bcc318e64ce3c7399cc26d432cbc084275d",
          "transactionIndex": "0x12e",
          "logIndex": "0x2fd",
          "removed": false
        }
      ],
      "logsBloom": "0x00000000000000000000000800000000000000000000000000000000000000000000100004100000000000000000000000020000000000000000000000000800000000000000200000004008000400000000000000000000000000000000000000000000020000000000000000000800000000000000000000000010000000000000400400000000000000000000000000000000000000000010000000040000000000000800000000000000000000000000000000000000040000010000000000000002000000080000000000000000000000000020000000000200000030000000000000000000000000000000000000000000000000000000000000000001",
      "type": "0x2",
      "transactionHash": "0x2452d4767259ceb1420e8bc56d7c8bcc318e64ce3c7399cc26d432cbc084275d",
      "transactionIndex": "0x12e",
      "blockHash": "0x1d5dad648b42ac36a4f794e7d9094a2cf8af3eccebb06f61032de7a14f07ff88",
      "blockNumber": "0x83d27a",
      "gasUsed": "0xe9a2",
      "effectiveGasPrice": "0x23edca",
      "from": "0xeddbf148d81d58e81c34db54e751d4fc9aedd0a7",
      "to": "0xe4bff792eb1e017a68fb9967beb1aa100710d017",
      "contractAddress": null
    },
    {
      "status": "0x1",
      "cumulativeGasUsed": "0x20a2daa",
      "logs": [
        {
          "address": "0x3e2b88b7ee844b68ea1d47875c1985fad4a771dd",
          "topics": [
            "0xddf252ad1be2c89b69c2b068fc378daa952ba7f163c4a11628f55a4df523b3ef",
            "0x000000000000000000000000eddbf148d81d58e81c34db54e751d4fc9aedd0a7",
            "0x0000000000000000000000000000000000000000000000000000000000000000"
          ],
          "data": "0x00000000000000000000000000000000000000000000000002c68af0bb140000",
          "blockHash": "0x1d5dad648b42ac36a4f794e7d9094a2cf8af3eccebb06f61032de7a14f07ff88",
          "blockNumber": "0x83d27a",
          "blockTimestamp": "0x685e5af0",
          "transactionHash": "0x47934cf7aadb44388b1cf95151f486a4995576f85bb9840e3ef3b6c7d2796ca0",
          "transactionIndex": "0x12f",
          "logIndex": "0x2fe",
          "removed": false
        },
        {
          "address": "0x16e7fc1922c8baf21e5176276273885e6dabff09",
          "topics": [
            "0xddf252ad1be2c89b69c2b068fc378daa952ba7f163c4a11628f55a4df523b3ef",
            "0x0000000000000000000000003e2b88b7ee844b68ea1d47875c1985fad4a771dd",
            "0x000000000000000000000000eddbf148d81d58e81c34db54e751d4fc9aedd0a7"
          ],
          "data": "0x0000000000000000000000000000000000000000000000015af1d78b58c40000",
          "blockHash": "0x1d5dad648b42ac36a4f794e7d9094a2cf8af3eccebb06f61032de7a14f07ff88",
          "blockNumber": "0x83d27a",
          "blockTimestamp": "0x685e5af0",
          "transactionHash": "0x47934cf7aadb44388b1cf95151f486a4995576f85bb9840e3ef3b6c7d2796ca0",
          "transactionIndex": "0x12f",
          "logIndex": "0x2ff",
          "removed": false
        },
        {
          "address": "0x3e2b88b7ee844b68ea1d47875c1985fad4a771dd",
          "topics": [
            "0x0fbf06c058b90cb038a618f8c2acbf6145f8b3570fd1fa56abb8f0f3f05b36e8",
            "0x000000000000000000000000eddbf148d81d58e81c34db54e751d4fc9aedd0a7",
            "0x00000000000000000000000000000000000000000000000002c68af0bb140000",
            "0x0000000000000000000000000000000000000000000000015af1d78b58c40000"
          ],
          "data": "0x",
          "blockHash": "0x1d5dad648b42ac36a4f794e7d9094a2cf8af3eccebb06f61032de7a14f07ff88",
          "blockNumber": "0x83d27a",
          "blockTimestamp": "0x685e5af0",
          "transactionHash": "0x47934cf7aadb44388b1cf95151f486a4995576f85bb9840e3ef3b6c7d2796ca0",
          "transactionIndex": "0x12f",
          "logIndex": "0x300",
          "removed": false
        },
        {
          "address": "0x3e2b88b7ee844b68ea1d47875c1985fad4a771dd",
          "topics": [
            "0xddf252ad1be2c89b69c2b068fc378daa952ba7f163c4a11628f55a4df523b3ef",
            "0x000000000000000000000000eddbf148d81d58e81c34db54e751d4fc9aedd0a7",
            "0x0000000000000000000000000000000000000000000000000000000000000000"
          ],
          "data": "0x00000000000000000000000000000000000000000000000002c68af0bb140000",
          "blockHash": "0x1d5dad648b42ac36a4f794e7d9094a2cf8af3eccebb06f61032de7a14f07ff88",
          "blockNumber": "0x83d27a",
          "blockTimestamp": "0x685e5af0",
          "transactionHash": "0x47934cf7aadb44388b1cf95151f486a4995576f85bb9840e3ef3b6c7d2796ca0",
          "transactionIndex": "0x12f",
          "logIndex": "0x301",
          "removed": false
        }
      ],
      "logsBloom": "0x00000000000020000000000000000000000000000000020000000000000000000000000000100004001000000000000000020000800000000000000000000800000000000000000000004008000400000000000000000000000000000000000000000000020000000000000000080800000000000002000000000010000000000000000400000000000000000000000000000000000000000000000000040000000000000000000000000000001000000000000000000000000000000000000000000002000000000000000000000000000000000200000000000000000031000000000000200000000000000000000000000000001000000000000000000001",
      "type": "0x2",
      "transactionHash": "0x47934cf7aadb44388b1cf95151f486a4995576f85bb9840e3ef3b6c7d2796ca0",
      "transactionIndex": "0x12f",
      "blockHash": "0x1d5dad648b42ac36a4f794e7d9094a2cf8af3eccebb06f61032de7a14f07ff88",
      "blockNumber": "0x83d27a",
      "gasUsed": "0xc9e8",
      "effectiveGasPrice": "0x23edca",
      "from": "0xeddbf148d81d58e81c34db54e751d4fc9aedd0a7",
      "to": "0x3e2b88b7ee844b68ea1d47875c1985fad4a771dd",
      "contractAddress": null
    },
    {
      "status": "0x1",
      "cumulativeGasUsed": "0x20af792",
      "logs": [
        {
          "address": "0xdedef7d082b788456fef027d364642b686bc227a",
          "topics": [
            "0xddf252ad1be2c89b69c2b068fc378daa952ba7f163c4a11628f55a4df523b3ef",
            "0x000000000000000000000000eddbf148d81d58e81c34db54e751d4fc9aedd0a7",
            "0x0000000000000000000000000000000000000000000000000000000000000000"
          ],
          "data": "0x00000000000000000000000000000000000000000000000002c68af0bb140000",
          "blockHash": "0x1d5dad648b42ac36a4f794e7d9094a2cf8af3eccebb06f61032de7a14f07ff88",
          "blockNumber": "0x83d27a",
          "blockTimestamp": "0x685e5af0",
          "transactionHash": "0xfd57a9b330aaaf55a4c866a359ee136d5d4673da00dd6999d5ad978cca886e5a",
          "transactionIndex": "0x130",
          "logIndex": "0x302",
          "removed": false
        },
        {
          "address": "0xe17a3c8fbe4519d4d5347082f77589ea23336a9c",
          "topics": [
            "0xddf252ad1be2c89b69c2b068fc378daa952ba7f163c4a11628f55a4df523b3ef",
            "0x000000000000000000000000dedef7d082b788456fef027d364642b686bc227a",
            "0x000000000000000000000000eddbf148d81d58e81c34db54e751d4fc9aedd0a7"
          ],
          "data": "0x0000000000000000000000000000000000000000000000001a3aa0fc817d0000",
          "blockHash": "0x1d5dad648b42ac36a4f794e7d9094a2cf8af3eccebb06f61032de7a14f07ff88",
          "blockNumber": "0x83d27a",
          "blockTimestamp": "0x685e5af0",
          "transactionHash": "0xfd57a9b330aaaf55a4c866a359ee136d5d4673da00dd6999d5ad978cca886e5a",
          "transactionIndex": "0x130",
          "logIndex": "0x303",
          "removed": false
        },
        {
          "address": "0xdedef7d082b788456fef027d364642b686bc227a",
          "topics": [
            "0x0fbf06c058b90cb038a618f8c2acbf6145f8b3570fd1fa56abb8f0f3f05b36e8",
            "0x000000000000000000000000eddbf148d81d58e81c34db54e751d4fc9aedd0a7",
            "0x00000000000000000000000000000000000000000000000002c68af0bb140000",
            "0x0000000000000000000000000000000000000000000000001a3aa0fc817d0000"
          ],
          "data": "0x",
          "blockHash": "0x1d5dad648b42ac36a4f794e7d9094a2cf8af3eccebb06f61032de7a14f07ff88",
          "blockNumber": "0x83d27a",
          "blockTimestamp": "0x685e5af0",
          "transactionHash": "0xfd57a9b330aaaf55a4c866a359ee136d5d4673da00dd6999d5ad978cca886e5a",
          "transactionIndex": "0x130",
          "logIndex": "0x304",
          "removed": false
        },
        {
          "address": "0xdedef7d082b788456fef027d364642b686bc227a",
          "topics": [
            "0xddf252ad1be2c89b69c2b068fc378daa952ba7f163c4a11628f55a4df523b3ef",
            "0x000000000000000000000000eddbf148d81d58e81c34db54e751d4fc9aedd0a7",
            "0x0000000000000000000000000000000000000000000000000000000000000000"
          ],
          "data": "0x00000000000000000000000000000000000000000000000002c68af0bb140000",
          "blockHash": "0x1d5dad648b42ac36a4f794e7d9094a2cf8af3eccebb06f61032de7a14f07ff88",
          "blockNumber": "0x83d27a",
          "blockTimestamp": "0x685e5af0",
          "transactionHash": "0xfd57a9b330aaaf55a4c866a359ee136d5d4673da00dd6999d5ad978cca886e5a",
          "transactionIndex": "0x130",
          "logIndex": "0x305",
          "removed": false
        }
      ],
      "logsBloom": "0x20008000000000000000000000000000000000010000000000000000000000000000000000100000000000000000000200030000000000000000000000000800000000000000000000005008000400000000000000000008000000000000000000000000020000000000000000000800000000400000000000000010000000000000000400000000000801000000000000000000000000000000000000040000000000000000000000000000000000000000000000000000000000000000000000000002000000000000000000000000000000010000000000000000000030000000000000000000000008000000000000000000000000000000000000000001",
      "type": "0x2",
      "transactionHash": "0xfd57a9b330aaaf55a4c866a359ee136d5d4673da00dd6999d5ad978cca886e5a",
      "transactionIndex": "0x130",
      "blockHash": "0x1d5dad648b42ac36a4f794e7d9094a2cf8af3eccebb06f61032de7a14f07ff88",
      "blockNumber": "0x83d27a",
      "gasUsed": "0xc9e8",
      "effectiveGasPrice": "0x23edca",
      "from": "0xeddbf148d81d58e81c34db54e751d4fc9aedd0a7",
      "to": "0xdedef7d082b788456fef027d364642b686bc227a",
      "contractAddress": null
    }
  ],
  "libraries": [],
  "pending": [],
  "returns": {},
  "timestamp": 1751014128937,
  "chain": 11155111,
  "commit": "2b04cc2"
}