{
  "transactions": [
    {
      "hash": "0x4a9362ccc8db377f58b1a23e23e0fdc180646fafd25618205ae81969fdc4c12d",
      "transactionType": "CALL",
      "contractName": null,
      "contractAddress": "0xef8fd7e36fa7233c32a953b4c8004c1383f4e49d",
      "function": "transfer(address,uint256)",
      "arguments": [
        "0x99D529952a3885C07178C747a5aBA93F03749BC9",
        "10000000000000000000000"
      ],
      "transaction": {
        "from": "0xeddbf148d81d58e81c34db54e751d4fc9aedd0a7",
        "to": "0xef8fd7e36fa7233c32a953b4c8004c1383f4e49d",
        "gas": "0x119ac",
        "value": "0x0",
        "input": "0xa9059cbb00000000000000000000000099d529952a3885c07178c747a5aba93f03749bc900000000000000000000000000000000000000000000021e19e0c9bab2400000",
        "nonce": "0x1a",
        "chainId": "0xaa36a7"
      },
      "additionalContracts": [],
      "isFixedGasLimit": false
    },
    {
      "hash": "0xe9ce0aadade7f53e9fe147d4a11c46aa4f98654aaa96cda5487c5b6db73a75e4",
      "transactionType": "CALL",
      "contractName": null,
      "contractAddress": "0xef8fd7e36fa7233c32a953b4c8004c1383f4e49d",
      "function": "transfer(address,uint256)",
      "arguments": [
        "0x8c06679B1E23C4962E8A781495f5DE625238C249",
        "10000000000000000000000"
      ],
      "transaction": {
        "from": "0xeddbf148d81d58e81c34db54e751d4fc9aedd0a7",
        "to": "0xef8fd7e36fa7233c32a953b4c8004c1383f4e49d",
        "gas": "0x119ac",
        "value": "0x0",
        "input": "0xa9059cbb0000000000000000000000008c06679b1e23c4962e8a781495f5de625238c24900000000000000000000000000000000000000000000021e19e0c9bab2400000",
        "nonce": "0x1b",
        "chainId": "0xaa36a7"
      },
      "additionalContracts": [],
      "isFixedGasLimit": false
    },
    {
      "hash": "0xa22faae1c0ec3ab3badfb9723d271ad7c9c73c9035e2131a3b70bd61957acbd0",
      "transactionType": "CALL",
      "contractName": null,
      "contractAddress": "0xef8fd7e36fa7233c32a953b4c8004c1383f4e49d",
      "function": "transfer(address,uint256)",
      "arguments": [
        "0x36Aad26065d45aD4B7d67104A6297E8B5835547E",
        "10000000000000000000000"
      ],
      "transaction": {
        "from": "0xeddbf148d81d58e81c34db54e751d4fc9aedd0a7",
        "to": "0xef8fd7e36fa7233c32a953b4c8004c1383f4e49d",
        "gas": "0x119ac",
        "value": "0x0",
        "input": "0xa9059cbb00000000000000000000000036aad26065d45ad4b7d67104a6297e8b5835547e00000000000000000000000000000000000000000000021e19e0c9bab2400000",
        "nonce": "0x1c",
        "chainId": "0xaa36a7"
      },
      "additionalContracts": [],
      "isFixedGasLimit": false
    },
    {
      "hash": "0x61b6125d35f002811c69d98f405d07df26ace13f6ab9c79c7cb81421599f11fe",
      "transactionType": "CALL",
      "contractName": null,
      "contractAddress": "0xb65d7beb87f57cc725e5f829d7fd23e2a0a7a59f",
      "function": "transfer(address,uint256)",
      "arguments": [
        "0x99D529952a3885C07178C747a5aBA93F03749BC9",
        "10000000000000000000000"
      ],
      "transaction": {
        "from": "0xeddbf148d81d58e81c34db54e751d4fc9aedd0a7",
        "to": "0xb65d7beb87f57cc725e5f829d7fd23e2a0a7a59f",
        "gas": "0x119ac",
        "value": "0x0",
        "input": "0xa9059cbb00000000000000000000000099d529952a3885c07178c747a5aba93f03749bc900000000000000000000000000000000000000000000021e19e0c9bab2400000",
        "nonce": "0x1d",
        "chainId": "0xaa36a7"
      },
      "additionalContracts": [],
      "isFixedGasLimit": false
    },
    {
      "hash": "0xfdc5fe7c59047321687a2034e65e0eb41ed9c15d5b51bdd8478a9093717970d7",
      "transactionType": "CALL",
      "contractName": null,
      "contractAddress": "0xb65d7beb87f57cc725e5f829d7fd23e2a0a7a59f",
      "function": "transfer(address,uint256)",
      "arguments": [
        "0x8c06679B1E23C4962E8A781495f5DE625238C249",
        "10000000000000000000000"
      ],
      "transaction": {
        "from": "0xeddbf148d81d58e81c34db54e751d4fc9aedd0a7",
        "to": "0xb65d7beb87f57cc725e5f829d7fd23e2a0a7a59f",
        "gas": "0x119ac",
        "value": "0x0",
        "input": "0xa9059cbb0000000000000000000000008c06679b1e23c4962e8a781495f5de625238c24900000000000000000000000000000000000000000000021e19e0c9bab2400000",
        "nonce": "0x1e",
        "chainId": "0xaa36a7"
      },
      "additionalContracts": [],
      "isFixedGasLimit": false
    },
    {
      "hash": "0x2070a65de8c8c6a065e0e09c6a574205e87b32649024f4bf96a764fe21559896",
      "transactionType": "CALL",
      "contractName": null,
      "contractAddress": "0xb65d7beb87f57cc725e5f829d7fd23e2a0a7a59f",
      "function": "transfer(address,uint256)",
      "arguments": [
        "0x36Aad26065d45aD4B7d67104A6297E8B5835547E",
        "10000000000000000000000"
      ],
      "transaction": {
        "from": "0xeddbf148d81d58e81c34db54e751d4fc9aedd0a7",
        "to": "0xb65d7beb87f57cc725e5f829d7fd23e2a0a7a59f",
        "gas": "0x119ac",
        "value": "0x0",
        "input": "0xa9059cbb00000000000000000000000036aad26065d45ad4b7d67104a6297e8b5835547e00000000000000000000000000000000000000000000021e19e0c9bab2400000",
        "nonce": "0x1f",
        "chainId": "0xaa36a7"
      },
      "additionalContracts": [],
      "isFixedGasLimit": false
    },
    {
      "hash": "0x568a1bb467ba2f1031d77a8109fc2a82e3eb9876f1b4ade2d7f4f488366ae4ee",
      "transactionType": "CALL",
      "contractName": null,
      "contractAddress": "0x75841c57ee004474ada7e2d1e6c20b5f8b00e1c1",
      "function": "transfer(address,uint256)",
      "arguments": [
        "0x99D529952a3885C07178C747a5aBA93F03749BC9",
        "10000000000000000000000"
      ],
      "transaction": {
        "from": "0xeddbf148d81d58e81c34db54e751d4fc9aedd0a7",
        "to": "0x75841c57ee004474ada7e2d1e6c20b5f8b00e1c1",
        "gas": "0x119ac",
        "value": "0x0",
        "input": "0xa9059cbb00000000000000000000000099d529952a3885c07178c747a5aba93f03749bc900000000000000000000000000000000000000000000021e19e0c9bab2400000",
        "nonce": "0x20",
        "chainId": "0xaa36a7"
      },
      "additionalContracts": [],
      "isFixedGasLimit": false
    },
    {
      "hash": "0x2a5ee686c85536c4db67cd21b5621e9393363c413714b2a4adc652d204429266",
      "transactionType": "CALL",
      "contractName": null,
      "contractAddress": "0x75841c57ee004474ada7e2d1e6c20b5f8b00e1c1",
      "function": "transfer(address,uint256)",
      "arguments": [
        "0x8c06679B1E23C4962E8A781495f5DE625238C249",
        "10000000000000000000000"
      ],
      "transaction": {
        "from": "0xeddbf148d81d58e81c34db54e751d4fc9aedd0a7",
        "to": "0x75841c57ee004474ada7e2d1e6c20b5f8b00e1c1",
        "gas": "0x119ac",
        "value": "0x0",
        "input": "0xa9059cbb0000000000000000000000008c06679b1e23c4962e8a781495f5de625238c24900000000000000000000000000000000000000000000021e19e0c9bab2400000",
        "nonce": "0x21",
        "chainId": "0xaa36a7"
      },
      "additionalContracts": [],
      "isFixedGasLimit": false
    },
    {
      "hash": "0xa3800762859e6122dfa55e6cd27eddc2fa0e259bd2866125f4a92a3a754de34a",
      "transactionType": "CALL",
      "contractName": null,
      "contractAddress": "0x75841c57ee004474ada7e2d1e6c20b5f8b00e1c1",
      "function": "transfer(address,uint256)",
      "arguments": [
        "0x36Aad26065d45aD4B7d67104A6297E8B5835547E",
        "10000000000000000000000"
      ],
      "transaction": {
        "from": "0xeddbf148d81d58e81c34db54e751d4fc9aedd0a7",
        "to": "0x75841c57ee004474ada7e2d1e6c20b5f8b00e1c1",
        "gas": "0x119ac",
        "value": "0x0",
        "input": "0xa9059cbb00000000000000000000000036aad26065d45ad4b7d67104a6297e8b5835547e00000000000000000000000000000000000000000000021e19e0c9bab2400000",
        "nonce": "0x22",
        "chainId": "0xaa36a7"
      },
      "additionalContracts": [],
      "isFixedGasLimit": false
    },
    {
      "hash": "0x411c7456b61dab43beddf2fe6b0ea40036da46e63269d2409fee8ef9630b1b6e",
      "transactionType": "CALL",
      "contractName": null,
      "contractAddress": "0x16e7fc1922c8baf21e5176276273885e6dabff09",
      "function": "transfer(address,uint256)",
      "arguments": [
        "0x99D529952a3885C07178C747a5aBA93F03749BC9",
        "10000000000000000000000"
      ],
      "transaction": {
        "from": "0xeddbf148d81d58e81c34db54e751d4fc9aedd0a7",
        "to": "0x16e7fc1922c8baf21e5176276273885e6dabff09",
        "gas": "0x119ac",
        "value": "0x0",
        "input": "0xa9059cbb00000000000000000000000099d529952a3885c07178c747a5aba93f03749bc900000000000000000000000000000000000000000000021e19e0c9bab2400000",
        "nonce": "0x23",
        "chainId": "0xaa36a7"
      },
      "additionalContracts": [],
      "isFixedGasLimit": false
    },
    {
      "hash": "0xa2935c0b80dfb412af41dc958cc4e9106bb77f8def41a1c4adaf95208d9f8033",
      "transactionType": "CALL",
      "contractName": null,
      "contractAddress": "0x16e7fc1922c8baf21e5176276273885e6dabff09",
      "function": "transfer(address,uint256)",
      "arguments": [
        "0x8c06679B1E23C4962E8A781495f5DE625238C249",
        "10000000000000000000000"
      ],
      "transaction": {
        "from": "0xeddbf148d81d58e81c34db54e751d4fc9aedd0a7",
        "to": "0x16e7fc1922c8baf21e5176276273885e6dabff09",
        "gas": "0x119ac",
        "value": "0x0",
        "input": "0xa9059cbb0000000000000000000000008c06679b1e23c4962e8a781495f5de625238c24900000000000000000000000000000000000000000000021e19e0c9bab2400000",
        "nonce": "0x24",
        "chainId": "0xaa36a7"
      },
      "additionalContracts": [],
      "isFixedGasLimit": false
    },
    {
      "hash": "0x89507920b8f4a055ffee058deb696dfd3ca5796f058afdc7b7fdf71e61083167",
      "transactionType": "CALL",
      "contractName": null,
      "contractAddress": "0x16e7fc1922c8baf21e5176276273885e6dabff09",
      "function": "transfer(address,uint256)",
      "arguments": [
        "0x36Aad26065d45aD4B7d67104A6297E8B5835547E",
        "10000000000000000000000"
      ],
      "transaction": {
        "from": "0xeddbf148d81d58e81c34db54e751d4fc9aedd0a7",
        "to": "0x16e7fc1922c8baf21e5176276273885e6dabff09",
        "gas": "0x119ac",
        "value": "0x0",
        "input": "0xa9059cbb00000000000000000000000036aad26065d45ad4b7d67104a6297e8b5835547e00000000000000000000000000000000000000000000021e19e0c9bab2400000",
        "nonce": "0x25",
        "chainId": "0xaa36a7"
      },
      "additionalContracts": [],
      "isFixedGasLimit": false
    },
    {
      "hash": "0x93c1d45d004b8a91172df5f8092eec2af1bb1456ce3c372fabfb7e5ca5662ea8",
      "transactionType": "CALL",
      "contractName": null,
      "contractAddress": "0xe17a3c8fbe4519d4d5347082f77589ea23336a9c",
      "function": "transfer(address,uint256)",
      "arguments": [
        "0x99D529952a3885C07178C747a5aBA93F03749BC9",
        "10000000000000000000000"
      ],
      "transaction": {
        "from": "0xeddbf148d81d58e81c34db54e751d4fc9aedd0a7",
        "to": "0xe17a3c8fbe4519d4d5347082f77589ea23336a9c",
        "gas": "0x119ac",
        "value": "0x0",
        "input": "0xa9059cbb00000000000000000000000099d529952a3885c07178c747a5aba93f03749bc900000000000000000000000000000000000000000000021e19e0c9bab2400000",
        "nonce": "0x26",
        "chainId": "0xaa36a7"
      },
      "additionalContracts": [],
      "isFixedGasLimit": false
    },
    {
      "hash": "0xf7fa4d6145ee6dca0b11dfbd0b669ceb3b2d99c2e98288dbcb0278fb88fec4b7",
      "transactionType": "CALL",
      "contractName": null,
      "contractAddress": "0xe17a3c8fbe4519d4d5347082f77589ea23336a9c",
      "function": "transfer(address,uint256)",
      "arguments": [
        "0x8c06679B1E23C4962E8A781495f5DE625238C249",
        "10000000000000000000000"
      ],
      "transaction": {
        "from": "0xeddbf148d81d58e81c34db54e751d4fc9aedd0a7",
        "to": "0xe17a3c8fbe4519d4d5347082f77589ea23336a9c",
        "gas": "0x119ac",
        "value": "0x0",
        "input": "0xa9059cbb0000000000000000000000008c06679b1e23c4962e8a781495f5de625238c24900000000000000000000000000000000000000000000021e19e0c9bab2400000",
        "nonce": "0x27",
        "chainId": "0xaa36a7"
      },
      "additionalContracts": [],
      "isFixedGasLimit": false
    },
    {
      "hash": "0x22afbf5b153dcdebd964e859e91eb133e6e9be54ece7edb39ea8cd2ed12b5739",
      "transactionType": "CALL",
      "contractName": null,
      "contractAddress": "0xe17a3c8fbe4519d4d5347082f77589ea23336a9c",
      "function": "transfer(address,uint256)",
      "arguments": [
        "0x36Aad26065d45aD4B7d67104A6297E8B5835547E",
        "10000000000000000000000"
      ],
      "transaction": {
        "from": "0xeddbf148d81d58e81c34db54e751d4fc9aedd0a7",
        "to": "0xe17a3c8fbe4519d4d5347082f77589ea23336a9c",
        "gas": "0x119ac",
        "value": "0x0",
        "input": "0xa9059cbb00000000000000000000000036aad26065d45ad4b7d67104a6297e8b5835547e00000000000000000000000000000000000000000000021e19e0c9bab2400000",
        "nonce": "0x28",
        "chainId": "0xaa36a7"
      },
      "additionalContracts": [],
      "isFixedGasLimit": false
    }
  ],
  "receipts": [
    {
      "status": "0x1",
      "cumulativeGasUsed": "0x9c5dd5",
      "logs": [
        {
          "address": "0xef8fd7e36fa7233c32a953b4c8004c1383f4e49d",
          "topics": [
            "0xddf252ad1be2c89b69c2b068fc378daa952ba7f163c4a11628f55a4df523b3ef",
            "0x000000000000000000000000eddbf148d81d58e81c34db54e751d4fc9aedd0a7",
            "0x00000000000000000000000099d529952a3885c07178c747a5aba93f03749bc9"
          ],
          "data": "0x00000000000000000000000000000000000000000000021e19e0c9bab2400000",
          "blockHash": "0xbcbe0633abbe7571c3260a1888c900c4a9cba297e5cbb40f5e1270d68bb8b01f",
          "blockNumber": "0x824397",
          "blockTimestamp": "0x684b9670",
          "transactionHash": "0x4a9362ccc8db377f58b1a23e23e0fdc180646fafd25618205ae81969fdc4c12d",
          "transactionIndex": "0x76",
          "logIndex": "0xa6",
          "removed": false
        }
      ],
      "logsBloom": "0x00000000000040000000000000000000000080000002000000000000000000000000000000100000000000000000000000000000000000000000000000000000000000000000000000000008000400000020000000000000000000000000000000000000000000000000000000000000000000000000000000000010000000000000000000000000000000000000000000000000000000000002000000000000000000000000000000000000000000000000000000000000000000000000000000000002000000000000000000000000000000000000000000000000000008000000000000000000000000000000000000000000000000000000000000000001",
      "type": "0x2",
      "transactionHash": "0x4a9362ccc8db377f58b1a23e23e0fdc180646fafd25618205ae81969fdc4c12d",
      "transactionIndex": "0x76",
      "blockHash": "0xbcbe0633abbe7571c3260a1888c900c4a9cba297e5cbb40f5e1270d68bb8b01f",
      "blockNumber": "0x824397",
      "gasUsed": "0xcbee",
      "effectiveGasPrice": "0xf4254",
      "from": "0xeddbf148d81d58e81c34db54e751d4fc9aedd0a7",
      "to": "0xef8fd7e36fa7233c32a953b4c8004c1383f4e49d",
      "contractAddress": null
    },
    {
      "status": "0x1",
      "cumulativeGasUsed": "0x9d29c3",
      "logs": [
        {
          "address": "0xef8fd7e36fa7233c32a953b4c8004c1383f4e49d",
          "topics": [
            "0xddf252ad1be2c89b69c2b068fc378daa952ba7f163c4a11628f55a4df523b3ef",
            "0x000000000000000000000000eddbf148d81d58e81c34db54e751d4fc9aedd0a7",
            "0x0000000000000000000000008c06679b1e23c4962e8a781495f5de625238c249"
          ],
          "data": "0x00000000000000000000000000000000000000000000021e19e0c9bab2400000",
          "blockHash": "0xbcbe0633abbe7571c3260a1888c900c4a9cba297e5cbb40f5e1270d68bb8b01f",
          "blockNumber": "0x824397",
          "blockTimestamp": "0x684b9670",
          "transactionHash": "0xe9ce0aadade7f53e9fe147d4a11c46aa4f98654aaa96cda5487c5b6db73a75e4",
          "transactionIndex": "0x77",
          "logIndex": "0xa7",
          "removed": false
        }
      ],
      "logsBloom": "0x00000000000040000000080000000000000000000000000000000000000000000000000000100000000000000000000000000000000000000000000000000000000000000000000000000008000400000020000000000000000000000000000000000000000000000000000000000000000000000000000000000010000000000000000000000000000000000000000000000000000000000002000000000000000000000000000000000000000000000000000000000010000000000000000000000002000000000000000000000000000000000000000000000000000000000000010000000000000000000000000000000000000000000000000000000001",
      "type": "0x2",
      "transactionHash": "0xe9ce0aadade7f53e9fe147d4a11c46aa4f98654aaa96cda5487c5b6db73a75e4",
      "transactionIndex": "0x77",
      "blockHash": "0xbcbe0633abbe7571c3260a1888c900c4a9cba297e5cbb40f5e1270d68bb8b01f",
      "blockNumber": "0x824397",
      "gasUsed": "0xcbee",
      "effectiveGasPrice": "0xf4254",
      "from": "0xeddbf148d81d58e81c34db54e751d4fc9aedd0a7",
      "to": "0xef8fd7e36fa7233c32a953b4c8004c1383f4e49d",
      "contractAddress": null
    },
    {
      "status": "0x1",
      "cumulativeGasUsed": "0xa0246e",
      "logs": [
        {
          "address": "0xef8fd7e36fa7233c32a953b4c8004c1383f4e49d",
          "topics": [
            "0xddf252ad1be2c89b69c2b068fc378daa952ba7f163c4a11628f55a4df523b3ef",
            "0x000000000000000000000000eddbf148d81d58e81c34db54e751d4fc9aedd0a7",
            "0x00000000000000000000000036aad26065d45ad4b7d67104a6297e8b5835547e"
          ],
          "data": "0x00000000000000000000000000000000000000000000021e19e0c9bab2400000",
          "blockHash": "0xbcbe0633abbe7571c3260a1888c900c4a9cba297e5cbb40f5e1270d68bb8b01f",
          "blockNumber": "0x824397",
          "blockTimestamp": "0x684b9670",
          "transactionHash": "0xa22faae1c0ec3ab3badfb9723d271ad7c9c73c9035e2131a3b70bd61957acbd0",
          "transactionIndex": "0x79",
          "logIndex": "0xab",
          "removed": false
        }
      ],
      "logsBloom": "0x00000000000040000040000000000000000000000000000000000000000000000000080000100000000000000000000000000000000000000000000000000000000000000000000000000008000400000020000000000000000000000000000000000000000000000000000000000000000000000000000000000010000000000000000000000000000000000000000000000000000000000002000000000000000000000000000000000000000000200000000000000000000000000000000000000002000000000000000000000000000000000000000000000000000000000000000000000000000000000000000000000000000000000000000000000001",
      "type": "0x2",
      "transactionHash": "0xa22faae1c0ec3ab3badfb9723d271ad7c9c73c9035e2131a3b70bd61957acbd0",
      "transactionIndex": "0x79",
      "blockHash": "0xbcbe0633abbe7571c3260a1888c900c4a9cba297e5cbb40f5e1270d68bb8b01f",
      "blockNumber": "0x824397",
      "gasUsed": "0xcbee",
      "effectiveGasPrice": "0xf4254",
      "from": "0xeddbf148d81d58e81c34db54e751d4fc9aedd0a7",
      "to": "0xef8fd7e36fa7233c32a953b4c8004c1383f4e49d",
      "contractAddress": null
    },
    {
      "status": "0x1",
      "cumulativeGasUsed": "0xa6dfb2",
      "logs": [
        {
          "address": "0xb65d7beb87f57cc725e5f829d7fd23e2a0a7a59f",
          "topics": [
            "0xddf252ad1be2c89b69c2b068fc378daa952ba7f163c4a11628f55a4df523b3ef",
            "0x000000000000000000000000eddbf148d81d58e81c34db54e751d4fc9aedd0a7",
            "0x00000000000000000000000099d529952a3885c07178c747a5aba93f03749bc9"
          ],
          "data": "0x00000000000000000000000000000000000000000000021e19e0c9bab2400000",
          "blockHash": "0xbcbe0633abbe7571c3260a1888c900c4a9cba297e5cbb40f5e1270d68bb8b01f",
          "blockNumber": "0x824397",
          "blockTimestamp": "0x684b9670",
          "transactionHash": "0x61b6125d35f002811c69d98f405d07df26ace13f6ab9c79c7cb81421599f11fe",
          "transactionIndex": "0x7e",
          "logIndex": "0xb0",
          "removed": false
        }
      ],
      "logsBloom": "0x00000000000000000000000000000000000080000002000000000000000000000000000000100000000000000000000000000000000000000000000000000000000000000000000000000008000400000000000000000000000000000000000000000000000000000000000000000000000000000000004000000010000000000000000000000000000000000000000000000000000000000000000000000000000000000000000200000000020000000000000000000000000000000000000000000002000000000000000000000000000000000000000000000000000008000000000000000000000000000000000000000000000000000000000000000001",
      "type": "0x2",
      "transactionHash": "0x61b6125d35f002811c69d98f405d07df26ace13f6ab9c79c7cb81421599f11fe",
      "transactionIndex": "0x7e",
      "blockHash": "0xbcbe0633abbe7571c3260a1888c900c4a9cba297e5cbb40f5e1270d68bb8b01f",
      "blockNumber": "0x824397",
      "gasUsed": "0xcbee",
      "effectiveGasPrice": "0xf4254",
      "from": "0xeddbf148d81d58e81c34db54e751d4fc9aedd0a7",
      "to": "0xb65d7beb87f57cc725e5f829d7fd23e2a0a7a59f",
      "contractAddress": null
    },
    {
      "status": "0x1",
      "cumulativeGasUsed": "0xa7aba0",
      "logs": [
        {
          "address": "0xb65d7beb87f57cc725e5f829d7fd23e2a0a7a59f",
          "topics": [
            "0xddf252ad1be2c89b69c2b068fc378daa952ba7f163c4a11628f55a4df523b3ef",
            "0x000000000000000000000000eddbf148d81d58e81c34db54e751d4fc9aedd0a7",
            "0x0000000000000000000000008c06679b1e23c4962e8a781495f5de625238c249"
          ],
          "data": "0x00000000000000000000000000000000000000000000021e19e0c9bab2400000",
          "blockHash": "0xbcbe0633abbe7571c3260a1888c900c4a9cba297e5cbb40f5e1270d68bb8b01f",
          "blockNumber": "0x824397",
          "blockTimestamp": "0x684b9670",
          "transactionHash": "0xfdc5fe7c59047321687a2034e65e0eb41ed9c15d5b51bdd8478a9093717970d7",
          "transactionIndex": "0x7f",
          "logIndex": "0xb1",
          "removed": false
        }
      ],
      "logsBloom": "0x00000000000000000000080000000000000000000000000000000000000000000000000000100000000000000000000000000000000000000000000000000000000000000000000000000008000400000000000000000000000000000000000000000000000000000000000000000000000000000000004000000010000000000000000000000000000000000000000000000000000000000000000000000000000000000000000200000000020000000000000000000010000000000000000000000002000000000000000000000000000000000000000000000000000000000000010000000000000000000000000000000000000000000000000000000001",
      "type": "0x2",
      "transactionHash": "0xfdc5fe7c59047321687a2034e65e0eb41ed9c15d5b51bdd8478a9093717970d7",
      "transactionIndex": "0x7f",
      "blockHash": "0xbcbe0633abbe7571c3260a1888c900c4a9cba297e5cbb40f5e1270d68bb8b01f",
      "blockNumber": "0x824397",
      "gasUsed": "0xcbee",
      "effectiveGasPrice": "0xf4254",
      "from": "0xeddbf148d81d58e81c34db54e751d4fc9aedd0a7",
      "to": "0xb65d7beb87f57cc725e5f829d7fd23e2a0a7a59f",
      "contractAddress": null
    },
    {
      "status": "0x1",
      "cumulativeGasUsed": "0xa8778e",
      "logs": [
        {
          "address": "0xb65d7beb87f57cc725e5f829d7fd23e2a0a7a59f",
          "topics": [
            "0xddf252ad1be2c89b69c2b068fc378daa952ba7f163c4a11628f55a4df523b3ef",
            "0x000000000000000000000000eddbf148d81d58e81c34db54e751d4fc9aedd0a7",
            "0x00000000000000000000000036aad26065d45ad4b7d67104a6297e8b5835547e"
          ],
          "data": "0x00000000000000000000000000000000000000000000021e19e0c9bab2400000",
          "blockHash": "0xbcbe0633abbe7571c3260a1888c900c4a9cba297e5cbb40f5e1270d68bb8b01f",
          "blockNumber": "0x824397",
          "blockTimestamp": "0x684b9670",
          "transactionHash": "0x2070a65de8c8c6a065e0e09c6a574205e87b32649024f4bf96a764fe21559896",
          "transactionIndex": "0x80",
          "logIndex": "0xb2",
          "removed": false
        }
      ],
      "logsBloom": "0x00000000000000000040000000000000000000000000000000000000000000000000080000100000000000000000000000000000000000000000000000000000000000000000000000000008000400000000000000000000000000000000000000000000000000000000000000000000000000000000004000000010000000000000000000000000000000000000000000000000000000000000000000000000000000000000000200000000020000200000000000000000000000000000000000000002000000000000000000000000000000000000000000000000000000000000000000000000000000000000000000000000000000000000000000000001",
      "type": "0x2",
      "transactionHash": "0x2070a65de8c8c6a065e0e09c6a574205e87b32649024f4bf96a764fe21559896",
      "transactionIndex": "0x80",
      "blockHash": "0xbcbe0633abbe7571c3260a1888c900c4a9cba297e5cbb40f5e1270d68bb8b01f",
      "blockNumber": "0x824397",
      "gasUsed": "0xcbee",
      "effectiveGasPrice": "0xf4254",
      "from": "0xeddbf148d81d58e81c34db54e751d4fc9aedd0a7",
      "to": "0xb65d7beb87f57cc725e5f829d7fd23e2a0a7a59f",
      "contractAddress": null
    },
    {
      "status": "0x1",
      "cumulativeGasUsed": "0xa9437c",
      "logs": [
        {
          "address": "0x75841c57ee004474ada7e2d1e6c20b5f8b00e1c1",
          "topics": [
            "0xddf252ad1be2c89b69c2b068fc378daa952ba7f163c4a11628f55a4df523b3ef",
            "0x000000000000000000000000eddbf148d81d58e81c34db54e751d4fc9aedd0a7",
            "0x00000000000000000000000099d529952a3885c07178c747a5aba93f03749bc9"
          ],
          "data": "0x00000000000000000000000000000000000000000000021e19e0c9bab2400000",
          "blockHash": "0xbcbe0633abbe7571c3260a1888c900c4a9cba297e5cbb40f5e1270d68bb8b01f",
          "blockNumber": "0x824397",
          "blockTimestamp": "0x684b9670",
          "transactionHash": "0x568a1bb467ba2f1031d77a8109fc2a82e3eb9876f1b4ade2d7f4f488366ae4ee",
          "transactionIndex": "0x81",
          "logIndex": "0xb3",
          "removed": false
        }
      ],
      "logsBloom": "0x00000000000000000000000000000000000080000002000000000000000000000000000000100000000000000000000000000000000000000000000000000000000000000000200000000008000400000000000000000000000000000000000000000000000000000000000000000000000000000000000000000010000000000000000000000000000000000000000000000000000000000010000000000000000000000000000000000000000000000000000000000000000000000000000000000002000000000000000000000000000000000020000000000000000008000000000000000000000000000000000000000000000000000000000000000001",
      "type": "0x2",
      "transactionHash": "0x568a1bb467ba2f1031d77a8109fc2a82e3eb9876f1b4ade2d7f4f488366ae4ee",
      "transactionIndex": "0x81",
      "blockHash": "0xbcbe0633abbe7571c3260a1888c900c4a9cba297e5cbb40f5e1270d68bb8b01f",
      "blockNumber": "0x824397",
      "gasUsed": "0xcbee",
      "effectiveGasPrice": "0xf4254",
      "from": "0xeddbf148d81d58e81c34db54e751d4fc9aedd0a7",
      "to": "0x75841c57ee004474ada7e2d1e6c20b5f8b00e1c1",
      "contractAddress": null
    },
    {
      "status": "0x1",
      "cumulativeGasUsed": "0xaa0f6a",
      "logs": [
        {
          "address": "0x75841c57ee004474ada7e2d1e6c20b5f8b00e1c1",
          "topics": [
            "0xddf252ad1be2c89b69c2b068fc378daa952ba7f163c4a11628f55a4df523b3ef",
            "0x000000000000000000000000eddbf148d81d58e81c34db54e751d4fc9aedd0a7",
            "0x0000000000000000000000008c06679b1e23c4962e8a781495f5de625238c249"
          ],
          "data": "0x00000000000000000000000000000000000000000000021e19e0c9bab2400000",
          "blockHash": "0xbcbe0633abbe7571c3260a1888c900c4a9cba297e5cbb40f5e1270d68bb8b01f",
          "blockNumber": "0x824397",
          "blockTimestamp": "0x684b9670",
          "transactionHash": "0x2a5ee686c85536c4db67cd21b5621e9393363c413714b2a4adc652d204429266",
          "transactionIndex": "0x82",
          "logIndex": "0xb4",
          "removed": false
        }
      ],
      "logsBloom": "0x00000000000000000000080000000000000000000000000000000000000000000000000000100000000000000000000000000000000000000000000000000000000000000000200000000008000400000000000000000000000000000000000000000000000000000000000000000000000000000000000000000010000000000000000000000000000000000000000000000000000000000010000000000000000000000000000000000000000000000000000000000010000000000000000000000002000000000000000000000000000000000020000000000000000000000000010000000000000000000000000000000000000000000000000000000001",
      "type": "0x2",
      "transactionHash": "0x2a5ee686c85536c4db67cd21b5621e9393363c413714b2a4adc652d204429266",
      "transactionIndex": "0x82",
      "blockHash": "0xbcbe0633abbe7571c3260a1888c900c4a9cba297e5cbb40f5e1270d68bb8b01f",
      "blockNumber": "0x824397",
      "gasUsed": "0xcbee",
      "effectiveGasPrice": "0xf4254",
      "from": "0xeddbf148d81d58e81c34db54e751d4fc9aedd0a7",
      "to": "0x75841c57ee004474ada7e2d1e6c20b5f8b00e1c1",
      "contractAddress": null
    },
    {
      "status": "0x1",
      "cumulativeGasUsed": "0xaadb58",
      "logs": [
        {
          "address": "0x75841c57ee004474ada7e2d1e6c20b5f8b00e1c1",
          "topics": [
            "0xddf252ad1be2c89b69c2b068fc378daa952ba7f163c4a11628f55a4df523b3ef",
            "0x000000000000000000000000eddbf148d81d58e81c34db54e751d4fc9aedd0a7",
            "0x00000000000000000000000036aad26065d45ad4b7d67104a6297e8b5835547e"
          ],
          "data": "0x00000000000000000000000000000000000000000000021e19e0c9bab2400000",
          "blockHash": "0xbcbe0633abbe7571c3260a1888c900c4a9cba297e5cbb40f5e1270d68bb8b01f",
          "blockNumber": "0x824397",
          "blockTimestamp": "0x684b9670",
          "transactionHash": "0xa3800762859e6122dfa55e6cd27eddc2fa0e259bd2866125f4a92a3a754de34a",
          "transactionIndex": "0x83",
          "logIndex": "0xb5",
          "removed": false
        }
      ],
      "logsBloom": "0x00000000000000000040000000000000000000000000000000000000000000000000080000100000000000000000000000000000000000000000000000000000000000000000200000000008000400000000000000000000000000000000000000000000000000000000000000000000000000000000000000000010000000000000000000000000000000000000000000000000000000000010000000000000000000000000000000000000000000200000000000000000000000000000000000000002000000000000000000000000000000000020000000000000000000000000000000000000000000000000000000000000000000000000000000000001",
      "type": "0x2",
      "transactionHash": "0xa3800762859e6122dfa55e6cd27eddc2fa0e259bd2866125f4a92a3a754de34a",
      "transactionIndex": "0x83",
      "blockHash": "0xbcbe0633abbe7571c3260a1888c900c4a9cba297e5cbb40f5e1270d68bb8b01f",
      "blockNumber": "0x824397",
      "gasUsed": "0xcbee",
      "effectiveGasPrice": "0xf4254",
      "from": "0xeddbf148d81d58e81c34db54e751d4fc9aedd0a7",
      "to": "0x75841c57ee004474ada7e2d1e6c20b5f8b00e1c1",
      "contractAddress": null
    },
    {
      "status": "0x1",
      "cumulativeGasUsed": "0xaba746",
      "logs": [
        {
          "address": "0x16e7fc1922c8baf21e5176276273885e6dabff09",
          "topics": [
            "0xddf252ad1be2c89b69c2b068fc378daa952ba7f163c4a11628f55a4df523b3ef",
            "0x000000000000000000000000eddbf148d81d58e81c34db54e751d4fc9aedd0a7",
            "0x00000000000000000000000099d529952a3885c07178c747a5aba93f03749bc9"
          ],
          "data": "0x00000000000000000000000000000000000000000000021e19e0c9bab2400000",
          "blockHash": "0xbcbe0633abbe7571c3260a1888c900c4a9cba297e5cbb40f5e1270d68bb8b01f",
          "blockNumber": "0x824397",
          "blockTimestamp": "0x684b9670",
          "transactionHash": "0x411c7456b61dab43beddf2fe6b0ea40036da46e63269d2409fee8ef9630b1b6e",
          "transactionIndex": "0x84",
          "logIndex": "0xb6",
          "removed": false
        }
      ],
      "logsBloom": "0x00000000000000000000000000000000000080000002020000000000000000000000000000100004000000000000000000000000000000000000000000000000000000000000000000000008000400000000000000000000000000000000000000000000000000000000000000000000000000000000000000000010000000000000000000000000000000000000000000000000000000000000000000000000000000000000000000000000000000000000000000000000000000000000000000000002000000000000000000000000000000000000000000000000000008000000000000200000000000000000000000000000000000000000000000000001",
      "type": "0x2",
      "transactionHash": "0x411c7456b61dab43beddf2fe6b0ea40036da46e63269d2409fee8ef9630b1b6e",
      "transactionIndex": "0x84",
      "blockHash": "0xbcbe0633abbe7571c3260a1888c900c4a9cba297e5cbb40f5e1270d68bb8b01f",
      "blockNumber": "0x824397",
      "gasUsed": "0xcbee",
      "effectiveGasPrice": "0xf4254",
      "from": "0xeddbf148d81d58e81c34db54e751d4fc9aedd0a7",
      "to": "0x16e7fc1922c8baf21e5176276273885e6dabff09",
      "contractAddress": null
    },
    {
      "status": "0x1",
      "cumulativeGasUsed": "0xac7334",
      "logs": [
        {
          "address": "0x16e7fc1922c8baf21e5176276273885e6dabff09",
          "topics": [
            "0xddf252ad1be2c89b69c2b068fc378daa952ba7f163c4a11628f55a4df523b3ef",
            "0x000000000000000000000000eddbf148d81d58e81c34db54e751d4fc9aedd0a7",
            "0x0000000000000000000000008c06679b1e23c4962e8a781495f5de625238c249"
          ],
          "data": "0x00000000000000000000000000000000000000000000021e19e0c9bab2400000",
          "blockHash": "0xbcbe0633abbe7571c3260a1888c900c4a9cba297e5cbb40f5e1270d68bb8b01f",
          "blockNumber": "0x824397",
          "blockTimestamp": "0x684b9670",
          "transactionHash": "0xa2935c0b80dfb412af41dc958cc4e9106bb77f8def41a1c4adaf95208d9f8033",
          "transactionIndex": "0x85",
          "logIndex": "0xb7",
          "removed": false
        }
      ],
      "logsBloom": "0x00000000000000000000080000000000000000000000020000000000000000000000000000100004000000000000000000000000000000000000000000000000000000000000000000000008000400000000000000000000000000000000000000000000000000000000000000000000000000000000000000000010000000000000000000000000000000000000000000000000000000000000000000000000000000000000000000000000000000000000000000000010000000000000000000000002000000000000000000000000000000000000000000000000000000000000010000200000000000000000000000000000000000000000000000000001",
      "type": "0x2",
      "transactionHash": "0xa2935c0b80dfb412af41dc958cc4e9106bb77f8def41a1c4adaf95208d9f8033",
      "transactionIndex": "0x85",
      "blockHash": "0xbcbe0633abbe7571c3260a1888c900c4a9cba297e5cbb40f5e1270d68bb8b01f",
      "blockNumber": "0x824397",
      "gasUsed": "0xcbee",
      "effectiveGasPrice": "0xf4254",
      "from": "0xeddbf148d81d58e81c34db54e751d4fc9aedd0a7",
      "to": "0x16e7fc1922c8baf21e5176276273885e6dabff09",
      "contractAddress": null
    },
    {
      "status": "0x1",
      "cumulativeGasUsed": "0xad3f22",
      "logs": [
        {
          "address": "0x16e7fc1922c8baf21e5176276273885e6dabff09",
          "topics": [
            "0xddf252ad1be2c89b69c2b068fc378daa952ba7f163c4a11628f55a4df523b3ef",
            "0x000000000000000000000000eddbf148d81d58e81c34db54e751d4fc9aedd0a7",
            "0x00000000000000000000000036aad26065d45ad4b7d67104a6297e8b5835547e"
          ],
          "data": "0x00000000000000000000000000000000000000000000021e19e0c9bab2400000",
          "blockHash": "0xbcbe0633abbe7571c3260a1888c900c4a9cba297e5cbb40f5e1270d68bb8b01f",
          "blockNumber": "0x824397",
          "blockTimestamp": "0x684b9670",
          "transactionHash": "0x89507920b8f4a055ffee058deb696dfd3ca5796f058afdc7b7fdf71e61083167",
          "transactionIndex": "0x86",
          "logIndex": "0xb8",
          "removed": false
        }
      ],
      "logsBloom": "0x00000000000000000040000000000000000000000000020000000000000000000000080000100004000000000000000000000000000000000000000000000000000000000000000000000008000400000000000000000000000000000000000000000000000000000000000000000000000000000000000000000010000000000000000000000000000000000000000000000000000000000000000000000000000000000000000000000000000000200000000000000000000000000000000000000002000000000000000000000000000000000000000000000000000000000000000000200000000000000000000000000000000000000000000000000001",
      "type": "0x2",
      "transactionHash": "0x89507920b8f4a055ffee058deb696dfd3ca5796f058afdc7b7fdf71e61083167",
      "transactionIndex": "0x86",
      "blockHash": "0xbcbe0633abbe7571c3260a1888c900c4a9cba297e5cbb40f5e1270d68bb8b01f",
      "blockNumber": "0x824397",
      "gasUsed": "0xcbee",
      "effectiveGasPrice": "0xf4254",
      "from": "0xeddbf148d81d58e81c34db54e751d4fc9aedd0a7",
      "to": "0x16e7fc1922c8baf21e5176276273885e6dabff09",
      "contractAddress": null
    },
    {
      "status": "0x1",
      "cumulativeGasUsed": "0xae0b10",
      "logs": [
        {
          "address": "0xe17a3c8fbe4519d4d5347082f77589ea23336a9c",
          "topics": [
            "0xddf252ad1be2c89b69c2b068fc378daa952ba7f163c4a11628f55a4df523b3ef",
            "0x000000000000000000000000eddbf148d81d58e81c34db54e751d4fc9aedd0a7",
            "0x00000000000000000000000099d529952a3885c07178c747a5aba93f03749bc9"
          ],
          "data": "0x00000000000000000000000000000000000000000000021e19e0c9bab2400000",
          "blockHash": "0xbcbe0633abbe7571c3260a1888c900c4a9cba297e5cbb40f5e1270d68bb8b01f",
          "blockNumber": "0x824397",
          "blockTimestamp": "0x684b9670",
          "transactionHash": "0x93c1d45d004b8a91172df5f8092eec2af1bb1456ce3c372fabfb7e5ca5662ea8",
          "transactionIndex": "0x87",
          "logIndex": "0xb9",
          "removed": false
        }
      ],
      "logsBloom": "0x00000000000000000000000000000000000080000002000000000000000000000000000000100000000000000000000000000000000000000000000000000000000000000000000000000008000400000000000000000008000000000000000000000000000000000000000000000000000000000000000000000010000000000000000000000000000001000000000000000000000000000000000000000000000000000000000000000000000000000000000000000000000000000000000000000002000000000000000000000000000000010000000000000000000008000000000000000000000000000000000000000000000000000000000000000001",
      "type": "0x2",
      "transactionHash": "0x93c1d45d004b8a91172df5f8092eec2af1bb1456ce3c372fabfb7e5ca5662ea8",
      "transactionIndex": "0x87",
      "blockHash": "0xbcbe0633abbe7571c3260a1888c900c4a9cba297e5cbb40f5e1270d68bb8b01f",
      "blockNumber": "0x824397",
      "gasUsed": "0xcbee",
      "effectiveGasPrice": "0xf4254",
      "from": "0xeddbf148d81d58e81c34db54e751d4fc9aedd0a7",
      "to": "0xe17a3c8fbe4519d4d5347082f77589ea23336a9c",
      "contractAddress": null
    },
    {
      "status": "0x1",
      "cumulativeGasUsed": "0xaed6fe",
      "logs": [
        {
          "address": "0xe17a3c8fbe4519d4d5347082f77589ea23336a9c",
          "topics": [
            "0xddf252ad1be2c89b69c2b068fc378daa952ba7f163c4a11628f55a4df523b3ef",
            "0x000000000000000000000000eddbf148d81d58e81c34db54e751d4fc9aedd0a7",
            "0x0000000000000000000000008c06679b1e23c4962e8a781495f5de625238c249"
          ],
          "data": "0x00000000000000000000000000000000000000000000021e19e0c9bab2400000",
          "blockHash": "0xbcbe0633abbe7571c3260a1888c900c4a9cba297e5cbb40f5e1270d68bb8b01f",
          "blockNumber": "0x824397",
          "blockTimestamp": "0x684b9670",
          "transactionHash": "0xf7fa4d6145ee6dca0b11dfbd0b669ceb3b2d99c2e98288dbcb0278fb88fec4b7",
          "transactionIndex": "0x88",
          "logIndex": "0xba",
          "removed": false
        }
      ],
      "logsBloom": "0x00000000000000000000080000000000000000000000000000000000000000000000000000100000000000000000000000000000000000000000000000000000000000000000000000000008000400000000000000000008000000000000000000000000000000000000000000000000000000000000000000000010000000000000000000000000000001000000000000000000000000000000000000000000000000000000000000000000000000000000000000000010000000000000000000000002000000000000000000000000000000010000000000000000000000000000010000000000000000000000000000000000000000000000000000000001",
      "type": "0x2",
      "transactionHash": "0xf7fa4d6145ee6dca0b11dfbd0b669ceb3b2d99c2e98288dbcb0278fb88fec4b7",
      "transactionIndex": "0x88",
      "blockHash": "0xbcbe0633abbe7571c3260a1888c900c4a9cba297e5cbb40f5e1270d68bb8b01f",
      "blockNumber": "0x824397",
      "gasUsed": "0xcbee",
      "effectiveGasPrice": "0xf4254",
      "from": "0xeddbf148d81d58e81c34db54e751d4fc9aedd0a7",
      "to": "0xe17a3c8fbe4519d4d5347082f77589ea23336a9c",
      "contractAddress": null
    },
    {
      "status": "0x1",
      "cumulativeGasUsed": "0xb530e2",
      "logs": [
        {
          "address": "0xe17a3c8fbe4519d4d5347082f77589ea23336a9c",
          "topics": [
            "0xddf252ad1be2c89b69c2b068fc378daa952ba7f163c4a11628f55a4df523b3ef",
            "0x000000000000000000000000eddbf148d81d58e81c34db54e751d4fc9aedd0a7",
            "0x00000000000000000000000036aad26065d45ad4b7d67104a6297e8b5835547e"
          ],
          "data": "0x00000000000000000000000000000000000000000000021e19e0c9bab2400000",
          "blockHash": "0xbcbe0633abbe7571c3260a1888c900c4a9cba297e5cbb40f5e1270d68bb8b01f",
          "blockNumber": "0x824397",
          "blockTimestamp": "0x684b9670",
          "transactionHash": "0x22afbf5b153dcdebd964e859e91eb133e6e9be54ece7edb39ea8cd2ed12b5739",
          "transactionIndex": "0x8a",
          "logIndex": "0xcf",
          "removed": false
        }
      ],
      "logsBloom": "0x00000000000000000040000000000000000000000000000000000000000000000000080000100000000000000000000000000000000000000000000000000000000000000000000000000008000400000000000000000008000000000000000000000000000000000000000000000000000000000000000000000010000000000000000000000000000001000000000000000000000000000000000000000000000000000000000000000000000000200000000000000000000000000000000000000002000000000000000000000000000000010000000000000000000000000000000000000000000000000000000000000000000000000000000000000001",
      "type": "0x2",
      "transactionHash": "0x22afbf5b153dcdebd964e859e91eb133e6e9be54ece7edb39ea8cd2ed12b5739",
      "transactionIndex": "0x8a",
      "blockHash": "0xbcbe0633abbe7571c3260a1888c900c4a9cba297e5cbb40f5e1270d68bb8b01f",
      "blockNumber": "0x824397",
      "gasUsed": "0xcbee",
      "effectiveGasPrice": "0xf4254",
      "from": "0xeddbf148d81d58e81c34db54e751d4fc9aedd0a7",
      "to": "0xe17a3c8fbe4519d4d5347082f77589ea23336a9c",
      "contractAddress": null
    }
  ],
  "libraries": [],
  "pending": [],
  "returns": {},
  "timestamp": 1749784178,
  "chain": 11155111,
  "commit": "0612397"
}