{
  "transactions": [
    {
      "hash": "0xfe1f2d040ac2fb1b3cc309d0b2a2fd6789c590d5a35838f5243d27c8f1cab072",
      "transactionType": "CALL",
      "contractName": null,
      "contractAddress": "0xef8fd7e36fa7233c32a953b4c8004c1383f4e49d",
      "function": "transfer(address,uint256)",
      "arguments": [
        "0x99D529952a3885C07178C747a5aBA93F03749BC9",
        "10000000000000000000000"
      ],
      "transaction": {
        "from": "0xeddbf148d81d58e81c34db54e751d4fc9aedd0a7",
        "to": "0xef8fd7e36fa7233c32a953b4c8004c1383f4e49d",
        "gas": "0xc88e",
        "value": "0x0",
        "input": "0xa9059cbb00000000000000000000000099d529952a3885c07178c747a5aba93f03749bc900000000000000000000000000000000000000000000021e19e0c9bab2400000",
        "nonce": "0x30",
        "chainId": "0xaa36a7"
      },
      "additionalContracts": [],
      "isFixedGasLimit": false
    },
    {
      "hash": "0x3ffe3ee36470220945709d90bd58fbdc3c8f295443ff1aa405ec0ed2d553ca79",
      "transactionType": "CALL",
      "contractName": null,
      "contractAddress": "0xef8fd7e36fa7233c32a953b4c8004c1383f4e49d",
      "function": "transfer(address,uint256)",
      "arguments": [
        "0x8c06679B1E23C4962E8A781495f5DE625238C249",
        "10000000000000000000000"
      ],
      "transaction": {
        "from": "0xeddbf148d81d58e81c34db54e751d4fc9aedd0a7",
        "to": "0xef8fd7e36fa7233c32a953b4c8004c1383f4e49d",
        "gas": "0xc88e",
        "value": "0x0",
        "input": "0xa9059cbb0000000000000000000000008c06679b1e23c4962e8a781495f5de625238c24900000000000000000000000000000000000000000000021e19e0c9bab2400000",
        "nonce": "0x31",
        "chainId": "0xaa36a7"
      },
      "additionalContracts": [],
      "isFixedGasLimit": false
    },
    {
      "hash": "0xea6a12dde0c7ea8418ab0ada052f736afe4204a59da6cc6a715d1a64437c6828",
      "transactionType": "CALL",
      "contractName": null,
      "contractAddress": "0xef8fd7e36fa7233c32a953b4c8004c1383f4e49d",
      "function": "transfer(address,uint256)",
      "arguments": [
        "0x36Aad26065d45aD4B7d67104A6297E8B5835547E",
        "10000000000000000000000"
      ],
      "transaction": {
        "from": "0xeddbf148d81d58e81c34db54e751d4fc9aedd0a7",
        "to": "0xef8fd7e36fa7233c32a953b4c8004c1383f4e49d",
        "gas": "0xc88e",
        "value": "0x0",
        "input": "0xa9059cbb00000000000000000000000036aad26065d45ad4b7d67104a6297e8b5835547e00000000000000000000000000000000000000000000021e19e0c9bab2400000",
        "nonce": "0x32",
        "chainId": "0xaa36a7"
      },
      "additionalContracts": [],
      "isFixedGasLimit": false
    },
    {
      "hash": "0xa1dd4b8a76ca320bad637143c8ead28852600ffb8faf445d603eca3ab272ca07",
      "transactionType": "CALL",
      "contractName": null,
      "contractAddress": "0xb65d7beb87f57cc725e5f829d7fd23e2a0a7a59f",
      "function": "transfer(address,uint256)",
      "arguments": [
        "0x99D529952a3885C07178C747a5aBA93F03749BC9",
        "10000000000000000000000"
      ],
      "transaction": {
        "from": "0xeddbf148d81d58e81c34db54e751d4fc9aedd0a7",
        "to": "0xb65d7beb87f57cc725e5f829d7fd23e2a0a7a59f",
        "gas": "0xc88e",
        "value": "0x0",
        "input": "0xa9059cbb00000000000000000000000099d529952a3885c07178c747a5aba93f03749bc900000000000000000000000000000000000000000000021e19e0c9bab2400000",
        "nonce": "0x33",
        "chainId": "0xaa36a7"
      },
      "additionalContracts": [],
      "isFixedGasLimit": false
    },
    {
      "hash": "0xee65b1e126dc831a034b45274a32766861facd8bd8faa49cff871608f92ee3c1",
      "transactionType": "CALL",
      "contractName": null,
      "contractAddress": "0xb65d7beb87f57cc725e5f829d7fd23e2a0a7a59f",
      "function": "transfer(address,uint256)",
      "arguments": [
        "0x8c06679B1E23C4962E8A781495f5DE625238C249",
        "10000000000000000000000"
      ],
      "transaction": {
        "from": "0xeddbf148d81d58e81c34db54e751d4fc9aedd0a7",
        "to": "0xb65d7beb87f57cc725e5f829d7fd23e2a0a7a59f",
        "gas": "0xc88e",
        "value": "0x0",
        "input": "0xa9059cbb0000000000000000000000008c06679b1e23c4962e8a781495f5de625238c24900000000000000000000000000000000000000000000021e19e0c9bab2400000",
        "nonce": "0x34",
        "chainId": "0xaa36a7"
      },
      "additionalContracts": [],
      "isFixedGasLimit": false
    },
    {
      "hash": "0x16e3bbe02e94c04a03855a8278977fa094c396d69416e12c6916a4628f010fcf",
      "transactionType": "CALL",
      "contractName": null,
      "contractAddress": "0xb65d7beb87f57cc725e5f829d7fd23e2a0a7a59f",
      "function": "transfer(address,uint256)",
      "arguments": [
        "0x36Aad26065d45aD4B7d67104A6297E8B5835547E",
        "10000000000000000000000"
      ],
      "transaction": {
        "from": "0xeddbf148d81d58e81c34db54e751d4fc9aedd0a7",
        "to": "0xb65d7beb87f57cc725e5f829d7fd23e2a0a7a59f",
        "gas": "0xc88e",
        "value": "0x0",
        "input": "0xa9059cbb00000000000000000000000036aad26065d45ad4b7d67104a6297e8b5835547e00000000000000000000000000000000000000000000021e19e0c9bab2400000",
        "nonce": "0x35",
        "chainId": "0xaa36a7"
      },
      "additionalContracts": [],
      "isFixedGasLimit": false
    },
    {
      "hash": "0x34d4653356218643de06c0a66ace52097f01b5c0f56c0d4b1ce780302e777c39",
      "transactionType": "CALL",
      "contractName": null,
      "contractAddress": "0x75841c57ee004474ada7e2d1e6c20b5f8b00e1c1",
      "function": "transfer(address,uint256)",
      "arguments": [
        "0x99D529952a3885C07178C747a5aBA93F03749BC9",
        "10000000000000000000000"
      ],
      "transaction": {
        "from": "0xeddbf148d81d58e81c34db54e751d4fc9aedd0a7",
        "to": "0x75841c57ee004474ada7e2d1e6c20b5f8b00e1c1",
        "gas": "0xc88e",
        "value": "0x0",
        "input": "0xa9059cbb00000000000000000000000099d529952a3885c07178c747a5aba93f03749bc900000000000000000000000000000000000000000000021e19e0c9bab2400000",
        "nonce": "0x36",
        "chainId": "0xaa36a7"
      },
      "additionalContracts": [],
      "isFixedGasLimit": false
    },
    {
      "hash": "0x3536d38721c16e340a07f9d2706cfc601b61db988e537fcc03490f0474cdceb1",
      "transactionType": "CALL",
      "contractName": null,
      "contractAddress": "0x75841c57ee004474ada7e2d1e6c20b5f8b00e1c1",
      "function": "transfer(address,uint256)",
      "arguments": [
        "0x8c06679B1E23C4962E8A781495f5DE625238C249",
        "10000000000000000000000"
      ],
      "transaction": {
        "from": "0xeddbf148d81d58e81c34db54e751d4fc9aedd0a7",
        "to": "0x75841c57ee004474ada7e2d1e6c20b5f8b00e1c1",
        "gas": "0xc88e",
        "value": "0x0",
        "input": "0xa9059cbb0000000000000000000000008c06679b1e23c4962e8a781495f5de625238c24900000000000000000000000000000000000000000000021e19e0c9bab2400000",
        "nonce": "0x37",
        "chainId": "0xaa36a7"
      },
      "additionalContracts": [],
      "isFixedGasLimit": false
    },
    {
      "hash": "0x8efdc443e634b4e5e8fb3e4f2422e2a54469a974380d4f4e23f01aaa2eea6466",
      "transactionType": "CALL",
      "contractName": null,
      "contractAddress": "0x75841c57ee004474ada7e2d1e6c20b5f8b00e1c1",
      "function": "transfer(address,uint256)",
      "arguments": [
        "0x36Aad26065d45aD4B7d67104A6297E8B5835547E",
        "10000000000000000000000"
      ],
      "transaction": {
        "from": "0xeddbf148d81d58e81c34db54e751d4fc9aedd0a7",
        "to": "0x75841c57ee004474ada7e2d1e6c20b5f8b00e1c1",
        "gas": "0xc88e",
        "value": "0x0",
        "input": "0xa9059cbb00000000000000000000000036aad26065d45ad4b7d67104a6297e8b5835547e00000000000000000000000000000000000000000000021e19e0c9bab2400000",
        "nonce": "0x38",
        "chainId": "0xaa36a7"
      },
      "additionalContracts": [],
      "isFixedGasLimit": false
    },
    {
      "hash": "0xd2990f7ab48f691ba6b73e8aa36d381be85be23f40c35baf7c1bd57dc5a9c2b1",
      "transactionType": "CALL",
      "contractName": null,
      "contractAddress": "0x16e7fc1922c8baf21e5176276273885e6dabff09",
      "function": "transfer(address,uint256)",
      "arguments": [
        "0x99D529952a3885C07178C747a5aBA93F03749BC9",
        "10000000000000000000000"
      ],
      "transaction": {
        "from": "0xeddbf148d81d58e81c34db54e751d4fc9aedd0a7",
        "to": "0x16e7fc1922c8baf21e5176276273885e6dabff09",
        "gas": "0xc88e",
        "value": "0x0",
        "input": "0xa9059cbb00000000000000000000000099d529952a3885c07178c747a5aba93f03749bc900000000000000000000000000000000000000000000021e19e0c9bab2400000",
        "nonce": "0x39",
        "chainId": "0xaa36a7"
      },
      "additionalContracts": [],
      "isFixedGasLimit": false
    },
    {
      "hash": "0x9c1f00aa2572e184280b0104ce99daefcca3eb5d27acab6291ef1f2177d82455",
      "transactionType": "CALL",
      "contractName": null,
      "contractAddress": "0x16e7fc1922c8baf21e5176276273885e6dabff09",
      "function": "transfer(address,uint256)",
      "arguments": [
        "0x8c06679B1E23C4962E8A781495f5DE625238C249",
        "10000000000000000000000"
      ],
      "transaction": {
        "from": "0xeddbf148d81d58e81c34db54e751d4fc9aedd0a7",
        "to": "0x16e7fc1922c8baf21e5176276273885e6dabff09",
        "gas": "0xc88e",
        "value": "0x0",
        "input": "0xa9059cbb0000000000000000000000008c06679b1e23c4962e8a781495f5de625238c24900000000000000000000000000000000000000000000021e19e0c9bab2400000",
        "nonce": "0x3a",
        "chainId": "0xaa36a7"
      },
      "additionalContracts": [],
      "isFixedGasLimit": false
    },
    {
      "hash": "0x8bc01bfc3108a482ed81fe80ea8beef6d6014786be895c05a4ba8224ff744c79",
      "transactionType": "CALL",
      "contractName": null,
      "contractAddress": "0x16e7fc1922c8baf21e5176276273885e6dabff09",
      "function": "transfer(address,uint256)",
      "arguments": [
        "0x36Aad26065d45aD4B7d67104A6297E8B5835547E",
        "10000000000000000000000"
      ],
      "transaction": {
        "from": "0xeddbf148d81d58e81c34db54e751d4fc9aedd0a7",
        "to": "0x16e7fc1922c8baf21e5176276273885e6dabff09",
        "gas": "0xc88e",
        "value": "0x0",
        "input": "0xa9059cbb00000000000000000000000036aad26065d45ad4b7d67104a6297e8b5835547e00000000000000000000000000000000000000000000021e19e0c9bab2400000",
        "nonce": "0x3b",
        "chainId": "0xaa36a7"
      },
      "additionalContracts": [],
      "isFixedGasLimit": false
    },
    {
      "hash": "0xaf409665a0ca8158c3d3286efa35c99aadac90dfd07c311a9a6b2839d59354fa",
      "transactionType": "CALL",
      "contractName": null,
      "contractAddress": "0xe17a3c8fbe4519d4d5347082f77589ea23336a9c",
      "function": "transfer(address,uint256)",
      "arguments": [
        "0x99D529952a3885C07178C747a5aBA93F03749BC9",
        "10000000000000000000000"
      ],
      "transaction": {
        "from": "0xeddbf148d81d58e81c34db54e751d4fc9aedd0a7",
        "to": "0xe17a3c8fbe4519d4d5347082f77589ea23336a9c",
        "gas": "0xc88e",
        "value": "0x0",
        "input": "0xa9059cbb00000000000000000000000099d529952a3885c07178c747a5aba93f03749bc900000000000000000000000000000000000000000000021e19e0c9bab2400000",
        "nonce": "0x3c",
        "chainId": "0xaa36a7"
      },
      "additionalContracts": [],
      "isFixedGasLimit": false
    },
    {
      "hash": "0x2d3a0c7b89aba94db1a5049c66b592cfe44939640775557fb8eb2c8902dca1e8",
      "transactionType": "CALL",
      "contractName": null,
      "contractAddress": "0xe17a3c8fbe4519d4d5347082f77589ea23336a9c",
      "function": "transfer(address,uint256)",
      "arguments": [
        "0x8c06679B1E23C4962E8A781495f5DE625238C249",
        "10000000000000000000000"
      ],
      "transaction": {
        "from": "0xeddbf148d81d58e81c34db54e751d4fc9aedd0a7",
        "to": "0xe17a3c8fbe4519d4d5347082f77589ea23336a9c",
        "gas": "0xc88e",
        "value": "0x0",
        "input": "0xa9059cbb0000000000000000000000008c06679b1e23c4962e8a781495f5de625238c24900000000000000000000000000000000000000000000021e19e0c9bab2400000",
        "nonce": "0x3d",
        "chainId": "0xaa36a7"
      },
      "additionalContracts": [],
      "isFixedGasLimit": false
    },
    {
      "hash": "0x98295329f7400d03bf0a38f3bc9556f8b147d435f753530bb971d85354880e71",
      "transactionType": "CALL",
      "contractName": null,
      "contractAddress": "0xe17a3c8fbe4519d4d5347082f77589ea23336a9c",
      "function": "transfer(address,uint256)",
      "arguments": [
        "0x36Aad26065d45aD4B7d67104A6297E8B5835547E",
        "10000000000000000000000"
      ],
      "transaction": {
        "from": "0xeddbf148d81d58e81c34db54e751d4fc9aedd0a7",
        "to": "0xe17a3c8fbe4519d4d5347082f77589ea23336a9c",
        "gas": "0xc88e",
        "value": "0x0",
        "input": "0xa9059cbb00000000000000000000000036aad26065d45ad4b7d67104a6297e8b5835547e00000000000000000000000000000000000000000000021e19e0c9bab2400000",
        "nonce": "0x3e",
        "chainId": "0xaa36a7"
      },
      "additionalContracts": [],
      "isFixedGasLimit": false
    }
  ],
  "receipts": [
    {
      "status": "0x1",
      "cumulativeGasUsed": "0x313b2f8",
      "logs": [
        {
          "address": "0xef8fd7e36fa7233c32a953b4c8004c1383f4e49d",
          "topics": [
            "0xddf252ad1be2c89b69c2b068fc378daa952ba7f163c4a11628f55a4df523b3ef",
            "0x000000000000000000000000eddbf148d81d58e81c34db54e751d4fc9aedd0a7",
            "0x00000000000000000000000099d529952a3885c07178c747a5aba93f03749bc9"
          ],
          "data": "0x00000000000000000000000000000000000000000000021e19e0c9bab2400000",
          "blockHash": "0xaaab1ecaac3e82012315eebec507c76beee8fcc88fa897baadcaed0a4a229749",
          "blockNumber": "0x830d54",
          "blockTimestamp": "0x68551344",
          "transactionHash": "0xfe1f2d040ac2fb1b3cc309d0b2a2fd6789c590d5a35838f5243d27c8f1cab072",
          "transactionIndex": "0x45",
          "logIndex": "0x295",
          "removed": false
        }
      ],
      "logsBloom": "0x00000000000040000000000000000000000080000002000000000000000000000000000000100000000000000000000000000000000000000000000000000000000000000000000000000008000400000020000000000000000000000000000000000000000000000000000000000000000000000000000000000010000000000000000000000000000000000000000000000000000000000002000000000000000000000000000000000000000000000000000000000000000000000000000000000002000000000000000000000000000000000000000000000000000008000000000000000000000000000000000000000000000000000000000000000001",
      "type": "0x2",
      "transactionHash": "0xfe1f2d040ac2fb1b3cc309d0b2a2fd6789c590d5a35838f5243d27c8f1cab072",
      "transactionIndex": "0x45",
      "blockHash": "0xaaab1ecaac3e82012315eebec507c76beee8fcc88fa897baadcaed0a4a229749",
      "blockNumber": "0x830d54",
      "gasUsed": "0x8922",
      "effectiveGasPrice": "0x710407",
      "from": "0xeddbf148d81d58e81c34db54e751d4fc9aedd0a7",
      "to": "0xef8fd7e36fa7233c32a953b4c8004c1383f4e49d",
      "contractAddress": null
    },
    {
      "status": "0x1",
      "cumulativeGasUsed": "0x3143c1a",
      "logs": [
        {
          "address": "0xef8fd7e36fa7233c32a953b4c8004c1383f4e49d",
          "topics": [
            "0xddf252ad1be2c89b69c2b068fc378daa952ba7f163c4a11628f55a4df523b3ef",
            "0x000000000000000000000000eddbf148d81d58e81c34db54e751d4fc9aedd0a7",
            "0x0000000000000000000000008c06679b1e23c4962e8a781495f5de625238c249"
          ],
          "data": "0x00000000000000000000000000000000000000000000021e19e0c9bab2400000",
          "blockHash": "0xaaab1ecaac3e82012315eebec507c76beee8fcc88fa897baadcaed0a4a229749",
          "blockNumber": "0x830d54",
          "blockTimestamp": "0x68551344",
          "transactionHash": "0x3ffe3ee36470220945709d90bd58fbdc3c8f295443ff1aa405ec0ed2d553ca79",
          "transactionIndex": "0x46",
          "logIndex": "0x296",
          "removed": false
        }
      ],
      "logsBloom": "0x00000000000040000000080000000000000000000000000000000000000000000000000000100000000000000000000000000000000000000000000000000000000000000000000000000008000400000020000000000000000000000000000000000000000000000000000000000000000000000000000000000010000000000000000000000000000000000000000000000000000000000002000000000000000000000000000000000000000000000000000000000010000000000000000000000002000000000000000000000000000000000000000000000000000000000000010000000000000000000000000000000000000000000000000000000001",
      "type": "0x2",
      "transactionHash": "0x3ffe3ee36470220945709d90bd58fbdc3c8f295443ff1aa405ec0ed2d553ca79",
      "transactionIndex": "0x46",
      "blockHash": "0xaaab1ecaac3e82012315eebec507c76beee8fcc88fa897baadcaed0a4a229749",
      "blockNumber": "0x830d54",
      "gasUsed": "0x8922",
      "effectiveGasPrice": "0x710407",
      "from": "0xeddbf148d81d58e81c34db54e751d4fc9aedd0a7",
      "to": "0xef8fd7e36fa7233c32a953b4c8004c1383f4e49d",
      "contractAddress": null
    },
    {
      "status": "0x1",
      "cumulativeGasUsed": "0x314c53c",
      "logs": [
        {
          "address": "0xef8fd7e36fa7233c32a953b4c8004c1383f4e49d",
          "topics": [
            "0xddf252ad1be2c89b69c2b068fc378daa952ba7f163c4a11628f55a4df523b3ef",
            "0x000000000000000000000000eddbf148d81d58e81c34db54e751d4fc9aedd0a7",
            "0x00000000000000000000000036aad26065d45ad4b7d67104a6297e8b5835547e"
          ],
          "data": "0x00000000000000000000000000000000000000000000021e19e0c9bab2400000",
          "blockHash": "0xaaab1ecaac3e82012315eebec507c76beee8fcc88fa897baadcaed0a4a229749",
          "blockNumber": "0x830d54",
          "blockTimestamp": "0x68551344",
          "transactionHash": "0xea6a12dde0c7ea8418ab0ada052f736afe4204a59da6cc6a715d1a64437c6828",
          "transactionIndex": "0x47",
          "logIndex": "0x297",
          "removed": false
        }
      ],
      "logsBloom": "0x00000000000040000040000000000000000000000000000000000000000000000000080000100000000000000000000000000000000000000000000000000000000000000000000000000008000400000020000000000000000000000000000000000000000000000000000000000000000000000000000000000010000000000000000000000000000000000000000000000000000000000002000000000000000000000000000000000000000000200000000000000000000000000000000000000002000000000000000000000000000000000000000000000000000000000000000000000000000000000000000000000000000000000000000000000001",
      "type": "0x2",
      "transactionHash": "0xea6a12dde0c7ea8418ab0ada052f736afe4204a59da6cc6a715d1a64437c6828",
      "transactionIndex": "0x47",
      "blockHash": "0xaaab1ecaac3e82012315eebec507c76beee8fcc88fa897baadcaed0a4a229749",
      "blockNumber": "0x830d54",
      "gasUsed": "0x8922",
      "effectiveGasPrice": "0x710407",
      "from": "0xeddbf148d81d58e81c34db54e751d4fc9aedd0a7",
      "to": "0xef8fd7e36fa7233c32a953b4c8004c1383f4e49d",
      "contractAddress": null
    },
    {
      "status": "0x1",
      "cumulativeGasUsed": "0x3154e5e",
      "logs": [
        {
          "address": "0xb65d7beb87f57cc725e5f829d7fd23e2a0a7a59f",
          "topics": [
            "0xddf252ad1be2c89b69c2b068fc378daa952ba7f163c4a11628f55a4df523b3ef",
            "0x000000000000000000000000eddbf148d81d58e81c34db54e751d4fc9aedd0a7",
            "0x00000000000000000000000099d529952a3885c07178c747a5aba93f03749bc9"
          ],
          "data": "0x00000000000000000000000000000000000000000000021e19e0c9bab2400000",
          "blockHash": "0xaaab1ecaac3e82012315eebec507c76beee8fcc88fa897baadcaed0a4a229749",
          "blockNumber": "0x830d54",
          "blockTimestamp": "0x68551344",
          "transactionHash": "0xa1dd4b8a76ca320bad637143c8ead28852600ffb8faf445d603eca3ab272ca07",
          "transactionIndex": "0x48",
          "logIndex": "0x298",
          "removed": false
        }
      ],
      "logsBloom": "0x00000000000000000000000000000000000080000002000000000000000000000000000000100000000000000000000000000000000000000000000000000000000000000000000000000008000400000000000000000000000000000000000000000000000000000000000000000000000000000000004000000010000000000000000000000000000000000000000000000000000000000000000000000000000000000000000200000000020000000000000000000000000000000000000000000002000000000000000000000000000000000000000000000000000008000000000000000000000000000000000000000000000000000000000000000001",
      "type": "0x2",
      "transactionHash": "0xa1dd4b8a76ca320bad637143c8ead28852600ffb8faf445d603eca3ab272ca07",
      "transactionIndex": "0x48",
      "blockHash": "0xaaab1ecaac3e82012315eebec507c76beee8fcc88fa897baadcaed0a4a229749",
      "blockNumber": "0x830d54",
      "gasUsed": "0x8922",
      "effectiveGasPrice": "0x710407",
      "from": "0xeddbf148d81d58e81c34db54e751d4fc9aedd0a7",
      "to": "0xb65d7beb87f57cc725e5f829d7fd23e2a0a7a59f",
      "contractAddress": null
    },
    {
      "status": "0x1",
      "cumulativeGasUsed": "0x3232fd4",
      "logs": [
        {
          "address": "0xb65d7beb87f57cc725e5f829d7fd23e2a0a7a59f",
          "topics": [
            "0xddf252ad1be2c89b69c2b068fc378daa952ba7f163c4a11628f55a4df523b3ef",
            "0x000000000000000000000000eddbf148d81d58e81c34db54e751d4fc9aedd0a7",
            "0x0000000000000000000000008c06679b1e23c4962e8a781495f5de625238c249"
          ],
          "data": "0x00000000000000000000000000000000000000000000021e19e0c9bab2400000",
          "blockHash": "0x61d2300cdf2135a289f5c73cc2702cad1544e2f330c0d48032e868b75e5a5ffc",
          "blockNumber": "0x830d55",
          "blockTimestamp": "0x68551350",
          "transactionHash": "0xee65b1e126dc831a034b45274a32766861facd8bd8faa49cff871608f92ee3c1",
          "transactionIndex": "0x4c",
          "logIndex": "0x2a0",
          "removed": false
        }
      ],
      "logsBloom": "0x00000000000000000000080000000000000000000000000000000000000000000000000000100000000000000000000000000000000000000000000000000000000000000000000000000008000400000000000000000000000000000000000000000000000000000000000000000000000000000000004000000010000000000000000000000000000000000000000000000000000000000000000000000000000000000000000200000000020000000000000000000010000000000000000000000002000000000000000000000000000000000000000000000000000000000000010000000000000000000000000000000000000000000000000000000001",
      "type": "0x2",
      "transactionHash": "0xee65b1e126dc831a034b45274a32766861facd8bd8faa49cff871608f92ee3c1",
      "transactionIndex": "0x4c",
      "blockHash": "0x61d2300cdf2135a289f5c73cc2702cad1544e2f330c0d48032e868b75e5a5ffc",
      "blockNumber": "0x830d55",
      "gasUsed": "0x8922",
      "effectiveGasPrice": "0x7bb49b",
      "from": "0xeddbf148d81d58e81c34db54e751d4fc9aedd0a7",
      "to": "0xb65d7beb87f57cc725e5f829d7fd23e2a0a7a59f",
      "contractAddress": null
    },
    {
      "status": "0x1",
      "cumulativeGasUsed": "0x323b8f6",
      "logs": [
        {
          "address": "0xb65d7beb87f57cc725e5f829d7fd23e2a0a7a59f",
          "topics": [
            "0xddf252ad1be2c89b69c2b068fc378daa952ba7f163c4a11628f55a4df523b3ef",
            "0x000000000000000000000000eddbf148d81d58e81c34db54e751d4fc9aedd0a7",
            "0x00000000000000000000000036aad26065d45ad4b7d67104a6297e8b5835547e"
          ],
          "data": "0x00000000000000000000000000000000000000000000021e19e0c9bab2400000",
          "blockHash": "0x61d2300cdf2135a289f5c73cc2702cad1544e2f330c0d48032e868b75e5a5ffc",
          "blockNumber": "0x830d55",
          "blockTimestamp": "0x68551350",
          "transactionHash": "0x16e3bbe02e94c04a03855a8278977fa094c396d69416e12c6916a4628f010fcf",
          "transactionIndex": "0x4d",
          "logIndex": "0x2a1",
          "removed": false
        }
      ],
      "logsBloom": "0x00000000000000000040000000000000000000000000000000000000000000000000080000100000000000000000000000000000000000000000000000000000000000000000000000000008000400000000000000000000000000000000000000000000000000000000000000000000000000000000004000000010000000000000000000000000000000000000000000000000000000000000000000000000000000000000000200000000020000200000000000000000000000000000000000000002000000000000000000000000000000000000000000000000000000000000000000000000000000000000000000000000000000000000000000000001",
      "type": "0x2",
      "transactionHash": "0x16e3bbe02e94c04a03855a8278977fa094c396d69416e12c6916a4628f010fcf",
      "transactionIndex": "0x4d",
      "blockHash": "0x61d2300cdf2135a289f5c73cc2702cad1544e2f330c0d48032e868b75e5a5ffc",
      "blockNumber": "0x830d55",
      "gasUsed": "0x8922",
      "effectiveGasPrice": "0x7bb49b",
      "from": "0xeddbf148d81d58e81c34db54e751d4fc9aedd0a7",
      "to": "0xb65d7beb87f57cc725e5f829d7fd23e2a0a7a59f",
      "contractAddress": null
    },
    {
      "status": "0x1",
      "cumulativeGasUsed": "0x3244218",
      "logs": [
        {
          "address": "0x75841c57ee004474ada7e2d1e6c20b5f8b00e1c1",
          "topics": [
            "0xddf252ad1be2c89b69c2b068fc378daa952ba7f163c4a11628f55a4df523b3ef",
            "0x000000000000000000000000eddbf148d81d58e81c34db54e751d4fc9aedd0a7",
            "0x00000000000000000000000099d529952a3885c07178c747a5aba93f03749bc9"
          ],
          "data": "0x00000000000000000000000000000000000000000000021e19e0c9bab2400000",
          "blockHash": "0x61d2300cdf2135a289f5c73cc2702cad1544e2f330c0d48032e868b75e5a5ffc",
          "blockNumber": "0x830d55",
          "blockTimestamp": "0x68551350",
          "transactionHash": "0x34d4653356218643de06c0a66ace52097f01b5c0f56c0d4b1ce780302e777c39",
          "transactionIndex": "0x4e",
          "logIndex": "0x2a2",
          "removed": false
        }
      ],
      "logsBloom": "0x00000000000000000000000000000000000080000002000000000000000000000000000000100000000000000000000000000000000000000000000000000000000000000000200000000008000400000000000000000000000000000000000000000000000000000000000000000000000000000000000000000010000000000000000000000000000000000000000000000000000000000010000000000000000000000000000000000000000000000000000000000000000000000000000000000002000000000000000000000000000000000020000000000000000008000000000000000000000000000000000000000000000000000000000000000001",
      "type": "0x2",
      "transactionHash": "0x34d4653356218643de06c0a66ace52097f01b5c0f56c0d4b1ce780302e777c39",
      "transactionIndex": "0x4e",
      "blockHash": "0x61d2300cdf2135a289f5c73cc2702cad1544e2f330c0d48032e868b75e5a5ffc",
      "blockNumber": "0x830d55",
      "gasUsed": "0x8922",
      "effectiveGasPrice": "0x7bb49b",
      "from": "0xeddbf148d81d58e81c34db54e751d4fc9aedd0a7",
      "to": "0x75841c57ee004474ada7e2d1e6c20b5f8b00e1c1",
      "contractAddress": null
    },
    {
      "status": "0x1",
      "cumulativeGasUsed": "0x324cb3a",
      "logs": [
        {
          "address": "0x75841c57ee004474ada7e2d1e6c20b5f8b00e1c1",
          "topics": [
            "0xddf252ad1be2c89b69c2b068fc378daa952ba7f163c4a11628f55a4df523b3ef",
            "0x000000000000000000000000eddbf148d81d58e81c34db54e751d4fc9aedd0a7",
            "0x0000000000000000000000008c06679b1e23c4962e8a781495f5de625238c249"
          ],
          "data": "0x00000000000000000000000000000000000000000000021e19e0c9bab2400000",
          "blockHash": "0x61d2300cdf2135a289f5c73cc2702cad1544e2f330c0d48032e868b75e5a5ffc",
          "blockNumber": "0x830d55",
          "blockTimestamp": "0x68551350",
          "transactionHash": "0x3536d38721c16e340a07f9d2706cfc601b61db988e537fcc03490f0474cdceb1",
          "transactionIndex": "0x4f",
          "logIndex": "0x2a3",
          "removed": false
        }
      ],
      "logsBloom": "0x00000000000000000000080000000000000000000000000000000000000000000000000000100000000000000000000000000000000000000000000000000000000000000000200000000008000400000000000000000000000000000000000000000000000000000000000000000000000000000000000000000010000000000000000000000000000000000000000000000000000000000010000000000000000000000000000000000000000000000000000000000010000000000000000000000002000000000000000000000000000000000020000000000000000000000000010000000000000000000000000000000000000000000000000000000001",
      "type": "0x2",
      "transactionHash": "0x3536d38721c16e340a07f9d2706cfc601b61db988e537fcc03490f0474cdceb1",
      "transactionIndex": "0x4f",
      "blockHash": "0x61d2300cdf2135a289f5c73cc2702cad1544e2f330c0d48032e868b75e5a5ffc",
      "blockNumber": "0x830d55",
      "gasUsed": "0x8922",
      "effectiveGasPrice": "0x7bb49b",
      "from": "0xeddbf148d81d58e81c34db54e751d4fc9aedd0a7",
      "to": "0x75841c57ee004474ada7e2d1e6c20b5f8b00e1c1",
      "contractAddress": null
    },
    {
      "status": "0x1",
      "cumulativeGasUsed": "0x325545c",
      "logs": [
        {
          "address": "0x75841c57ee004474ada7e2d1e6c20b5f8b00e1c1",
          "topics": [
            "0xddf252ad1be2c89b69c2b068fc378daa952ba7f163c4a11628f55a4df523b3ef",
            "0x000000000000000000000000eddbf148d81d58e81c34db54e751d4fc9aedd0a7",
            "0x00000000000000000000000036aad26065d45ad4b7d67104a6297e8b5835547e"
          ],
          "data": "0x00000000000000000000000000000000000000000000021e19e0c9bab2400000",
          "blockHash": "0x61d2300cdf2135a289f5c73cc2702cad1544e2f330c0d48032e868b75e5a5ffc",
          "blockNumber": "0x830d55",
          "blockTimestamp": "0x68551350",
          "transactionHash": "0x8efdc443e634b4e5e8fb3e4f2422e2a54469a974380d4f4e23f01aaa2eea6466",
          "transactionIndex": "0x50",
          "logIndex": "0x2a4",
          "removed": false
        }
      ],
      "logsBloom": "0x00000000000000000040000000000000000000000000000000000000000000000000080000100000000000000000000000000000000000000000000000000000000000000000200000000008000400000000000000000000000000000000000000000000000000000000000000000000000000000000000000000010000000000000000000000000000000000000000000000000000000000010000000000000000000000000000000000000000000200000000000000000000000000000000000000002000000000000000000000000000000000020000000000000000000000000000000000000000000000000000000000000000000000000000000000001",
      "type": "0x2",
      "transactionHash": "0x8efdc443e634b4e5e8fb3e4f2422e2a54469a974380d4f4e23f01aaa2eea6466",
      "transactionIndex": "0x50",
      "blockHash": "0x61d2300cdf2135a289f5c73cc2702cad1544e2f330c0d48032e868b75e5a5ffc",
      "blockNumber": "0x830d55",
      "gasUsed": "0x8922",
      "effectiveGasPrice": "0x7bb49b",
      "from": "0xeddbf148d81d58e81c34db54e751d4fc9aedd0a7",
      "to": "0x75841c57ee004474ada7e2d1e6c20b5f8b00e1c1",
      "contractAddress": null
    },
    {
      "status": "0x1",
      "cumulativeGasUsed": "0x325dd7e",
      "logs": [
        {
          "address": "0x16e7fc1922c8baf21e5176276273885e6dabff09",
          "topics": [
            "0xddf252ad1be2c89b69c2b068fc378daa952ba7f163c4a11628f55a4df523b3ef",
            "0x000000000000000000000000eddbf148d81d58e81c34db54e751d4fc9aedd0a7",
            "0x00000000000000000000000099d529952a3885c07178c747a5aba93f03749bc9"
          ],
          "data": "0x00000000000000000000000000000000000000000000021e19e0c9bab2400000",
          "blockHash": "0x61d2300cdf2135a289f5c73cc2702cad1544e2f330c0d48032e868b75e5a5ffc",
          "blockNumber": "0x830d55",
          "blockTimestamp": "0x68551350",
          "transactionHash": "0xd2990f7ab48f691ba6b73e8aa36d381be85be23f40c35baf7c1bd57dc5a9c2b1",
          "transactionIndex": "0x51",
          "logIndex": "0x2a5",
          "removed": false
        }
      ],
      "logsBloom": "0x00000000000000000000000000000000000080000002020000000000000000000000000000100004000000000000000000000000000000000000000000000000000000000000000000000008000400000000000000000000000000000000000000000000000000000000000000000000000000000000000000000010000000000000000000000000000000000000000000000000000000000000000000000000000000000000000000000000000000000000000000000000000000000000000000000002000000000000000000000000000000000000000000000000000008000000000000200000000000000000000000000000000000000000000000000001",
      "type": "0x2",
      "transactionHash": "0xd2990f7ab48f691ba6b73e8aa36d381be85be23f40c35baf7c1bd57dc5a9c2b1",
      "transactionIndex": "0x51",
      "blockHash": "0x61d2300cdf2135a289f5c73cc2702cad1544e2f330c0d48032e868b75e5a5ffc",
      "blockNumber": "0x830d55",
      "gasUsed": "0x8922",
      "effectiveGasPrice": "0x7bb49b",
      "from": "0xeddbf148d81d58e81c34db54e751d4fc9aedd0a7",
      "to": "0x16e7fc1922c8baf21e5176276273885e6dabff09",
      "contractAddress": null
    },
    {
      "status": "0x1",
      "cumulativeGasUsed": "0x32666a0",
      "logs": [
        {
          "address": "0x16e7fc1922c8baf21e5176276273885e6dabff09",
          "topics": [
            "0xddf252ad1be2c89b69c2b068fc378daa952ba7f163c4a11628f55a4df523b3ef",
            "0x000000000000000000000000eddbf148d81d58e81c34db54e751d4fc9aedd0a7",
            "0x0000000000000000000000008c06679b1e23c4962e8a781495f5de625238c249"
          ],
          "data": "0x00000000000000000000000000000000000000000000021e19e0c9bab2400000",
          "blockHash": "0x61d2300cdf2135a289f5c73cc2702cad1544e2f330c0d48032e868b75e5a5ffc",
          "blockNumber": "0x830d55",
          "blockTimestamp": "0x68551350",
          "transactionHash": "0x9c1f00aa2572e184280b0104ce99daefcca3eb5d27acab6291ef1f2177d82455",
          "transactionIndex": "0x52",
          "logIndex": "0x2a6",
          "removed": false
        }
      ],
      "logsBloom": "0x00000000000000000000080000000000000000000000020000000000000000000000000000100004000000000000000000000000000000000000000000000000000000000000000000000008000400000000000000000000000000000000000000000000000000000000000000000000000000000000000000000010000000000000000000000000000000000000000000000000000000000000000000000000000000000000000000000000000000000000000000000010000000000000000000000002000000000000000000000000000000000000000000000000000000000000010000200000000000000000000000000000000000000000000000000001",
      "type": "0x2",
      "transactionHash": "0x9c1f00aa2572e184280b0104ce99daefcca3eb5d27acab6291ef1f2177d82455",
      "transactionIndex": "0x52",
      "blockHash": "0x61d2300cdf2135a289f5c73cc2702cad1544e2f330c0d48032e868b75e5a5ffc",
      "blockNumber": "0x830d55",
      "gasUsed": "0x8922",
      "effectiveGasPrice": "0x7bb49b",
      "from": "0xeddbf148d81d58e81c34db54e751d4fc9aedd0a7",
      "to": "0x16e7fc1922c8baf21e5176276273885e6dabff09",
      "contractAddress": null
    },
    {
      "status": "0x1",
      "cumulativeGasUsed": "0x326efc2",
      "logs": [
        {
          "address": "0x16e7fc1922c8baf21e5176276273885e6dabff09",
          "topics": [
            "0xddf252ad1be2c89b69c2b068fc378daa952ba7f163c4a11628f55a4df523b3ef",
            "0x000000000000000000000000eddbf148d81d58e81c34db54e751d4fc9aedd0a7",
            "0x00000000000000000000000036aad26065d45ad4b7d67104a6297e8b5835547e"
          ],
          "data": "0x00000000000000000000000000000000000000000000021e19e0c9bab2400000",
          "blockHash": "0x61d2300cdf2135a289f5c73cc2702cad1544e2f330c0d48032e868b75e5a5ffc",
          "blockNumber": "0x830d55",
          "blockTimestamp": "0x68551350",
          "transactionHash": "0x8bc01bfc3108a482ed81fe80ea8beef6d6014786be895c05a4ba8224ff744c79",
          "transactionIndex": "0x53",
          "logIndex": "0x2a7",
          "removed": false
        }
      ],
      "logsBloom": "0x00000000000000000040000000000000000000000000020000000000000000000000080000100004000000000000000000000000000000000000000000000000000000000000000000000008000400000000000000000000000000000000000000000000000000000000000000000000000000000000000000000010000000000000000000000000000000000000000000000000000000000000000000000000000000000000000000000000000000200000000000000000000000000000000000000002000000000000000000000000000000000000000000000000000000000000000000200000000000000000000000000000000000000000000000000001",
      "type": "0x2",
      "transactionHash": "0x8bc01bfc3108a482ed81fe80ea8beef6d6014786be895c05a4ba8224ff744c79",
      "transactionIndex": "0x53",
      "blockHash": "0x61d2300cdf2135a289f5c73cc2702cad1544e2f330c0d48032e868b75e5a5ffc",
      "blockNumber": "0x830d55",
      "gasUsed": "0x8922",
      "effectiveGasPrice": "0x7bb49b",
      "from": "0xeddbf148d81d58e81c34db54e751d4fc9aedd0a7",
      "to": "0x16e7fc1922c8baf21e5176276273885e6dabff09",
      "contractAddress": null
    },
    {
      "status": "0x1",
      "cumulativeGasUsed": "0x32778e4",
      "logs": [
        {
          "address": "0xe17a3c8fbe4519d4d5347082f77589ea23336a9c",
          "topics": [
            "0xddf252ad1be2c89b69c2b068fc378daa952ba7f163c4a11628f55a4df523b3ef",
            "0x000000000000000000000000eddbf148d81d58e81c34db54e751d4fc9aedd0a7",
            "0x00000000000000000000000099d529952a3885c07178c747a5aba93f03749bc9"
          ],
          "data": "0x00000000000000000000000000000000000000000000021e19e0c9bab2400000",
          "blockHash": "0x61d2300cdf2135a289f5c73cc2702cad1544e2f330c0d48032e868b75e5a5ffc",
          "blockNumber": "0x830d55",
          "blockTimestamp": "0x68551350",
          "transactionHash": "0xaf409665a0ca8158c3d3286efa35c99aadac90dfd07c311a9a6b2839d59354fa",
          "transactionIndex": "0x54",
          "logIndex": "0x2a8",
          "removed": false
        }
      ],
      "logsBloom": "0x00000000000000000000000000000000000080000002000000000000000000000000000000100000000000000000000000000000000000000000000000000000000000000000000000000008000400000000000000000008000000000000000000000000000000000000000000000000000000000000000000000010000000000000000000000000000001000000000000000000000000000000000000000000000000000000000000000000000000000000000000000000000000000000000000000002000000000000000000000000000000010000000000000000000008000000000000000000000000000000000000000000000000000000000000000001",
      "type": "0x2",
      "transactionHash": "0xaf409665a0ca8158c3d3286efa35c99aadac90dfd07c311a9a6b2839d59354fa",
      "transactionIndex": "0x54",
      "blockHash": "0x61d2300cdf2135a289f5c73cc2702cad1544e2f330c0d48032e868b75e5a5ffc",
      "blockNumber": "0x830d55",
      "gasUsed": "0x8922",
      "effectiveGasPrice": "0x7bb49b",
      "from": "0xeddbf148d81d58e81c34db54e751d4fc9aedd0a7",
      "to": "0xe17a3c8fbe4519d4d5347082f77589ea23336a9c",
      "contractAddress": null
    },
    {
      "status": "0x1",
      "cumulativeGasUsed": "0x3280206",
      "logs": [
        {
          "address": "0xe17a3c8fbe4519d4d5347082f77589ea23336a9c",
          "topics": [
            "0xddf252ad1be2c89b69c2b068fc378daa952ba7f163c4a11628f55a4df523b3ef",
            "0x000000000000000000000000eddbf148d81d58e81c34db54e751d4fc9aedd0a7",
            "0x0000000000000000000000008c06679b1e23c4962e8a781495f5de625238c249"
          ],
          "data": "0x00000000000000000000000000000000000000000000021e19e0c9bab2400000",
          "blockHash": "0x61d2300cdf2135a289f5c73cc2702cad1544e2f330c0d48032e868b75e5a5ffc",
          "blockNumber": "0x830d55",
          "blockTimestamp": "0x68551350",
          "transactionHash": "0x2d3a0c7b89aba94db1a5049c66b592cfe44939640775557fb8eb2c8902dca1e8",
          "transactionIndex": "0x55",
          "logIndex": "0x2a9",
          "removed": false
        }
      ],
      "logsBloom": "0x00000000000000000000080000000000000000000000000000000000000000000000000000100000000000000000000000000000000000000000000000000000000000000000000000000008000400000000000000000008000000000000000000000000000000000000000000000000000000000000000000000010000000000000000000000000000001000000000000000000000000000000000000000000000000000000000000000000000000000000000000000010000000000000000000000002000000000000000000000000000000010000000000000000000000000000010000000000000000000000000000000000000000000000000000000001",
      "type": "0x2",
      "transactionHash": "0x2d3a0c7b89aba94db1a5049c66b592cfe44939640775557fb8eb2c8902dca1e8",
      "transactionIndex": "0x55",
      "blockHash": "0x61d2300cdf2135a289f5c73cc2702cad1544e2f330c0d48032e868b75e5a5ffc",
      "blockNumber": "0x830d55",
      "gasUsed": "0x8922",
      "effectiveGasPrice": "0x7bb49b",
      "from": "0xeddbf148d81d58e81c34db54e751d4fc9aedd0a7",
      "to": "0xe17a3c8fbe4519d4d5347082f77589ea23336a9c",
      "contractAddress": null
    },
    {
      "status": "0x1",
      "cumulativeGasUsed": "0x3288b28",
      "logs": [
        {
          "address": "0xe17a3c8fbe4519d4d5347082f77589ea23336a9c",
          "topics": [
            "0xddf252ad1be2c89b69c2b068fc378daa952ba7f163c4a11628f55a4df523b3ef",
            "0x000000000000000000000000eddbf148d81d58e81c34db54e751d4fc9aedd0a7",
            "0x00000000000000000000000036aad26065d45ad4b7d67104a6297e8b5835547e"
          ],
          "data": "0x00000000000000000000000000000000000000000000021e19e0c9bab2400000",
          "blockHash": "0x61d2300cdf2135a289f5c73cc2702cad1544e2f330c0d48032e868b75e5a5ffc",
          "blockNumber": "0x830d55",
          "blockTimestamp": "0x68551350",
          "transactionHash": "0x98295329f7400d03bf0a38f3bc9556f8b147d435f753530bb971d85354880e71",
          "transactionIndex": "0x56",
          "logIndex": "0x2aa",
          "removed": false
        }
      ],
      "logsBloom": "0x00000000000000000040000000000000000000000000000000000000000000000000080000100000000000000000000000000000000000000000000000000000000000000000000000000008000400000000000000000008000000000000000000000000000000000000000000000000000000000000000000000010000000000000000000000000000001000000000000000000000000000000000000000000000000000000000000000000000000200000000000000000000000000000000000000002000000000000000000000000000000010000000000000000000000000000000000000000000000000000000000000000000000000000000000000001",
      "type": "0x2",
      "transactionHash": "0x98295329f7400d03bf0a38f3bc9556f8b147d435f753530bb971d85354880e71",
      "transactionIndex": "0x56",
      "blockHash": "0x61d2300cdf2135a289f5c73cc2702cad1544e2f330c0d48032e868b75e5a5ffc",
      "blockNumber": "0x830d55",
      "gasUsed": "0x8922",
      "effectiveGasPrice": "0x7bb49b",
      "from": "0xeddbf148d81d58e81c34db54e751d4fc9aedd0a7",
      "to": "0xe17a3c8fbe4519d4d5347082f77589ea23336a9c",
      "contractAddress": null
    }
  ],
  "libraries": [],
  "pending": [],
  "returns": {},
  "timestamp": 1750405970577,
  "chain": 11155111,
  "commit": "2b04cc2"
}