{
  "transactions": [
    {
      "hash": "0xa8d9df6934a83c9bc6fa37b3606295c68bf0b1a7e655b07cfa3a726cd714e45a",
      "transactionType": "CALL",
      "contractName": null,
      "contractAddress": "0xef8fd7e36fa7233c32a953b4c8004c1383f4e49d",
      "function": "approve(address,uint256)",
      "arguments": [
        "0xA931E00664710217cC543a18EAdA487dD55f5aC6",
        "500000000000000000000"
      ],
      "transaction": {
        "from": "0xeddbf148d81d58e81c34db54e751d4fc9aedd0a7",
        "to": "0xef8fd7e36fa7233c32a953b4c8004c1383f4e49d",
        "gas": "0xaa7b",
        "value": "0x0",
        "input": "0x095ea7b3000000000000000000000000a931e00664710217cc543a18eada487dd55f5ac600000000000000000000000000000000000000000000001b1ae4d6e2ef500000",
        "nonce": "0x63",
        "chainId": "0xaa36a7"
      },
      "additionalContracts": [],
      "isFixedGasLimit": false
    },
    {
      "hash": "0x53ac416701266671af1333026fb2ae1e7ee247f4561985b7c1aee62d7422e8ec",
      "transactionType": "CALL",
      "contractName": null,
      "contractAddress": "0xa931e00664710217cc543a18eada487dd55f5ac6",
      "function": "addLiquidity(uint256)",
      "arguments": [
        "500000000000000000000"
      ],
      "transaction": {
        "from": "0xeddbf148d81d58e81c34db54e751d4fc9aedd0a7",
        "to": "0xa931e00664710217cc543a18eada487dd55f5ac6",
        "gas": "0x15e7b",
        "value": "0x2c68af0bb140000",
        "input": "0x51c6590a00000000000000000000000000000000000000000000001b1ae4d6e2ef500000",
        "nonce": "0x64",
        "chainId": "0xaa36a7"
      },
      "additionalContracts": [],
      "isFixedGasLimit": false
    }
  ],
  "receipts": [
    {
      "status": "0x1",
      "cumulativeGasUsed": "0x13bb0a4",
      "logs": [
        {
          "address": "0xef8fd7e36fa7233c32a953b4c8004c1383f4e49d",
          "topics": [
            "0x8c5be1e5ebec7d5bd14f71427d1e84f3dd0314c0f7b2291e5b200ac8c7c3b925",
            "0x000000000000000000000000eddbf148d81d58e81c34db54e751d4fc9aedd0a7",
            "0x000000000000000000000000a931e00664710217cc543a18eada487dd55f5ac6"
          ],
          "data": "0x00000000000000000000000000000000000000000000001b1ae4d6e2ef500000",
          "blockHash": "0xbc889891e118d3426ba596149a16a06e1105b455b70b5112476b0a44264c596b",
          "blockNumber": "0x842648",
          "blockTimestamp": "0x68624a24",
          "transactionHash": "0xa8d9df6934a83c9bc6fa37b3606295c68bf0b1a7e655b07cfa3a726cd714e45a",
          "transactionIndex": "0xea",
          "logIndex": "0x194",
          "removed": false
        }
      ],
      "logsBloom": "0x00000000000040000000000000000000000000000000000000000000000000000000000000100000000000000000000000000000000000000000000000200000000000000000000000000000000400000020000000000000000000000000000000000000000000000000000000000000000000000000000000000000000000000000000000000000000000000000000000000000000000000002000000000000020000000000000000000000000000200000000000000000000000000000000000000000000000002000000000000000000000000000000000000000000000000010000000000000000000000000000000000000000000000100000000000001",
      "type": "0x2",
      "transactionHash": "0xa8d9df6934a83c9bc6fa37b3606295c68bf0b1a7e655b07cfa3a726cd714e45a",
      "transactionIndex": "0xea",
      "blockHash": "0xbc889891e118d3426ba596149a16a06e1105b455b70b5112476b0a44264c596b",
      "blockNumber": "0x842648",
      "gasUsed": "0x7492",
      "effectiveGasPrice": "0xbf6a5b",
      "from": "0xeddbf148d81d58e81c34db54e751d4fc9aedd0a7",
      "to": "0xef8fd7e36fa7233c32a953b4c8004c1383f4e49d",
      "contractAddress": null
    },
    {
      "status": "0x1",
      "cumulativeGasUsed": "0x13cae63",
      "logs": [
        {
          "address": "0xef8fd7e36fa7233c32a953b4c8004c1383f4e49d",
          "topics": [
            "0xddf252ad1be2c89b69c2b068fc378daa952ba7f163c4a11628f55a4df523b3ef",
            "0x000000000000000000000000eddbf148d81d58e81c34db54e751d4fc9aedd0a7",
            "0x000000000000000000000000a931e00664710217cc543a18eada487dd55f5ac6"
          ],
          "data": "0x000000000000000000000000000000000000000000000008ac7230489e800000",
          "blockHash": "0xbc889891e118d3426ba596149a16a06e1105b455b70b5112476b0a44264c596b",
          "blockNumber": "0x842648",
          "blockTimestamp": "0x68624a24",
          "transactionHash": "0x53ac416701266671af1333026fb2ae1e7ee247f4561985b7c1aee62d7422e8ec",
          "transactionIndex": "0xeb",
          "logIndex": "0x195",
          "removed": false
        },
        {
          "address": "0xa931e00664710217cc543a18eada487dd55f5ac6",
          "topics": [
            "0xddf252ad1be2c89b69c2b068fc378daa952ba7f163c4a11628f55a4df523b3ef",
            "0x0000000000000000000000000000000000000000000000000000000000000000",
            "0x000000000000000000000000eddbf148d81d58e81c34db54e751d4fc9aedd0a7"
          ],
          "data": "0x00000000000000000000000000000000000000000000000002c68af0bb140000",
          "blockHash": "0xbc889891e118d3426ba596149a16a06e1105b455b70b5112476b0a44264c596b",
          "blockNumber": "0x842648",
          "blockTimestamp": "0x68624a24",
          "transactionHash": "0x53ac416701266671af1333026fb2ae1e7ee247f4561985b7c1aee62d7422e8ec",
          "transactionIndex": "0xeb",
          "logIndex": "0x196",
          "removed": false
        },
        {
          "address": "0xa931e00664710217cc543a18eada487dd55f5ac6",
          "topics": [
            "0x06239653922ac7bea6aa2b19dc486b9361821d37712eb796adfd38d81de278ca",
            "0x000000000000000000000000eddbf148d81d58e81c34db54e751d4fc9aedd0a7",
            "0x00000000000000000000000000000000000000000000000002c68af0bb140000",
            "0x000000000000000000000000000000000000000000000008ac7230489e800000"
          ],
          "data": "0x",
          "blockHash": "0xbc889891e118d3426ba596149a16a06e1105b455b70b5112476b0a44264c596b",
          "blockNumber": "0x842648",
          "blockTimestamp": "0x68624a24",
          "transactionHash": "0x53ac416701266671af1333026fb2ae1e7ee247f4561985b7c1aee62d7422e8ec",
          "transactionIndex": "0xeb",
          "logIndex": "0x197",
          "removed": false
        },
        {
          "address": "0xa931e00664710217cc543a18eada487dd55f5ac6",
          "topics": [
            "0xddf252ad1be2c89b69c2b068fc378daa952ba7f163c4a11628f55a4df523b3ef",
            "0x0000000000000000000000000000000000000000000000000000000000000000",
            "0x000000000000000000000000eddbf148d81d58e81c34db54e751d4fc9aedd0a7"
          ],
          "data": "0x00000000000000000000000000000000000000000000000002c68af0bb140000",
          "blockHash": "0xbc889891e118d3426ba596149a16a06e1105b455b70b5112476b0a44264c596b",
          "blockNumber": "0x842648",
          "blockTimestamp": "0x68624a24",
          "transactionHash": "0x53ac416701266671af1333026fb2ae1e7ee247f4561985b7c1aee62d7422e8ec",
          "transactionIndex": "0xeb",
          "logIndex": "0x198",
          "removed": false
        }
      ],
      "logsBloom": "0x00000000000040000000000000000000000000000000000000020000000000000000200000100000000000000000000000020000000000000000000000000000000000000000000000004008000400000020000000000000000000000000000000000000020000000000000000000800000000000000000000000010000008000000000000000000000000000000000000000000000000000002000000040000000000000000000000000000000000240000000000000000000110000000000000000002000000002000000000000000000800001000000000000000000020000000000000000000000000000000000000080000000000000100000000000001",
      "type": "0x2",
      "transactionHash": "0x53ac416701266671af1333026fb2ae1e7ee247f4561985b7c1aee62d7422e8ec",
      "transactionIndex": "0xeb",
      "blockHash": "0xbc889891e118d3426ba596149a16a06e1105b455b70b5112476b0a44264c596b",
      "blockNumber": "0x842648",
      "gasUsed": "0xfdbf",
      "effectiveGasPrice": "0xbf6a5b",
      "from": "0xeddbf148d81d58e81c34db54e751d4fc9aedd0a7",
      "to": "0xa931e00664710217cc543a18eada487dd55f5ac6",
      "contractAddress": null
    }
  ],
  "libraries": [],
  "pending": [],
  "returns": {},
  "timestamp": 1751271970206,
  "chain": 11155111,
  "commit": "03e3069"
}